{
  "contractName": "Charity",
  "abi": [
    {
      "inputs": [],
      "stateMutability": "nonpayable",
      "type": "constructor"
    },
    {
      "inputs": [
        {
          "internalType": "address",
          "name": "",
          "type": "address"
        },
        {
          "internalType": "uint256",
          "name": "",
          "type": "uint256"
        }
      ],
      "name": "listCharity",
      "outputs": [
        {
          "internalType": "address",
          "name": "",
          "type": "address"
        }
      ],
      "stateMutability": "view",
      "type": "function",
      "constant": true
    },
    {
      "inputs": [],
      "name": "owner",
      "outputs": [
        {
          "internalType": "address",
          "name": "",
          "type": "address"
        }
      ],
      "stateMutability": "view",
      "type": "function",
      "constant": true
    },
    {
      "inputs": [
        {
          "internalType": "string",
          "name": "_name",
          "type": "string"
        },
        {
          "internalType": "string",
          "name": "_description",
          "type": "string"
        },
        {
          "internalType": "uint256",
          "name": "_target",
          "type": "uint256"
        }
      ],
      "name": "addCharityProject",
      "outputs": [
        {
          "internalType": "bool",
          "name": "",
          "type": "bool"
        }
      ],
      "stateMutability": "nonpayable",
      "type": "function"
    }
  ],
  "bytecode": "0x608060405234801561001057600080fd5b5033600160006101000a81548173ffffffffffffffffffffffffffffffffffffffff021916908373ffffffffffffffffffffffffffffffffffffffff1602179055506127c3806100616000396000f3fe60806040523480156200001157600080fd5b5060043610620000465760003560e01c80638da5cb5b146200004b578063dbd9bd19146200006d578063dd8bbd9f14620000a3575b600080fd5b62000055620000d9565b60405162000064919062000301565b60405180910390f35b6200008b60048036038101906200008591906200039e565b620000ff565b6040516200009a919062000301565b60405180910390f35b620000c16004803603810190620000bb919062000547565b6200014e565b604051620000d09190620005fe565b60405180910390f35b600160009054906101000a900473ffffffffffffffffffffffffffffffffffffffff1681565b600060205281600052604060002081815481106200011c57600080fd5b906000526020600020016000915091509054906101000a900473ffffffffffffffffffffffffffffffffffffffff1681565b600080848484336040516200016390620002ae565b620001729493929190620006bf565b604051809103906000f0801580156200018f573d6000803e3d6000fd5b5090506000803373ffffffffffffffffffffffffffffffffffffffff1673ffffffffffffffffffffffffffffffffffffffff1681526020019081526020016000208173ffffffffffffffffffffffffffffffffffffffff166338cc48316040518163ffffffff1660e01b8152600401602060405180830381865afa1580156200021c573d6000803e3d6000fd5b505050506040513d601f19601f8201168201806040525081019062000242919062000731565b9080600181540180825580915050600190039060005260206000200160009091909190916101000a81548173ffffffffffffffffffffffffffffffffffffffff021916908373ffffffffffffffffffffffffffffffffffffffff16021790555060019150509392505050565b61202a806200076483390190565b600073ffffffffffffffffffffffffffffffffffffffff82169050919050565b6000620002e982620002bc565b9050919050565b620002fb81620002dc565b82525050565b6000602082019050620003186000830184620002f0565b92915050565b6000604051905090565b600080fd5b600080fd5b6200033d81620002dc565b81146200034957600080fd5b50565b6000813590506200035d8162000332565b92915050565b6000819050919050565b620003788162000363565b81146200038457600080fd5b50565b60008135905062000398816200036d565b92915050565b60008060408385031215620003b857620003b762000328565b5b6000620003c8858286016200034c565b9250506020620003db8582860162000387565b9150509250929050565b600080fd5b600080fd5b6000601f19601f8301169050919050565b7f4e487b7100000000000000000000000000000000000000000000000000000000600052604160045260246000fd5b6200043a82620003ef565b810181811067ffffffffffffffff821117156200045c576200045b62000400565b5b80604052505050565b6000620004716200031e565b90506200047f82826200042f565b919050565b600067ffffffffffffffff821115620004a257620004a162000400565b5b620004ad82620003ef565b9050602081019050919050565b82818337600083830152505050565b6000620004e0620004da8462000484565b62000465565b905082815260208101848484011115620004ff57620004fe620003ea565b5b6200050c848285620004ba565b509392505050565b600082601f8301126200052c576200052b620003e5565b5b81356200053e848260208601620004c9565b91505092915050565b60008060006060848603121562000563576200056262000328565b5b600084013567ffffffffffffffff8111156200058457620005836200032d565b5b620005928682870162000514565b935050602084013567ffffffffffffffff811115620005b657620005b56200032d565b5b620005c48682870162000514565b9250506040620005d78682870162000387565b9150509250925092565b60008115159050919050565b620005f881620005e1565b82525050565b6000602082019050620006156000830184620005ed565b92915050565b600081519050919050565b600082825260208201905092915050565b60005b83811015620006575780820151818401526020810190506200063a565b8381111562000667576000848401525b50505050565b60006200067a826200061b565b62000686818562000626565b93506200069881856020860162000637565b620006a381620003ef565b840191505092915050565b620006b98162000363565b82525050565b60006080820190508181036000830152620006db81876200066d565b90508181036020830152620006f181866200066d565b9050620007026040830185620006ae565b620007116060830184620002f0565b95945050505050565b6000815190506200072b8162000332565b92915050565b6000602082840312156200074a576200074962000328565b5b60006200075a848285016200071a565b9150509291505056fe60806040523480156200001157600080fd5b506040516200202a3803806200202a8339818101604052810190620000379190620003e4565b600082116200004557600080fd5b83600090805190602001906200005d929190620000f7565b50826001908051906020019062000076929190620000f7565b5080600260006101000a81548173ffffffffffffffffffffffffffffffffffffffff021916908373ffffffffffffffffffffffffffffffffffffffff160217905550816003819055506000600860006101000a81548160ff02191690836002811115620000e857620000e762000494565b5b02179055505050505062000528565b8280546200010590620004f2565b90600052602060002090601f01602090048101928262000129576000855562000175565b82601f106200014457805160ff191683800117855562000175565b8280016001018555821562000175579182015b828111156200017457825182559160200191906001019062000157565b5b50905062000184919062000188565b5090565b5b80821115620001a357600081600090555060010162000189565b5090565b6000604051905090565b600080fd5b600080fd5b600080fd5b600080fd5b6000601f19601f8301169050919050565b7f4e487b7100000000000000000000000000000000000000000000000000000000600052604160045260246000fd5b6200021082620001c5565b810181811067ffffffffffffffff82111715620002325762000231620001d6565b5b80604052505050565b600062000247620001a7565b905062000255828262000205565b919050565b600067ffffffffffffffff821115620002785762000277620001d6565b5b6200028382620001c5565b9050602081019050919050565b60005b83811015620002b057808201518184015260208101905062000293565b83811115620002c0576000848401525b50505050565b6000620002dd620002d7846200025a565b6200023b565b905082815260208101848484011115620002fc57620002fb620001c0565b5b6200030984828562000290565b509392505050565b600082601f830112620003295762000328620001bb565b5b81516200033b848260208601620002c6565b91505092915050565b6000819050919050565b620003598162000344565b81146200036557600080fd5b50565b60008151905062000379816200034e565b92915050565b600073ffffffffffffffffffffffffffffffffffffffff82169050919050565b6000620003ac826200037f565b9050919050565b620003be816200039f565b8114620003ca57600080fd5b50565b600081519050620003de81620003b3565b92915050565b60008060008060808587031215620004015762000400620001b1565b5b600085015167ffffffffffffffff811115620004225762000421620001b6565b5b620004308782880162000311565b945050602085015167ffffffffffffffff811115620004545762000453620001b6565b5b620004628782880162000311565b9350506040620004758782880162000368565b92505060606200048887828801620003cd565b91505092959194509250565b7f4e487b7100000000000000000000000000000000000000000000000000000000600052602160045260246000fd5b7f4e487b7100000000000000000000000000000000000000000000000000000000600052602260045260246000fd5b600060028204905060018216806200050b57607f821691505b60208210811415620005225762000521620004c3565b5b50919050565b611af280620005386000396000f3fe6080604052600436106100e85760003560e01c806373d81bb71161008a578063ac62f56611610059578063ac62f566146102f3578063c19d93fb14610334578063d4b839921461035f578063efeb5e581461038a576100e8565b806373d81bb7146102475780637b3e5e7b146102725780638da5cb5b1461029d578063a149277b146102c8576100e8565b80632a19cf6b116100c65780632a19cf6b1461017357806338cc4831146101b0578063481b5f6f146101db5780637284e4161461021c576100e8565b806306fdde03146100ed57806312065fe0146101185780631653441c14610143575b600080fd5b3480156100f957600080fd5b506101026103c9565b60405161010f91906111e8565b60405180910390f35b34801561012457600080fd5b5061012d610457565b60405161013a9190611223565b60405180910390f35b61015d60048036038101906101589190611387565b61045f565b60405161016a919061141a565b60405180910390f35b34801561017f57600080fd5b5061019a60048036038101906101959190611493565b610778565b6040516101a7919061141a565b60405180910390f35b3480156101bc57600080fd5b506101c5610904565b6040516101d2919061153f565b60405180910390f35b3480156101e757600080fd5b5061020260048036038101906101fd91906115b2565b61090c565b6040516102139594939291906115f2565b60405180910390f35b34801561022857600080fd5b50610231610a8f565b60405161023e91906111e8565b60405180910390f35b34801561025357600080fd5b5061025c610b1d565b604051610269919061141a565b60405180910390f35b34801561027e57600080fd5b50610287610b40565b6040516102949190611223565b60405180910390f35b3480156102a957600080fd5b506102b2610b46565b6040516102bf919061153f565b60405180910390f35b3480156102d457600080fd5b506102dd610b6c565b6040516102ea919061141a565b60405180910390f35b3480156102ff57600080fd5b5061031a60048036038101906103159190611653565b610c4c565b60405161032b9594939291906115f2565b60405180910390f35b34801561034057600080fd5b50610349610dc2565b60405161035691906116f7565b60405180910390f35b34801561036b57600080fd5b50610374610dd5565b6040516103819190611223565b60405180910390f35b34801561039657600080fd5b506103b160048036038101906103ac9190611653565b610ddb565b6040516103c093929190611721565b60405180910390f35b600080546103d690611795565b80601f016020809104026020016040519081016040528092919081815260200182805461040290611795565b801561044f5780601f106104245761010080835404028352916020019161044f565b820191906000526020600020905b81548152906001019060200180831161043257829003601f168201915b505050505081565b600047905090565b60006001600281111561047557610474611680565b5b600860009054906101000a900460ff16600281111561049757610496611680565b5b146104a157600080fd5b600034116104ae57600080fd5b343373ffffffffffffffffffffffffffffffffffffffff1631116104d157600080fd5b60006040518060a001604052803373ffffffffffffffffffffffffffffffffffffffff168152602001858152602001848152602001348152602001428152509050600560003373ffffffffffffffffffffffffffffffffffffffff1673ffffffffffffffffffffffffffffffffffffffff16815260200190815260200160002081908060018154018082558091505060019003906000526020600020906005020160009091909190915060008201518160000160006101000a81548173ffffffffffffffffffffffffffffffffffffffff021916908373ffffffffffffffffffffffffffffffffffffffff16021790555060208201518160010190805190602001906105de9291906110ac565b5060408201518160020190805190602001906105fb9291906110ac565b5060608201518160030155608082015181600401555050600681908060018154018082558091505060019003906000526020600020906005020160009091909190915060008201518160000160006101000a81548173ffffffffffffffffffffffffffffffffffffffff021916908373ffffffffffffffffffffffffffffffffffffffff16021790555060208201518160010190805190602001906106a19291906110ac565b5060408201518160020190805190602001906106be9291906110ac565b506060820151816003015560808201518160040155505034600460008282546106e791906117f6565b925050819055507f24d83d68453fc3df073101ac515398dd4daeb23e45efb66c3ad49303c188968e8160405161071d9190611931565b60405180910390a160011515610731610b1d565b1515141561076d576002600860006101000a81548160ff0219169083600281111561075f5761075e611680565b5b021790555061076c610f45565b5b600191505092915050565b6000600260009054906101000a900473ffffffffffffffffffffffffffffffffffffffff1673ffffffffffffffffffffffffffffffffffffffff163373ffffffffffffffffffffffffffffffffffffffff16146107d457600080fd5b600060028111156107e8576107e7611680565b5b600860009054906101000a900460ff16600281111561080a57610809611680565b5b1461081457600080fd5b600060405180606001604052808673ffffffffffffffffffffffffffffffffffffffff168152602001858152602001848152509050600781908060018154018082558091505060019003906000526020600020906003020160009091909190915060008201518160000160006101000a81548173ffffffffffffffffffffffffffffffffffffffff021916908373ffffffffffffffffffffffffffffffffffffffff16021790555060208201518160010190805190602001906108d89291906110ac565b5060408201518160020190805190602001906108f59291906110ac565b50505060019150509392505050565b600030905090565b6005602052816000526040600020818154811061092857600080fd5b9060005260206000209060050201600091509150508060000160009054906101000a900473ffffffffffffffffffffffffffffffffffffffff169080600101805461097290611795565b80601f016020809104026020016040519081016040528092919081815260200182805461099e90611795565b80156109eb5780601f106109c0576101008083540402835291602001916109eb565b820191906000526020600020905b8154815290600101906020018083116109ce57829003601f168201915b505050505090806002018054610a0090611795565b80601f0160208091040260200160405190810160405280929190818152602001828054610a2c90611795565b8015610a795780601f10610a4e57610100808354040283529160200191610a79565b820191906000526020600020905b815481529060010190602001808311610a5c57829003601f168201915b5050505050908060030154908060040154905085565b60018054610a9c90611795565b80601f0160208091040260200160405190810160405280929190818152602001828054610ac890611795565b8015610b155780601f10610aea57610100808354040283529160200191610b15565b820191906000526020600020905b815481529060010190602001808311610af857829003601f168201915b505050505081565b6000600354610b2a610457565b10610b385760019050610b3d565b600090505b90565b60045481565b600260009054906101000a900473ffffffffffffffffffffffffffffffffffffffff1681565b6000600260009054906101000a900473ffffffffffffffffffffffffffffffffffffffff1673ffffffffffffffffffffffffffffffffffffffff163373ffffffffffffffffffffffffffffffffffffffff1614610bc857600080fd5b60006002811115610bdc57610bdb611680565b5b600860009054906101000a900460ff166002811115610bfe57610bfd611680565b5b14610c0857600080fd5b600060078054905011610c1a57600080fd5b6001600860006101000a81548160ff02191690836002811115610c4057610c3f611680565b5b02179055506001905090565b60068181548110610c5c57600080fd5b90600052602060002090600502016000915090508060000160009054906101000a900473ffffffffffffffffffffffffffffffffffffffff1690806001018054610ca590611795565b80601f0160208091040260200160405190810160405280929190818152602001828054610cd190611795565b8015610d1e5780601f10610cf357610100808354040283529160200191610d1e565b820191906000526020600020905b815481529060010190602001808311610d0157829003601f168201915b505050505090806002018054610d3390611795565b80601f0160208091040260200160405190810160405280929190818152602001828054610d5f90611795565b8015610dac5780601f10610d8157610100808354040283529160200191610dac565b820191906000526020600020905b815481529060010190602001808311610d8f57829003601f168201915b5050505050908060030154908060040154905085565b600860009054906101000a900460ff1681565b60035481565b60078181548110610deb57600080fd5b90600052602060002090600302016000915090508060000160009054906101000a900473ffffffffffffffffffffffffffffffffffffffff1690806001018054610e3490611795565b80601f0160208091040260200160405190810160405280929190818152602001828054610e6090611795565b8015610ead5780601f10610e8257610100808354040283529160200191610ead565b820191906000526020600020905b815481529060010190602001808311610e9057829003601f168201915b505050505090806002018054610ec290611795565b80601f0160208091040260200160405190810160405280929190818152602001828054610eee90611795565b8015610f3b5780601f10610f1057610100808354040283529160200191610f3b565b820191906000526020600020905b815481529060010190602001808311610f1e57829003601f168201915b5050505050905083565b60006064605f47610f569190611953565b610f6091906119dc565b90506000600780549050905060008183610f7a91906119dc565b905060005b828110156110a65760078181548110610f9b57610f9a611a0d565b5b906000526020600020906003020160000160009054906101000a900473ffffffffffffffffffffffffffffffffffffffff1673ffffffffffffffffffffffffffffffffffffffff166108fc839081150290604051600060405180830381858888f19350505050158015611012573d6000803e3d6000fd5b507ffaffca71c161e93019c1527f21a0fb1523759be5092113930dab383f15a3a359306007838154811061104957611048611a0d565b5b906000526020600020906003020160000160009054906101000a900473ffffffffffffffffffffffffffffffffffffffff168460405161108b93929190611a3c565b60405180910390a1808061109e90611a73565b915050610f7f565b50505050565b8280546110b890611795565b90600052602060002090601f0160209004810192826110da5760008555611121565b82601f106110f357805160ff1916838001178555611121565b82800160010185558215611121579182015b82811115611120578251825591602001919060010190611105565b5b50905061112e9190611132565b5090565b5b8082111561114b576000816000905550600101611133565b5090565b600081519050919050565b600082825260208201905092915050565b60005b8381101561118957808201518184015260208101905061116e565b83811115611198576000848401525b50505050565b6000601f19601f8301169050919050565b60006111ba8261114f565b6111c4818561115a565b93506111d481856020860161116b565b6111dd8161119e565b840191505092915050565b6000602082019050818103600083015261120281846111af565b905092915050565b6000819050919050565b61121d8161120a565b82525050565b60006020820190506112386000830184611214565b92915050565b6000604051905090565b600080fd5b600080fd5b600080fd5b600080fd5b7f4e487b7100000000000000000000000000000000000000000000000000000000600052604160045260246000fd5b6112948261119e565b810181811067ffffffffffffffff821117156112b3576112b261125c565b5b80604052505050565b60006112c661123e565b90506112d2828261128b565b919050565b600067ffffffffffffffff8211156112f2576112f161125c565b5b6112fb8261119e565b9050602081019050919050565b82818337600083830152505050565b600061132a611325846112d7565b6112bc565b90508281526020810184848401111561134657611345611257565b5b611351848285611308565b509392505050565b600082601f83011261136e5761136d611252565b5b813561137e848260208601611317565b91505092915050565b6000806040838503121561139e5761139d611248565b5b600083013567ffffffffffffffff8111156113bc576113bb61124d565b5b6113c885828601611359565b925050602083013567ffffffffffffffff8111156113e9576113e861124d565b5b6113f585828601611359565b9150509250929050565b60008115159050919050565b611414816113ff565b82525050565b600060208201905061142f600083018461140b565b92915050565b600073ffffffffffffffffffffffffffffffffffffffff82169050919050565b600061146082611435565b9050919050565b61147081611455565b811461147b57600080fd5b50565b60008135905061148d81611467565b92915050565b6000806000606084860312156114ac576114ab611248565b5b60006114ba8682870161147e565b935050602084013567ffffffffffffffff8111156114db576114da61124d565b5b6114e786828701611359565b925050604084013567ffffffffffffffff8111156115085761150761124d565b5b61151486828701611359565b9150509250925092565b600061152982611435565b9050919050565b6115398161151e565b82525050565b60006020820190506115546000830184611530565b92915050565b6115638161151e565b811461156e57600080fd5b50565b6000813590506115808161155a565b92915050565b61158f8161120a565b811461159a57600080fd5b50565b6000813590506115ac81611586565b92915050565b600080604083850312156115c9576115c8611248565b5b60006115d785828601611571565b92505060206115e88582860161159d565b9150509250929050565b600060a0820190506116076000830188611530565b818103602083015261161981876111af565b9050818103604083015261162d81866111af565b905061163c6060830185611214565b6116496080830184611214565b9695505050505050565b60006020828403121561166957611668611248565b5b60006116778482850161159d565b91505092915050565b7f4e487b7100000000000000000000000000000000000000000000000000000000600052602160045260246000fd5b600381106116c0576116bf611680565b5b50565b60008190506116d1826116af565b919050565b60006116e1826116c3565b9050919050565b6116f1816116d6565b82525050565b600060208201905061170c60008301846116e8565b92915050565b61171b81611455565b82525050565b60006060820190506117366000830186611712565b818103602083015261174881856111af565b9050818103604083015261175c81846111af565b9050949350505050565b7f4e487b7100000000000000000000000000000000000000000000000000000000600052602260045260246000fd5b600060028204905060018216806117ad57607f821691505b602082108114156117c1576117c0611766565b5b50919050565b7f4e487b7100000000000000000000000000000000000000000000000000000000600052601160045260246000fd5b60006118018261120a565b915061180c8361120a565b9250827fffffffffffffffffffffffffffffffffffffffffffffffffffffffffffffffff03821115611841576118406117c7565b5b828201905092915050565b6118558161151e565b82525050565b600082825260208201905092915050565b60006118778261114f565b611881818561185b565b935061189181856020860161116b565b61189a8161119e565b840191505092915050565b6118ae8161120a565b82525050565b600060a0830160008301516118cc600086018261184c565b50602083015184820360208601526118e4828261186c565b915050604083015184820360408601526118fe828261186c565b915050606083015161191360608601826118a5565b50608083015161192660808601826118a5565b508091505092915050565b6000602082019050818103600083015261194b81846118b4565b905092915050565b600061195e8261120a565b91506119698361120a565b9250817fffffffffffffffffffffffffffffffffffffffffffffffffffffffffffffffff04831182151516156119a2576119a16117c7565b5b828202905092915050565b7f4e487b7100000000000000000000000000000000000000000000000000000000600052601260045260246000fd5b60006119e78261120a565b91506119f28361120a565b925082611a0257611a016119ad565b5b828204905092915050565b7f4e487b7100000000000000000000000000000000000000000000000000000000600052603260045260246000fd5b6000606082019050611a516000830186611530565b611a5e6020830185611712565b611a6b6040830184611214565b949350505050565b6000611a7e8261120a565b91507fffffffffffffffffffffffffffffffffffffffffffffffffffffffffffffffff821415611ab157611ab06117c7565b5b60018201905091905056fea2646970667358221220ec5b5f777c16b636a0c58cc4e714393a1ed77f71a02043ea7dc2876cfa9abf9264736f6c634300080a0033a26469706673582212208a764eb5041a571ff9606dcf5bbc040cfbed7bba552233c3ad00204126e5690e64736f6c634300080a0033",
  "immutableReferences": {},
  "source": "pragma solidity >=0.7.0 <0.9.0;\r\n\r\nimport \"./CharityProject.sol\";\r\n\r\ncontract Charity {\r\n    mapping(address => address[]) public listCharity;\r\n    address public owner;\r\n\r\n    constructor() {\r\n        owner = msg.sender;\r\n    }\r\n\r\n    function addCharityProject(\r\n        string memory _name,\r\n        string memory _description,\r\n        uint256 _target\r\n    ) public returns (bool) {\r\n        CharityProject charity = new CharityProject(\r\n            _name,\r\n            _description,\r\n            _target,\r\n            msg.sender\r\n        );\r\n        listCharity[msg.sender].push(charity.getAddress());\r\n        return true;\r\n    }\r\n}\r\n",
  "sourcePath": "C:\\Users\\lexua\\Desktop\\charity-project\\contracts\\Charity.sol",
  "compiler": {
    "name": "solc",
    "version": "0.8.10+commit.fc410830.Emscripten.clang"
  },
  "schemaVersion": "3.4.3",
  "updatedAt": "2021-11-20T04:26:57.950Z",
  "networkType": "ethereum",
  "devdoc": {
    "kind": "dev",
    "methods": {},
    "version": 1
  },
  "userdoc": {
    "kind": "user",
    "methods": {},
    "version": 1
  }
}