{
  "contractName": "Project",
  "abi": [
    {
      "inputs": [
        {
          "internalType": "string",
          "name": "_name",
          "type": "string"
        },
        {
          "internalType": "string",
          "name": "_description",
          "type": "string"
        },
        {
          "internalType": "uint256",
          "name": "_target",
          "type": "uint256"
        },
        {
          "internalType": "address",
          "name": "_ownerAddess",
          "type": "address"
        }
      ],
      "stateMutability": "nonpayable",
      "type": "constructor"
    },
    {
      "anonymous": false,
      "inputs": [
        {
          "components": [
            {
              "internalType": "address",
              "name": "donatorAddress",
              "type": "address"
            },
            {
              "internalType": "string",
              "name": "name",
              "type": "string"
            },
            {
              "internalType": "string",
              "name": "message",
              "type": "string"
            },
            {
              "internalType": "uint256",
              "name": "amount",
              "type": "uint256"
            },
            {
              "internalType": "uint256",
              "name": "timestamp",
              "type": "uint256"
            }
          ],
          "indexed": false,
          "internalType": "struct Project.Donator",
          "name": "donator",
          "type": "tuple"
        }
      ],
      "name": "donateEvent",
      "type": "event"
    },
    {
      "anonymous": false,
      "inputs": [
        {
          "indexed": false,
          "internalType": "address",
          "name": "from",
          "type": "address"
        },
        {
          "indexed": false,
          "internalType": "address payable",
          "name": "to",
          "type": "address"
        },
        {
          "indexed": false,
          "internalType": "uint256",
          "name": "value",
          "type": "uint256"
        }
      ],
      "name": "tranferToBeneficiaryEvent",
      "type": "event"
    },
    {
      "inputs": [],
      "name": "amountRaised",
      "outputs": [
        {
          "internalType": "uint256",
          "name": "",
          "type": "uint256"
        }
      ],
      "stateMutability": "view",
      "type": "function"
    },
    {
      "inputs": [
        {
          "internalType": "uint256",
          "name": "",
          "type": "uint256"
        }
      ],
      "name": "beneficiaries",
      "outputs": [
        {
          "internalType": "address payable",
          "name": "beneficiaryAddress",
          "type": "address"
        },
        {
          "internalType": "string",
          "name": "name",
          "type": "string"
        },
        {
          "internalType": "string",
          "name": "description",
          "type": "string"
        }
      ],
      "stateMutability": "view",
      "type": "function"
    },
    {
      "inputs": [],
      "name": "description",
      "outputs": [
        {
          "internalType": "string",
          "name": "",
          "type": "string"
        }
      ],
      "stateMutability": "view",
      "type": "function"
    },
    {
      "inputs": [
        {
          "internalType": "uint256",
          "name": "",
          "type": "uint256"
        }
      ],
      "name": "donators",
      "outputs": [
        {
          "internalType": "address",
          "name": "donatorAddress",
          "type": "address"
        },
        {
          "internalType": "string",
          "name": "name",
          "type": "string"
        },
        {
          "internalType": "string",
          "name": "message",
          "type": "string"
        },
        {
          "internalType": "uint256",
          "name": "amount",
          "type": "uint256"
        },
        {
          "internalType": "uint256",
          "name": "timestamp",
          "type": "uint256"
        }
      ],
      "stateMutability": "view",
      "type": "function"
    },
    {
      "inputs": [
        {
          "internalType": "address",
          "name": "",
          "type": "address"
        },
        {
          "internalType": "uint256",
          "name": "",
          "type": "uint256"
        }
      ],
      "name": "myDonation",
      "outputs": [
        {
          "internalType": "address",
          "name": "donatorAddress",
          "type": "address"
        },
        {
          "internalType": "string",
          "name": "name",
          "type": "string"
        },
        {
          "internalType": "string",
          "name": "message",
          "type": "string"
        },
        {
          "internalType": "uint256",
          "name": "amount",
          "type": "uint256"
        },
        {
          "internalType": "uint256",
          "name": "timestamp",
          "type": "uint256"
        }
      ],
      "stateMutability": "view",
      "type": "function"
    },
    {
      "inputs": [],
      "name": "name",
      "outputs": [
        {
          "internalType": "string",
          "name": "",
          "type": "string"
        }
      ],
      "stateMutability": "view",
      "type": "function"
    },
    {
      "inputs": [],
      "name": "owner",
      "outputs": [
        {
          "internalType": "address",
          "name": "",
          "type": "address"
        }
      ],
      "stateMutability": "view",
      "type": "function"
    },
    {
      "inputs": [],
      "name": "state",
      "outputs": [
        {
          "internalType": "enum Project.charity_state",
          "name": "",
          "type": "uint8"
        }
      ],
      "stateMutability": "view",
      "type": "function"
    },
    {
      "inputs": [],
      "name": "target",
      "outputs": [
        {
          "internalType": "uint256",
          "name": "",
          "type": "uint256"
        }
      ],
      "stateMutability": "view",
      "type": "function"
    },
    {
      "inputs": [
        {
          "internalType": "uint256",
          "name": "",
          "type": "uint256"
        }
      ],
      "name": "transactionBeneficiaries",
      "outputs": [
        {
          "components": [
            {
              "internalType": "address payable",
              "name": "beneficiaryAddress",
              "type": "address"
            },
            {
              "internalType": "string",
              "name": "name",
              "type": "string"
            },
            {
              "internalType": "string",
              "name": "description",
              "type": "string"
            }
          ],
          "internalType": "struct Project.Beneficiary",
          "name": "beneficiary",
          "type": "tuple"
        },
        {
          "internalType": "uint256",
          "name": "amount",
          "type": "uint256"
        },
        {
          "internalType": "uint256",
          "name": "timestamp",
          "type": "uint256"
        }
      ],
      "stateMutability": "view",
      "type": "function"
    },
    {
      "inputs": [],
      "name": "startCharity",
      "outputs": [
        {
          "internalType": "bool",
          "name": "",
          "type": "bool"
        }
      ],
      "stateMutability": "nonpayable",
      "type": "function"
    },
    {
      "inputs": [
        {
          "components": [
            {
              "internalType": "address payable",
              "name": "beneficiaryAddress",
              "type": "address"
            },
            {
              "internalType": "string",
              "name": "name",
              "type": "string"
            },
            {
              "internalType": "string",
              "name": "description",
              "type": "string"
            }
          ],
          "internalType": "struct Project.Beneficiary[]",
          "name": "_beneficiaries",
          "type": "tuple[]"
        }
      ],
      "name": "addBeneficiary",
      "outputs": [
        {
          "internalType": "bool",
          "name": "",
          "type": "bool"
        }
      ],
      "stateMutability": "nonpayable",
      "type": "function"
    },
    {
      "inputs": [
        {
          "internalType": "string",
          "name": "_name",
          "type": "string"
        },
        {
          "internalType": "string",
          "name": "_message",
          "type": "string"
        }
      ],
      "name": "donate",
      "outputs": [
        {
          "internalType": "bool",
          "name": "",
          "type": "bool"
        }
      ],
      "stateMutability": "payable",
      "type": "function"
    },
    {
      "inputs": [],
      "name": "checkTarget",
      "outputs": [
        {
          "internalType": "bool",
          "name": "",
          "type": "bool"
        }
      ],
      "stateMutability": "view",
      "type": "function"
    },
    {
      "inputs": [],
      "name": "getBalance",
      "outputs": [
        {
          "internalType": "uint256",
          "name": "",
          "type": "uint256"
        }
      ],
      "stateMutability": "view",
      "type": "function"
    },
    {
      "inputs": [],
      "name": "getAddress",
      "outputs": [
        {
          "internalType": "address",
          "name": "",
          "type": "address"
        }
      ],
      "stateMutability": "view",
      "type": "function"
    },
    {
      "inputs": [],
      "name": "getAllDonator",
      "outputs": [
        {
          "components": [
            {
              "internalType": "address",
              "name": "donatorAddress",
              "type": "address"
            },
            {
              "internalType": "string",
              "name": "name",
              "type": "string"
            },
            {
              "internalType": "string",
              "name": "message",
              "type": "string"
            },
            {
              "internalType": "uint256",
              "name": "amount",
              "type": "uint256"
            },
            {
              "internalType": "uint256",
              "name": "timestamp",
              "type": "uint256"
            }
          ],
          "internalType": "struct Project.Donator[]",
          "name": "",
          "type": "tuple[]"
        }
      ],
      "stateMutability": "view",
      "type": "function"
    },
    {
      "inputs": [],
      "name": "getAllBeneficiary",
      "outputs": [
        {
          "components": [
            {
              "internalType": "address payable",
              "name": "beneficiaryAddress",
              "type": "address"
            },
            {
              "internalType": "string",
              "name": "name",
              "type": "string"
            },
            {
              "internalType": "string",
              "name": "description",
              "type": "string"
            }
          ],
          "internalType": "struct Project.Beneficiary[]",
          "name": "",
          "type": "tuple[]"
        }
      ],
      "stateMutability": "view",
      "type": "function"
    },
    {
      "inputs": [],
      "name": "getAllTransactionBeneficiary",
      "outputs": [
        {
          "components": [
            {
              "components": [
                {
                  "internalType": "address payable",
                  "name": "beneficiaryAddress",
                  "type": "address"
                },
                {
                  "internalType": "string",
                  "name": "name",
                  "type": "string"
                },
                {
                  "internalType": "string",
                  "name": "description",
                  "type": "string"
                }
              ],
              "internalType": "struct Project.Beneficiary",
              "name": "beneficiary",
              "type": "tuple"
            },
            {
              "internalType": "uint256",
              "name": "amount",
              "type": "uint256"
            },
            {
              "internalType": "uint256",
              "name": "timestamp",
              "type": "uint256"
            }
          ],
          "internalType": "struct Project.TransactionBeneficiary[]",
          "name": "",
          "type": "tuple[]"
        }
      ],
      "stateMutability": "view",
      "type": "function"
    }
  ],
  "bytecode": "0x60806040523480156200001157600080fd5b50604051620037403803806200374083398181016040528101906200003791906200041c565b600082116200007d576040517f08c379a000000000000000000000000000000000000000000000000000000000815260040162000074906200059f565b60405180910390fd5b8360009080519060200190620000959291906200012f565b508260019080519060200190620000ae9291906200012f565b5080600260006101000a81548173ffffffffffffffffffffffffffffffffffffffff021916908373ffffffffffffffffffffffffffffffffffffffff160217905550816003819055506000600960006101000a81548160ff0219169083600281111562000120576200011f620005c1565b5b02179055505050505062000655565b8280546200013d906200061f565b90600052602060002090601f016020900481019282620001615760008555620001ad565b82601f106200017c57805160ff1916838001178555620001ad565b82800160010185558215620001ad579182015b82811115620001ac5782518255916020019190600101906200018f565b5b509050620001bc9190620001c0565b5090565b5b80821115620001db576000816000905550600101620001c1565b5090565b6000604051905090565b600080fd5b600080fd5b600080fd5b600080fd5b6000601f19601f8301169050919050565b7f4e487b7100000000000000000000000000000000000000000000000000000000600052604160045260246000fd5b6200024882620001fd565b810181811067ffffffffffffffff821117156200026a57620002696200020e565b5b80604052505050565b60006200027f620001df565b90506200028d82826200023d565b919050565b600067ffffffffffffffff821115620002b057620002af6200020e565b5b620002bb82620001fd565b9050602081019050919050565b60005b83811015620002e8578082015181840152602081019050620002cb565b83811115620002f8576000848401525b50505050565b6000620003156200030f8462000292565b62000273565b905082815260208101848484011115620003345762000333620001f8565b5b62000341848285620002c8565b509392505050565b600082601f830112620003615762000360620001f3565b5b815162000373848260208601620002fe565b91505092915050565b6000819050919050565b62000391816200037c565b81146200039d57600080fd5b50565b600081519050620003b18162000386565b92915050565b600073ffffffffffffffffffffffffffffffffffffffff82169050919050565b6000620003e482620003b7565b9050919050565b620003f681620003d7565b81146200040257600080fd5b50565b6000815190506200041681620003eb565b92915050565b60008060008060808587031215620004395762000438620001e9565b5b600085015167ffffffffffffffff8111156200045a5762000459620001ee565b5b620004688782880162000349565b945050602085015167ffffffffffffffff8111156200048c576200048b620001ee565b5b6200049a8782880162000349565b9350506040620004ad87828801620003a0565b9250506060620004c08782880162000405565b91505092959194509250565b600082825260208201905092915050565b7f4d2545312542422541356325323074692543332541417525323063254531254260008201527f4225413761253230642545312542422542312532302543332541316e2532307060208201527f68254531254241254133692532306c2545312542422539426e2532306825433660408201527f2541316e25323030000000000000000000000000000000000000000000000000606082015250565b600062000587606883620004cc565b91506200059482620004dd565b608082019050919050565b60006020820190508181036000830152620005ba8162000578565b9050919050565b7f4e487b7100000000000000000000000000000000000000000000000000000000600052602160045260246000fd5b7f4e487b7100000000000000000000000000000000000000000000000000000000600052602260045260246000fd5b600060028204905060018216806200063857607f821691505b602082108114156200064f576200064e620005f0565b5b50919050565b6130db80620006656000396000f3fe6080604052600436106101145760003560e01c806373d81bb7116100a0578063a149277b11610064578063a149277b146103b4578063ac62f566146103df578063c19d93fb14610420578063d4b839921461044b578063efeb5e581461047657610114565b806373d81bb7146102dd5780637b3e5e7b146103085780637bad2c0d146103335780638da5cb5b1461035e578063a07354631461038957610114565b806338cc4831116100e757806338cc4831146101de578063481b5f6f14610209578063500424d71461024a57806356fd7dab146102875780637284e416146102b257610114565b806306fdde03146101195780630a24e8961461014457806312065fe0146101835780631653441c146101ae575b600080fd5b34801561012557600080fd5b5061012e6104b5565b60405161013b9190611e7b565b60405180910390f35b34801561015057600080fd5b5061016b60048036038101906101669190611ee7565b610543565b60405161017a93929190612005565b60405180910390f35b34801561018f57600080fd5b50610198610701565b6040516101a59190612043565b60405180910390f35b6101c860048036038101906101c39190612193565b610709565b6040516101d59190612226565b60405180910390f35b3480156101ea57600080fd5b506101f3610ac4565b6040516102009190612262565b60405180910390f35b34801561021557600080fd5b50610230600480360381019061022b91906122a9565b610acc565b6040516102419594939291906122e9565b60405180910390f35b34801561025657600080fd5b50610271600480360381019061026c9190612502565b610c4f565b60405161027e9190612226565b60405180910390f35b34801561029357600080fd5b5061029c610e49565b6040516102a991906126c3565b60405180910390f35b3480156102be57600080fd5b506102c7611050565b6040516102d49190611e7b565b60405180910390f35b3480156102e957600080fd5b506102f26110de565b6040516102ff9190612226565b60405180910390f35b34801561031457600080fd5b5061031d611101565b60405161032a9190612043565b60405180910390f35b34801561033f57600080fd5b50610348611107565b60405161035591906127a7565b60405180910390f35b34801561036a57600080fd5b506103736112e6565b6040516103809190612262565b60405180910390f35b34801561039557600080fd5b5061039e61130c565b6040516103ab9190612917565b60405180910390f35b3480156103c057600080fd5b506103c96114ff565b6040516103d69190612226565b60405180910390f35b3480156103eb57600080fd5b5061040660048036038101906104019190611ee7565b61164b565b6040516104179594939291906122e9565b60405180910390f35b34801561042c57600080fd5b506104356117c1565b60405161044291906129b0565b60405180910390f35b34801561045757600080fd5b506104606117d4565b60405161046d9190612043565b60405180910390f35b34801561048257600080fd5b5061049d60048036038101906104989190611ee7565b6117da565b6040516104ac939291906129da565b60405180910390f35b600080546104c290612a4e565b80601f01602080910402602001604051908101604052809291908181526020018280546104ee90612a4e565b801561053b5780601f106105105761010080835404028352916020019161053b565b820191906000526020600020905b81548152906001019060200180831161051e57829003601f168201915b505050505081565b6008818154811061055357600080fd5b9060005260206000209060050201600091509050806000016040518060600160405290816000820160009054906101000a900473ffffffffffffffffffffffffffffffffffffffff1673ffffffffffffffffffffffffffffffffffffffff1673ffffffffffffffffffffffffffffffffffffffff1681526020016001820180546105dc90612a4e565b80601f016020809104026020016040519081016040528092919081815260200182805461060890612a4e565b80156106555780601f1061062a57610100808354040283529160200191610655565b820191906000526020600020905b81548152906001019060200180831161063857829003601f168201915b5050505050815260200160028201805461066e90612a4e565b80601f016020809104026020016040519081016040528092919081815260200182805461069a90612a4e565b80156106e75780601f106106bc576101008083540402835291602001916106e7565b820191906000526020600020905b8154815290600101906020018083116106ca57829003601f168201915b505050505081525050908060030154908060040154905083565b600047905090565b60006001600281111561071f5761071e612939565b5b600960009054906101000a900460ff16600281111561074157610740612939565b5b14610781576040517f08c379a000000000000000000000000000000000000000000000000000000000815260040161077890612b64565b60405180910390fd5b600034116107c4576040517f08c379a00000000000000000000000000000000000000000000000000000000081526004016107bb90612c1c565b60405180910390fd5b343373ffffffffffffffffffffffffffffffffffffffff16311161081d576040517f08c379a000000000000000000000000000000000000000000000000000000000815260040161081490612cae565b60405180910390fd5b60006040518060a001604052803373ffffffffffffffffffffffffffffffffffffffff168152602001858152602001848152602001348152602001428152509050600560003373ffffffffffffffffffffffffffffffffffffffff1673ffffffffffffffffffffffffffffffffffffffff16815260200190815260200160002081908060018154018082558091505060019003906000526020600020906005020160009091909190915060008201518160000160006101000a81548173ffffffffffffffffffffffffffffffffffffffff021916908373ffffffffffffffffffffffffffffffffffffffff160217905550602082015181600101908051906020019061092a929190611d3f565b506040820151816002019080519060200190610947929190611d3f565b5060608201518160030155608082015181600401555050600681908060018154018082558091505060019003906000526020600020906005020160009091909190915060008201518160000160006101000a81548173ffffffffffffffffffffffffffffffffffffffff021916908373ffffffffffffffffffffffffffffffffffffffff16021790555060208201518160010190805190602001906109ed929190611d3f565b506040820151816002019080519060200190610a0a929190611d3f565b50606082015181600301556080820151816004015550503460046000828254610a339190612cfd565b925050819055507f24d83d68453fc3df073101ac515398dd4daeb23e45efb66c3ad49303c188968e81604051610a699190612dd0565b60405180910390a160011515610a7d6110de565b15151415610ab9576002600960006101000a81548160ff02191690836002811115610aab57610aaa612939565b5b0217905550610ab8611944565b5b600191505092915050565b600030905090565b60056020528160005260406000208181548110610ae857600080fd5b9060005260206000209060050201600091509150508060000160009054906101000a900473ffffffffffffffffffffffffffffffffffffffff1690806001018054610b3290612a4e565b80601f0160208091040260200160405190810160405280929190818152602001828054610b5e90612a4e565b8015610bab5780601f10610b8057610100808354040283529160200191610bab565b820191906000526020600020905b815481529060010190602001808311610b8e57829003601f168201915b505050505090806002018054610bc090612a4e565b80601f0160208091040260200160405190810160405280929190818152602001828054610bec90612a4e565b8015610c395780601f10610c0e57610100808354040283529160200191610c39565b820191906000526020600020905b815481529060010190602001808311610c1c57829003601f168201915b5050505050908060030154908060040154905085565b6000600260009054906101000a900473ffffffffffffffffffffffffffffffffffffffff1673ffffffffffffffffffffffffffffffffffffffff163373ffffffffffffffffffffffffffffffffffffffff1614610ce1576040517f08c379a0000000000000000000000000000000000000000000000000000000008152600401610cd890612e64565b60405180910390fd5b60006002811115610cf557610cf4612939565b5b600960009054906101000a900460ff166002811115610d1757610d16612939565b5b14610d57576040517f08c379a0000000000000000000000000000000000000000000000000000000008152600401610d4e90612f1c565b60405180910390fd5b60005b8251811015610e3f576007838281518110610d7857610d77612f3c565b5b6020026020010151908060018154018082558091505060019003906000526020600020906003020160009091909190915060008201518160000160006101000a81548173ffffffffffffffffffffffffffffffffffffffff021916908373ffffffffffffffffffffffffffffffffffffffff1602179055506020820151816001019080519060200190610e0c929190611d3f565b506040820151816002019080519060200190610e29929190611d3f565b5050508080610e3790612f6b565b915050610d5a565b5060019050919050565b606060006008805480602002602001604051908101604052809291908181526020016000905b828210156110435783829060005260206000209060050201604051806060016040529081600082016040518060600160405290816000820160009054906101000a900473ffffffffffffffffffffffffffffffffffffffff1673ffffffffffffffffffffffffffffffffffffffff1673ffffffffffffffffffffffffffffffffffffffff168152602001600182018054610f0890612a4e565b80601f0160208091040260200160405190810160405280929190818152602001828054610f3490612a4e565b8015610f815780601f10610f5657610100808354040283529160200191610f81565b820191906000526020600020905b815481529060010190602001808311610f6457829003601f168201915b50505050508152602001600282018054610f9a90612a4e565b80601f0160208091040260200160405190810160405280929190818152602001828054610fc690612a4e565b80156110135780601f10610fe857610100808354040283529160200191611013565b820191906000526020600020905b815481529060010190602001808311610ff657829003601f168201915b50505050508152505081526020016003820154815260200160048201548152505081526020019060010190610e6f565b5050505090508091505090565b6001805461105d90612a4e565b80601f016020809104026020016040519081016040528092919081815260200182805461108990612a4e565b80156110d65780601f106110ab576101008083540402835291602001916110d6565b820191906000526020600020905b8154815290600101906020018083116110b957829003601f168201915b505050505081565b60006003546110eb610701565b106110f957600190506110fe565b600090505b90565b60045481565b606060006007805480602002602001604051908101604052809291908181526020016000905b828210156112d957838290600052602060002090600302016040518060600160405290816000820160009054906101000a900473ffffffffffffffffffffffffffffffffffffffff1673ffffffffffffffffffffffffffffffffffffffff1673ffffffffffffffffffffffffffffffffffffffff1681526020016001820180546111b690612a4e565b80601f01602080910402602001604051908101604052809291908181526020018280546111e290612a4e565b801561122f5780601f106112045761010080835404028352916020019161122f565b820191906000526020600020905b81548152906001019060200180831161121257829003601f168201915b5050505050815260200160028201805461124890612a4e565b80601f016020809104026020016040519081016040528092919081815260200182805461127490612a4e565b80156112c15780601f10611296576101008083540402835291602001916112c1565b820191906000526020600020905b8154815290600101906020018083116112a457829003601f168201915b5050505050815250508152602001906001019061112d565b5050505090508091505090565b600260009054906101000a900473ffffffffffffffffffffffffffffffffffffffff1681565b606060006006805480602002602001604051908101604052809291908181526020016000905b828210156114f257838290600052602060002090600502016040518060a00160405290816000820160009054906101000a900473ffffffffffffffffffffffffffffffffffffffff1673ffffffffffffffffffffffffffffffffffffffff1673ffffffffffffffffffffffffffffffffffffffff1681526020016001820180546113bb90612a4e565b80601f01602080910402602001604051908101604052809291908181526020018280546113e790612a4e565b80156114345780601f1061140957610100808354040283529160200191611434565b820191906000526020600020905b81548152906001019060200180831161141757829003601f168201915b5050505050815260200160028201805461144d90612a4e565b80601f016020809104026020016040519081016040528092919081815260200182805461147990612a4e565b80156114c65780601f1061149b576101008083540402835291602001916114c6565b820191906000526020600020905b8154815290600101906020018083116114a957829003601f168201915b505050505081526020016003820154815260200160048201548152505081526020019060010190611332565b5050505090508091505090565b6000600260009054906101000a900473ffffffffffffffffffffffffffffffffffffffff1673ffffffffffffffffffffffffffffffffffffffff163373ffffffffffffffffffffffffffffffffffffffff1614611591576040517f08c379a000000000000000000000000000000000000000000000000000000000815260040161158890612e64565b60405180910390fd5b600060028111156115a5576115a4612939565b5b600960009054906101000a900460ff1660028111156115c7576115c6612939565b5b14611607576040517f08c379a00000000000000000000000000000000000000000000000000000000081526004016115fe90612f1c565b60405180910390fd5b60006007805490501161161957600080fd5b6001600960006101000a81548160ff0219169083600281111561163f5761163e612939565b5b02179055506001905090565b6006818154811061165b57600080fd5b90600052602060002090600502016000915090508060000160009054906101000a900473ffffffffffffffffffffffffffffffffffffffff16908060010180546116a490612a4e565b80601f01602080910402602001604051908101604052809291908181526020018280546116d090612a4e565b801561171d5780601f106116f25761010080835404028352916020019161171d565b820191906000526020600020905b81548152906001019060200180831161170057829003601f168201915b50505050509080600201805461173290612a4e565b80601f016020809104026020016040519081016040528092919081815260200182805461175e90612a4e565b80156117ab5780601f10611780576101008083540402835291602001916117ab565b820191906000526020600020905b81548152906001019060200180831161178e57829003601f168201915b5050505050908060030154908060040154905085565b600960009054906101000a900460ff1681565b60035481565b600781815481106117ea57600080fd5b90600052602060002090600302016000915090508060000160009054906101000a900473ffffffffffffffffffffffffffffffffffffffff169080600101805461183390612a4e565b80601f016020809104026020016040519081016040528092919081815260200182805461185f90612a4e565b80156118ac5780601f10611881576101008083540402835291602001916118ac565b820191906000526020600020905b81548152906001019060200180831161188f57829003601f168201915b5050505050908060020180546118c190612a4e565b80601f01602080910402602001604051908101604052809291908181526020018280546118ed90612a4e565b801561193a5780601f1061190f5761010080835404028352916020019161193a565b820191906000526020600020905b81548152906001019060200180831161191d57829003601f168201915b5050505050905083565b60006064605f476119559190612fb4565b61195f919061303d565b90506000600780549050905060008183611979919061303d565b905060005b82811015611d39576007818154811061199a57611999612f3c565b5b906000526020600020906003020160000160009054906101000a900473ffffffffffffffffffffffffffffffffffffffff1673ffffffffffffffffffffffffffffffffffffffff166108fc839081150290604051600060405180830381858888f19350505050158015611a11573d6000803e3d6000fd5b506000604051806060016040528060078481548110611a3357611a32612f3c565b5b90600052602060002090600302016040518060600160405290816000820160009054906101000a900473ffffffffffffffffffffffffffffffffffffffff1673ffffffffffffffffffffffffffffffffffffffff1673ffffffffffffffffffffffffffffffffffffffff168152602001600182018054611ab290612a4e565b80601f0160208091040260200160405190810160405280929190818152602001828054611ade90612a4e565b8015611b2b5780601f10611b0057610100808354040283529160200191611b2b565b820191906000526020600020905b815481529060010190602001808311611b0e57829003601f168201915b50505050508152602001600282018054611b4490612a4e565b80601f0160208091040260200160405190810160405280929190818152602001828054611b7090612a4e565b8015611bbd5780601f10611b9257610100808354040283529160200191611bbd565b820191906000526020600020905b815481529060010190602001808311611ba057829003601f168201915b5050505050815250508152602001848152602001428152509050600881908060018154018082558091505060019003906000526020600020906005020160009091909190915060008201518160000160008201518160000160006101000a81548173ffffffffffffffffffffffffffffffffffffffff021916908373ffffffffffffffffffffffffffffffffffffffff1602179055506020820151816001019080519060200190611c6f929190611d3f565b506040820151816002019080519060200190611c8c929190611d3f565b505050602082015181600301556040820151816004015550507ffaffca71c161e93019c1527f21a0fb1523759be5092113930dab383f15a3a3593060078481548110611cdb57611cda612f3c565b5b906000526020600020906003020160000160009054906101000a900473ffffffffffffffffffffffffffffffffffffffff1685604051611d1d9392919061306e565b60405180910390a1508080611d3190612f6b565b91505061197e565b50505050565b828054611d4b90612a4e565b90600052602060002090601f016020900481019282611d6d5760008555611db4565b82601f10611d8657805160ff1916838001178555611db4565b82800160010185558215611db4579182015b82811115611db3578251825591602001919060010190611d98565b5b509050611dc19190611dc5565b5090565b5b80821115611dde576000816000905550600101611dc6565b5090565b600081519050919050565b600082825260208201905092915050565b60005b83811015611e1c578082015181840152602081019050611e01565b83811115611e2b576000848401525b50505050565b6000601f19601f8301169050919050565b6000611e4d82611de2565b611e578185611ded565b9350611e67818560208601611dfe565b611e7081611e31565b840191505092915050565b60006020820190508181036000830152611e958184611e42565b905092915050565b6000604051905090565b600080fd5b600080fd5b6000819050919050565b611ec481611eb1565b8114611ecf57600080fd5b50565b600081359050611ee181611ebb565b92915050565b600060208284031215611efd57611efc611ea7565b5b6000611f0b84828501611ed2565b91505092915050565b600073ffffffffffffffffffffffffffffffffffffffff82169050919050565b6000611f3f82611f14565b9050919050565b611f4f81611f34565b82525050565b600082825260208201905092915050565b6000611f7182611de2565b611f7b8185611f55565b9350611f8b818560208601611dfe565b611f9481611e31565b840191505092915050565b6000606083016000830151611fb76000860182611f46565b5060208301518482036020860152611fcf8282611f66565b91505060408301518482036040860152611fe98282611f66565b9150508091505092915050565b611fff81611eb1565b82525050565b6000606082019050818103600083015261201f8186611f9f565b905061202e6020830185611ff6565b61203b6040830184611ff6565b949350505050565b60006020820190506120586000830184611ff6565b92915050565b600080fd5b600080fd5b7f4e487b7100000000000000000000000000000000000000000000000000000000600052604160045260246000fd5b6120a082611e31565b810181811067ffffffffffffffff821117156120bf576120be612068565b5b80604052505050565b60006120d2611e9d565b90506120de8282612097565b919050565b600067ffffffffffffffff8211156120fe576120fd612068565b5b61210782611e31565b9050602081019050919050565b82818337600083830152505050565b6000612136612131846120e3565b6120c8565b90508281526020810184848401111561215257612151612063565b5b61215d848285612114565b509392505050565b600082601f83011261217a5761217961205e565b5b813561218a848260208601612123565b91505092915050565b600080604083850312156121aa576121a9611ea7565b5b600083013567ffffffffffffffff8111156121c8576121c7611eac565b5b6121d485828601612165565b925050602083013567ffffffffffffffff8111156121f5576121f4611eac565b5b61220185828601612165565b9150509250929050565b60008115159050919050565b6122208161220b565b82525050565b600060208201905061223b6000830184612217565b92915050565b600061224c82611f14565b9050919050565b61225c81612241565b82525050565b60006020820190506122776000830184612253565b92915050565b61228681612241565b811461229157600080fd5b50565b6000813590506122a38161227d565b92915050565b600080604083850312156122c0576122bf611ea7565b5b60006122ce85828601612294565b92505060206122df85828601611ed2565b9150509250929050565b600060a0820190506122fe6000830188612253565b81810360208301526123108187611e42565b905081810360408301526123248186611e42565b90506123336060830185611ff6565b6123406080830184611ff6565b9695505050505050565b600067ffffffffffffffff82111561236557612364612068565b5b602082029050602081019050919050565b600080fd5b600080fd5b600080fd5b61238e81611f34565b811461239957600080fd5b50565b6000813590506123ab81612385565b92915050565b6000606082840312156123c7576123c661237b565b5b6123d160606120c8565b905060006123e18482850161239c565b600083015250602082013567ffffffffffffffff81111561240557612404612380565b5b61241184828501612165565b602083015250604082013567ffffffffffffffff81111561243557612434612380565b5b61244184828501612165565b60408301525092915050565b600061246061245b8461234a565b6120c8565b9050808382526020820190506020840283018581111561248357612482612376565b5b835b818110156124ca57803567ffffffffffffffff8111156124a8576124a761205e565b5b8086016124b589826123b1565b85526020850194505050602081019050612485565b5050509392505050565b600082601f8301126124e9576124e861205e565b5b81356124f984826020860161244d565b91505092915050565b60006020828403121561251857612517611ea7565b5b600082013567ffffffffffffffff81111561253657612535611eac565b5b612542848285016124d4565b91505092915050565b600081519050919050565b600082825260208201905092915050565b6000819050602082019050919050565b600060608301600083015161258f6000860182611f46565b50602083015184820360208601526125a78282611f66565b915050604083015184820360408601526125c18282611f66565b9150508091505092915050565b6125d781611eb1565b82525050565b600060608301600083015184820360008601526125fa8282612577565b915050602083015161260f60208601826125ce565b50604083015161262260408601826125ce565b508091505092915050565b600061263983836125dd565b905092915050565b6000602082019050919050565b60006126598261254b565b6126638185612556565b93508360208202850161267585612567565b8060005b858110156126b15784840389528151612692858261262d565b945061269d83612641565b925060208a01995050600181019050612679565b50829750879550505050505092915050565b600060208201905081810360008301526126dd818461264e565b905092915050565b600081519050919050565b600082825260208201905092915050565b6000819050602082019050919050565b600061271d8383612577565b905092915050565b6000602082019050919050565b600061273d826126e5565b61274781856126f0565b93508360208202850161275985612701565b8060005b8581101561279557848403895281516127768582612711565b945061278183612725565b925060208a0199505060018101905061275d565b50829750879550505050505092915050565b600060208201905081810360008301526127c18184612732565b905092915050565b600081519050919050565b600082825260208201905092915050565b6000819050602082019050919050565b6127fe81612241565b82525050565b600060a08301600083015161281c60008601826127f5565b50602083015184820360208601526128348282611f66565b9150506040830151848203604086015261284e8282611f66565b915050606083015161286360608601826125ce565b50608083015161287660808601826125ce565b508091505092915050565b600061288d8383612804565b905092915050565b6000602082019050919050565b60006128ad826127c9565b6128b781856127d4565b9350836020820285016128c9856127e5565b8060005b8581101561290557848403895281516128e68582612881565b94506128f183612895565b925060208a019950506001810190506128cd565b50829750879550505050505092915050565b6000602082019050818103600083015261293181846128a2565b905092915050565b7f4e487b7100000000000000000000000000000000000000000000000000000000600052602160045260246000fd5b6003811061297957612978612939565b5b50565b600081905061298a82612968565b919050565b600061299a8261297c565b9050919050565b6129aa8161298f565b82525050565b60006020820190506129c560008301846129a1565b92915050565b6129d481611f34565b82525050565b60006060820190506129ef60008301866129cb565b8181036020830152612a018185611e42565b90508181036040830152612a158184611e42565b9050949350505050565b7f4e487b7100000000000000000000000000000000000000000000000000000000600052602260045260246000fd5b60006002820490506001821680612a6657607f821691505b60208210811415612a7a57612a79612a1f565b5b50919050565b7f442545312542422542312532302543332541316e2532306e254333254130792560008201527f323063682543362542306125323062254531254241254146742532302543342560208201527f393125453125424125413775253230686f25453125424125423763253230254360408201527f342539312543332541332532306b25453125424125424674253230746825433360608201527f2542416300000000000000000000000000000000000000000000000000000000608082015250565b6000612b4e608483611ded565b9150612b5982612a80565b60a082019050919050565b60006020820190508181036000830152612b7d81612b41565b9050919050565b7f5325453125424225393125323074692545312542422538316e2532307175792560008201527f43332541416e253230672543332542337025323070682545312542412541336960208201527f2532306c2545312542422539426e253230682543362541316e25323030000000604082015250565b6000612c06605d83611ded565b9150612c1182612b84565b606082019050919050565b60006020820190508181036000830152612c3581612bf9565b9050919050565b7f53254531254242253931253230642543362542302532306b682543332542346e60008201527f6725323025433425393125453125424225413700000000000000000000000000602082015250565b6000612c98603383611ded565b9150612ca382612c3c565b604082019050919050565b60006020820190508181036000830152612cc781612c8b565b9050919050565b7f4e487b7100000000000000000000000000000000000000000000000000000000600052601160045260246000fd5b6000612d0882611eb1565b9150612d1383611eb1565b9250827fffffffffffffffffffffffffffffffffffffffffffffffffffffffffffffffff03821115612d4857612d47612cce565b5b828201905092915050565b600060a083016000830151612d6b60008601826127f5565b5060208301518482036020860152612d838282611f66565b91505060408301518482036040860152612d9d8282611f66565b9150506060830151612db260608601826125ce565b506080830151612dc560808601826125ce565b508091505092915050565b60006020820190508181036000830152612dea8184612d53565b905092915050565b7f4b682543332542346e672532306325433325423325323071757925453125424260008201527f2538316e25323074682545312542422542316325323074686900000000000000602082015250565b6000612e4e603983611ded565b9150612e5982612df2565b604082019050919050565b60006020820190508181036000830152612e7d81612e41565b9050919050565b7f442545312542422542312532302543332541316e2532306e254333254130792560008201527f3230254334253931254333254133253230686f2545312542412541317425323060208201527f2543342539312545312542422539396e67000000000000000000000000000000604082015250565b6000612f06605183611ded565b9150612f1182612e84565b606082019050919050565b60006020820190508181036000830152612f3581612ef9565b9050919050565b7f4e487b7100000000000000000000000000000000000000000000000000000000600052603260045260246000fd5b6000612f7682611eb1565b91507fffffffffffffffffffffffffffffffffffffffffffffffffffffffffffffffff821415612fa957612fa8612cce565b5b600182019050919050565b6000612fbf82611eb1565b9150612fca83611eb1565b9250817fffffffffffffffffffffffffffffffffffffffffffffffffffffffffffffffff048311821515161561300357613002612cce565b5b828202905092915050565b7f4e487b7100000000000000000000000000000000000000000000000000000000600052601260045260246000fd5b600061304882611eb1565b915061305383611eb1565b9250826130635761306261300e565b5b828204905092915050565b60006060820190506130836000830186612253565b61309060208301856129cb565b61309d6040830184611ff6565b94935050505056fea2646970667358221220ac69f9837e78abc9e402727c400726131b836ddb1d015b4add4f58ba75531b6664736f6c634300080a0033",
  "immutableReferences": {},
  "source": "pragma solidity >=0.7.0 <0.9.0;\r\n\r\ncontract Project {\r\n    struct Donator {\r\n        address donatorAddress;\r\n        string name;\r\n        string message;\r\n        uint256 amount;\r\n        uint256 timestamp;\r\n    }\r\n\r\n    struct Beneficiary {\r\n        address payable beneficiaryAddress;\r\n        string name;\r\n        string description;\r\n    }\r\n\r\n    struct TransactionBeneficiary {\r\n        Beneficiary beneficiary;\r\n        uint256 amount;\r\n        uint256 timestamp;\r\n    }\r\n\r\n    enum charity_state {\r\n        SETUP,\r\n        START,\r\n        FINISH\r\n    }\r\n\r\n    string public name;\r\n    string public description;\r\n    address public owner;\r\n    uint256 public target;\r\n    uint256 public amountRaised;\r\n    mapping(address => Donator[]) public myDonation;\r\n    Donator[] public donators;\r\n    Beneficiary[] public beneficiaries;\r\n    TransactionBeneficiary[] public transactionBeneficiaries;\r\n    charity_state public state;\r\n\r\n    constructor(\r\n        string memory _name,\r\n        string memory _description,\r\n        uint256 _target,\r\n        address _ownerAddess\r\n    ) {\r\n        require(\r\n            _target > 0,\r\n            \"M%E1%BB%A5c%20ti%C3%AAu%20c%E1%BB%A7a%20d%E1%BB%B1%20%C3%A1n%20ph%E1%BA%A3i%20l%E1%BB%9Bn%20h%C6%A1n%200\"\r\n        );\r\n        name = _name;\r\n        description = _description;\r\n        owner = _ownerAddess;\r\n        target = _target;\r\n        state = charity_state.SETUP;\r\n    }\r\n\r\n    //event\r\n    event donateEvent(Donator donator);\r\n    event tranferToBeneficiaryEvent(\r\n        address from,\r\n        address payable to,\r\n        uint256 value\r\n    );\r\n\r\n    //manager methods\r\n    function startCharity() public returns (bool) {\r\n        require(\r\n            msg.sender == owner,\r\n            \"Kh%C3%B4ng%20c%C3%B3%20quy%E1%BB%81n%20th%E1%BB%B1c%20thi\"\r\n        );\r\n        require(\r\n            state == charity_state.SETUP,\r\n            \"D%E1%BB%B1%20%C3%A1n%20n%C3%A0y%20%C4%91%C3%A3%20ho%E1%BA%A1t%20%C4%91%E1%BB%99ng\"\r\n        );\r\n        require(beneficiaries.length > 0);\r\n\r\n        state = charity_state.START;\r\n        return true;\r\n    }\r\n\r\n    function addBeneficiary(Beneficiary[] memory _beneficiaries)\r\n        public\r\n        returns (bool)\r\n    {\r\n        require(\r\n            msg.sender == owner,\r\n            \"Kh%C3%B4ng%20c%C3%B3%20quy%E1%BB%81n%20th%E1%BB%B1c%20thi\"\r\n        );\r\n        require(\r\n            state == charity_state.SETUP,\r\n            \"D%E1%BB%B1%20%C3%A1n%20n%C3%A0y%20%C4%91%C3%A3%20ho%E1%BA%A1t%20%C4%91%E1%BB%99ng\"\r\n        );\r\n\r\n        for (uint256 i = 0; i < _beneficiaries.length; i++) {\r\n            beneficiaries.push(_beneficiaries[i]);\r\n        }\r\n        return true;\r\n    }\r\n\r\n    //public methods\r\n    function donate(string memory _name, string memory _message)\r\n        public\r\n        payable\r\n        returns (bool)\r\n    {\r\n        require(\r\n            state == charity_state.START,\r\n            \"D%E1%BB%B1%20%C3%A1n%20n%C3%A0y%20ch%C6%B0a%20b%E1%BA%AFt%20%C4%91%E1%BA%A7u%20ho%E1%BA%B7c%20%C4%91%C3%A3%20k%E1%BA%BFt%20th%C3%BAc\"\r\n        );\r\n        require(\r\n            msg.value > 0,\r\n            \"S%E1%BB%91%20ti%E1%BB%81n%20quy%C3%AAn%20g%C3%B3p%20ph%E1%BA%A3i%20l%E1%BB%9Bn%20h%C6%A1n%200\"\r\n        );\r\n        require(\r\n            msg.sender.balance > msg.value,\r\n            \"S%E1%BB%91%20d%C6%B0%20kh%C3%B4ng%20%C4%91%E1%BB%A7\"\r\n        );\r\n\r\n        Donator memory donator = Donator(\r\n            msg.sender,\r\n            _name,\r\n            _message,\r\n            msg.value,\r\n            block.timestamp\r\n        );\r\n\r\n        myDonation[msg.sender].push(donator);\r\n        donators.push(donator);\r\n\r\n        amountRaised += msg.value;\r\n        emit donateEvent(donator);\r\n\r\n        if (checkTarget() == true) {\r\n            state = charity_state.FINISH;\r\n            tranferToBeneficiary();\r\n        }\r\n\r\n        return true;\r\n    }\r\n\r\n    function checkTarget() public view returns (bool) {\r\n        if (getBalance() >= target) return true;\r\n        return false;\r\n    }\r\n\r\n    function getBalance() public view returns (uint256) {\r\n        return address(this).balance;\r\n    }\r\n\r\n    function getAddress() public view returns (address) {\r\n        return address(this);\r\n    }\r\n\r\n    function getAllDonator() public view returns (Donator[] memory) {\r\n        Donator[] memory d = donators;\r\n        return d;\r\n    }\r\n\r\n    function getAllBeneficiary() public view returns (Beneficiary[] memory) {\r\n        Beneficiary[] memory b = beneficiaries;\r\n        return b;\r\n    }\r\n\r\n    function getAllTransactionBeneficiary()\r\n        public\r\n        view\r\n        returns (TransactionBeneficiary[] memory)\r\n    {\r\n        TransactionBeneficiary[] memory t = transactionBeneficiaries;\r\n        return t;\r\n    }\r\n\r\n    // private methods\r\n    function tranferToBeneficiary() private {\r\n        //the system retains 5% as a transaction fee\r\n        uint256 amount = (address(this).balance * 95) / 100;\r\n        uint256 totalBeneficiary = beneficiaries.length;\r\n        uint256 amountPerPerson = amount / totalBeneficiary;\r\n        for (uint256 i = 0; i < totalBeneficiary; i++) {\r\n            beneficiaries[i].beneficiaryAddress.transfer(amountPerPerson);\r\n\r\n            //save transaction\r\n            TransactionBeneficiary memory transaction = TransactionBeneficiary(\r\n                beneficiaries[i],\r\n                amountPerPerson,\r\n                block.timestamp\r\n            );\r\n            transactionBeneficiaries.push(transaction);\r\n\r\n            emit tranferToBeneficiaryEvent(\r\n                address(this),\r\n                beneficiaries[i].beneficiaryAddress,\r\n                amountPerPerson\r\n            );\r\n        }\r\n    }\r\n}\r\n",
  "sourcePath": "C:\\Users\\lexua\\Desktop\\charity-project\\contracts\\Project.sol",
  "compiler": {
    "name": "solc",
    "version": "0.8.10+commit.fc410830.Emscripten.clang"
  },
  "schemaVersion": "3.4.3",
  "updatedAt": "2021-11-22T20:47:43.218Z",
  "devdoc": {
    "kind": "dev",
    "methods": {},
    "version": 1
  },
  "userdoc": {
    "kind": "user",
    "methods": {},
    "version": 1
  }
}