{
  "contractName": "Charity",
  "abi": [
    {
      "inputs": [],
      "stateMutability": "nonpayable",
      "type": "constructor"
    },
    {
      "anonymous": false,
      "inputs": [
        {
          "indexed": false,
          "internalType": "address",
          "name": "owner",
          "type": "address"
        },
        {
          "indexed": false,
          "internalType": "address",
          "name": "projectAddress",
          "type": "address"
        },
        {
          "indexed": false,
          "internalType": "string",
          "name": "name",
          "type": "string"
        },
        {
          "indexed": false,
          "internalType": "uint256",
          "name": "target",
          "type": "uint256"
        }
      ],
      "name": "addCharityProjectEvent",
      "type": "event"
    },
    {
      "inputs": [
        {
          "internalType": "uint256",
          "name": "",
          "type": "uint256"
        }
      ],
      "name": "listProject",
      "outputs": [
        {
          "internalType": "address",
          "name": "",
          "type": "address"
        }
      ],
      "stateMutability": "view",
      "type": "function",
      "constant": true
    },
    {
      "inputs": [],
      "name": "owner",
      "outputs": [
        {
          "internalType": "address",
          "name": "",
          "type": "address"
        }
      ],
      "stateMutability": "view",
      "type": "function",
      "constant": true
    },
    {
      "inputs": [
        {
          "internalType": "string",
          "name": "_name",
          "type": "string"
        },
        {
          "internalType": "uint256",
          "name": "_target",
          "type": "uint256"
        }
      ],
      "name": "addCharityProject",
      "outputs": [
        {
          "internalType": "bool",
          "name": "",
          "type": "bool"
        }
      ],
      "stateMutability": "nonpayable",
      "type": "function"
    },
    {
      "inputs": [
        {
          "internalType": "address",
          "name": "_address",
          "type": "address"
        }
      ],
      "name": "deleteCharityProject",
      "outputs": [],
      "stateMutability": "nonpayable",
      "type": "function"
    },
    {
      "inputs": [
        {
          "internalType": "address",
          "name": "_address",
          "type": "address"
        }
      ],
      "name": "findProject",
      "outputs": [
        {
          "internalType": "uint256",
          "name": "",
          "type": "uint256"
        }
      ],
      "stateMutability": "view",
      "type": "function",
      "constant": true
    },
    {
      "inputs": [
        {
          "internalType": "uint256",
          "name": "i",
          "type": "uint256"
        }
      ],
      "name": "removeProjectByIndex",
      "outputs": [],
      "stateMutability": "nonpayable",
      "type": "function"
    },
    {
      "inputs": [],
      "name": "getAllProject",
      "outputs": [
        {
          "internalType": "address[]",
          "name": "",
          "type": "address[]"
        }
      ],
      "stateMutability": "view",
      "type": "function",
      "constant": true
    },
    {
      "inputs": [
        {
          "internalType": "address",
          "name": "_address",
          "type": "address"
        }
      ],
      "name": "getProjectInfo",
      "outputs": [
        {
          "components": [
            {
              "internalType": "address",
              "name": "projectAddress",
              "type": "address"
            },
            {
              "internalType": "string",
              "name": "name",
              "type": "string"
            },
            {
              "internalType": "uint256",
              "name": "target",
              "type": "uint256"
            },
            {
              "internalType": "uint256",
              "name": "balance",
              "type": "uint256"
            },
            {
              "internalType": "uint256",
              "name": "allocated",
              "type": "uint256"
            },
            {
              "internalType": "uint256",
              "name": "numberOfDonator",
              "type": "uint256"
            },
            {
              "internalType": "uint256",
              "name": "numberOfBeneficy",
              "type": "uint256"
            },
            {
              "components": [
                {
                  "internalType": "address payable",
                  "name": "beneficiaryAddress",
                  "type": "address"
                },
                {
                  "internalType": "string",
                  "name": "name",
                  "type": "string"
                },
                {
                  "internalType": "string",
                  "name": "description",
                  "type": "string"
                }
              ],
              "internalType": "struct Project.Beneficiary[]",
              "name": "beneficiaries",
              "type": "tuple[]"
            },
            {
              "internalType": "enum Project.charity_state",
              "name": "state",
              "type": "uint8"
            }
          ],
          "internalType": "struct Project.ProjectInfo",
          "name": "",
          "type": "tuple"
        }
      ],
      "stateMutability": "view",
      "type": "function",
      "constant": true
    },
    {
      "inputs": [],
      "name": "getOwner",
      "outputs": [
        {
          "internalType": "address",
          "name": "",
          "type": "address"
        }
      ],
      "stateMutability": "view",
      "type": "function",
      "constant": true
    },
    {
      "inputs": [],
      "name": "getInfoCharity",
      "outputs": [
        {
          "internalType": "uint256",
          "name": "totalDonate",
          "type": "uint256"
        },
        {
          "internalType": "uint256",
          "name": "totalDonator",
          "type": "uint256"
        },
        {
          "internalType": "uint256",
          "name": "totalBeneficy",
          "type": "uint256"
        }
      ],
      "stateMutability": "view",
      "type": "function",
      "constant": true
    }
  ],
  "bytecode": "0x608060405234801561001057600080fd5b5033600160006101000a81548173ffffffffffffffffffffffffffffffffffffffff021916908373ffffffffffffffffffffffffffffffffffffffff160217905550615572806100616000396000f3fe60806040523480156200001157600080fd5b5060043610620000ac5760003560e01c80638da5cb5b116200006f5780638da5cb5b1462000195578063a604bdae14620001b7578063c1e7dcd214620001ed578063d70ed4981462000211578063ffb21371146200023357620000ac565b806347ee45b914620000b15780635235483e14620000e7578063710b15f7146200011d57806385a20c80146200013d578063893d20e81462000173575b600080fd5b620000cf6004803603810190620000c9919062000a7f565b62000253565b604051620000de919062000e31565b60405180910390f35b620001056004803603810190620000ff919062000a7f565b620002e1565b60405162000114919062000e66565b60405180910390f35b6200013b600480360381019062000135919062000a7f565b6200037d565b005b6200015b600480360381019062000155919062000eb4565b6200042e565b6040516200016a919062000ef7565b60405180910390f35b6200017d6200046e565b6040516200018c919062000ef7565b60405180910390f35b6200019f62000498565b604051620001ae919062000ef7565b60405180910390f35b620001d56004803603810190620001cf919062001065565b620004be565b604051620001e49190620010e8565b60405180910390f35b620001f7620006b2565b604051620002089392919062001105565b60405180910390f35b6200021b620007f0565b6040516200022a9190620011ff565b60405180910390f35b6200025160048036038101906200024b919062000eb4565b62000880565b005b6200025d62000981565b60008290508073ffffffffffffffffffffffffffffffffffffffff166367c897fe6040518163ffffffff1660e01b8152600401600060405180830381865afa158015620002ae573d6000803e3d6000fd5b505050506040513d6000823e3d601f19601f82011682018060405250810190620002d9919062001610565b915050919050565b600080600090505b8273ffffffffffffffffffffffffffffffffffffffff166000828154811062000317576200031662001661565b5b9060005260206000200160009054906101000a900473ffffffffffffffffffffffffffffffffffffffff1673ffffffffffffffffffffffffffffffffffffffff1614620003745780806200036b90620016bf565b915050620002e9565b80915050919050565b600160009054906101000a900473ffffffffffffffffffffffffffffffffffffffff1673ffffffffffffffffffffffffffffffffffffffff163373ffffffffffffffffffffffffffffffffffffffff161462000410576040517f08c379a000000000000000000000000000000000000000000000000000000000815260040162000407906200176e565b60405180910390fd5b60006200041d82620002e1565b90506200042a8162000880565b5050565b600081815481106200043f57600080fd5b906000526020600020016000915054906101000a900473ffffffffffffffffffffffffffffffffffffffff1681565b6000600160009054906101000a900473ffffffffffffffffffffffffffffffffffffffff16905090565b600160009054906101000a900473ffffffffffffffffffffffffffffffffffffffff1681565b6000600160009054906101000a900473ffffffffffffffffffffffffffffffffffffffff1673ffffffffffffffffffffffffffffffffffffffff163373ffffffffffffffffffffffffffffffffffffffff161462000553576040517f08c379a00000000000000000000000000000000000000000000000000000000081526004016200054a906200176e565b60405180910390fd5b60008383336040516200056690620009f8565b6200057493929190620017d1565b604051809103906000f08015801562000591573d6000803e3d6000fd5b5090506000819080600181540180825580915050600190039060005260206000200160009091909190916101000a81548173ffffffffffffffffffffffffffffffffffffffff021916908373ffffffffffffffffffffffffffffffffffffffff1602179055507f85ba33523ad4e48c04ae48d4a2a3ec940b0c7fa66ec23e7fe760408fbacd03b7338273ffffffffffffffffffffffffffffffffffffffff166338cc48316040518163ffffffff1660e01b8152600401602060405180830381865afa15801562000665573d6000803e3d6000fd5b505050506040513d601f19601f820116820180604052508101906200068b919062001815565b86866040516200069f949392919062001847565b60405180910390a1600191505092915050565b600080600080600090505b600080549050811015620007ea576000808281548110620006e357620006e262001661565b5b9060005260206000200160009054906101000a900473ffffffffffffffffffffffffffffffffffffffff1673ffffffffffffffffffffffffffffffffffffffff166367c897fe6040518163ffffffff1660e01b8152600401600060405180830381865afa15801562000759573d6000803e3d6000fd5b505050506040513d6000823e3d601f19601f8201168201806040525081019062000784919062001610565b9050806080015181606001516200079c91906200189b565b85620007a991906200189b565b94508060a0015184620007bd91906200189b565b93508060c0015183620007d191906200189b565b9250508080620007e190620016bf565b915050620006bd565b50909192565b606060008054806020026020016040519081016040528092919081815260200182805480156200087657602002820191906000526020600020905b8160009054906101000a900473ffffffffffffffffffffffffffffffffffffffff1673ffffffffffffffffffffffffffffffffffffffff16815260200190600101908083116200082b575b5050505050905090565b60006001600080549050620008969190620018f8565b81548110620008aa57620008a962001661565b5b9060005260206000200160009054906101000a900473ffffffffffffffffffffffffffffffffffffffff1660008281548110620008ec57620008eb62001661565b5b9060005260206000200160006101000a81548173ffffffffffffffffffffffffffffffffffffffff021916908373ffffffffffffffffffffffffffffffffffffffff160217905550600080548062000949576200094862001933565b5b6001900381819060005260206000200160006101000a81549073ffffffffffffffffffffffffffffffffffffffff0219169055905550565b604051806101200160405280600073ffffffffffffffffffffffffffffffffffffffff1681526020016060815260200160008152602001600081526020016000815260200160008152602001600081526020016060815260200160006002811115620009f257620009f162000cd3565b5b81525090565b613bda806200196383390190565b6000604051905090565b600080fd5b600080fd5b600073ffffffffffffffffffffffffffffffffffffffff82169050919050565b600062000a478262000a1a565b9050919050565b62000a598162000a3a565b811462000a6557600080fd5b50565b60008135905062000a798162000a4e565b92915050565b60006020828403121562000a985762000a9762000a10565b5b600062000aa88482850162000a68565b91505092915050565b62000abc8162000a3a565b82525050565b600081519050919050565b600082825260208201905092915050565b60005b8381101562000afe57808201518184015260208101905062000ae1565b8381111562000b0e576000848401525b50505050565b6000601f19601f8301169050919050565b600062000b328262000ac2565b62000b3e818562000acd565b935062000b5081856020860162000ade565b62000b5b8162000b14565b840191505092915050565b6000819050919050565b62000b7b8162000b66565b82525050565b600081519050919050565b600082825260208201905092915050565b6000819050602082019050919050565b600062000bba8262000a1a565b9050919050565b62000bcc8162000bad565b82525050565b600060608301600083015162000bec600086018262000bc1565b506020830151848203602086015262000c06828262000b25565b9150506040830151848203604086015262000c22828262000b25565b9150508091505092915050565b600062000c3d838362000bd2565b905092915050565b6000602082019050919050565b600062000c5f8262000b81565b62000c6b818562000b8c565b93508360208202850162000c7f8562000b9d565b8060005b8581101562000cc1578484038952815162000c9f858262000c2f565b945062000cac8362000c45565b925060208a0199505060018101905062000c83565b50829750879550505050505092915050565b7f4e487b7100000000000000000000000000000000000000000000000000000000600052602160045260246000fd5b6003811062000d165762000d1562000cd3565b5b50565b600081905062000d298262000d02565b919050565b600062000d3b8262000d19565b9050919050565b62000d4d8162000d2e565b82525050565b60006101208301600083015162000d6e600086018262000ab1565b506020830151848203602086015262000d88828262000b25565b915050604083015162000d9f604086018262000b70565b50606083015162000db4606086018262000b70565b50608083015162000dc9608086018262000b70565b5060a083015162000dde60a086018262000b70565b5060c083015162000df360c086018262000b70565b5060e083015184820360e086015262000e0d828262000c52565b91505061010083015162000e2661010086018262000d42565b508091505092915050565b6000602082019050818103600083015262000e4d818462000d53565b905092915050565b62000e608162000b66565b82525050565b600060208201905062000e7d600083018462000e55565b92915050565b62000e8e8162000b66565b811462000e9a57600080fd5b50565b60008135905062000eae8162000e83565b92915050565b60006020828403121562000ecd5762000ecc62000a10565b5b600062000edd8482850162000e9d565b91505092915050565b62000ef18162000a3a565b82525050565b600060208201905062000f0e600083018462000ee6565b92915050565b600080fd5b600080fd5b7f4e487b7100000000000000000000000000000000000000000000000000000000600052604160045260246000fd5b62000f588262000b14565b810181811067ffffffffffffffff8211171562000f7a5762000f7962000f1e565b5b80604052505050565b600062000f8f62000a06565b905062000f9d828262000f4d565b919050565b600067ffffffffffffffff82111562000fc05762000fbf62000f1e565b5b62000fcb8262000b14565b9050602081019050919050565b82818337600083830152505050565b600062000ffe62000ff88462000fa2565b62000f83565b9050828152602081018484840111156200101d576200101c62000f19565b5b6200102a84828562000fd8565b509392505050565b600082601f8301126200104a576200104962000f14565b5b81356200105c84826020860162000fe7565b91505092915050565b600080604083850312156200107f576200107e62000a10565b5b600083013567ffffffffffffffff811115620010a0576200109f62000a15565b5b620010ae8582860162001032565b9250506020620010c18582860162000e9d565b9150509250929050565b60008115159050919050565b620010e281620010cb565b82525050565b6000602082019050620010ff6000830184620010d7565b92915050565b60006060820190506200111c600083018662000e55565b6200112b602083018562000e55565b6200113a604083018462000e55565b949350505050565b600081519050919050565b600082825260208201905092915050565b6000819050602082019050919050565b60006200117c838362000ab1565b60208301905092915050565b6000602082019050919050565b6000620011a28262001142565b620011ae81856200114d565b9350620011bb836200115e565b8060005b83811015620011f2578151620011d688826200116e565b9750620011e38362001188565b925050600181019050620011bf565b5085935050505092915050565b600060208201905081810360008301526200121b818462001195565b905092915050565b600080fd5b600080fd5b6000815190506200123e8162000a4e565b92915050565b60006200125b620012558462000fa2565b62000f83565b9050828152602081018484840111156200127a576200127962000f19565b5b6200128784828562000ade565b509392505050565b600082601f830112620012a757620012a662000f14565b5b8151620012b984826020860162001244565b91505092915050565b600081519050620012d38162000e83565b92915050565b600067ffffffffffffffff821115620012f757620012f662000f1e565b5b602082029050602081019050919050565b600080fd5b620013188162000bad565b81146200132457600080fd5b50565b60008151905062001338816200130d565b92915050565b60006060828403121562001357576200135662001223565b5b62001363606062000f83565b90506000620013758482850162001327565b600083015250602082015167ffffffffffffffff8111156200139c576200139b62001228565b5b620013aa848285016200128f565b602083015250604082015167ffffffffffffffff811115620013d157620013d062001228565b5b620013df848285016200128f565b60408301525092915050565b600062001402620013fc84620012d9565b62000f83565b9050808382526020820190506020840283018581111562001428576200142762001308565b5b835b818110156200147657805167ffffffffffffffff81111562001451576200145062000f14565b5b8086016200146089826200133e565b855260208501945050506020810190506200142a565b5050509392505050565b600082601f83011262001498576200149762000f14565b5b8151620014aa848260208601620013eb565b91505092915050565b60038110620014c157600080fd5b50565b600081519050620014d581620014b3565b92915050565b60006101208284031215620014f557620014f462001223565b5b6200150261012062000f83565b9050600062001514848285016200122d565b600083015250602082015167ffffffffffffffff8111156200153b576200153a62001228565b5b62001549848285016200128f565b60208301525060406200155f84828501620012c2565b60408301525060606200157584828501620012c2565b60608301525060806200158b84828501620012c2565b60808301525060a0620015a184828501620012c2565b60a08301525060c0620015b784828501620012c2565b60c08301525060e082015167ffffffffffffffff811115620015de57620015dd62001228565b5b620015ec8482850162001480565b60e0830152506101006200160384828501620014c4565b6101008301525092915050565b60006020828403121562001629576200162862000a10565b5b600082015167ffffffffffffffff8111156200164a576200164962000a15565b5b6200165884828501620014db565b91505092915050565b7f4e487b7100000000000000000000000000000000000000000000000000000000600052603260045260246000fd5b7f4e487b7100000000000000000000000000000000000000000000000000000000600052601160045260246000fd5b6000620016cc8262000b66565b91507fffffffffffffffffffffffffffffffffffffffffffffffffffffffffffffffff82141562001702576200170162001690565b5b600182019050919050565b600082825260208201905092915050565b7f4e6f205065726d697373696f6e00000000000000000000000000000000000000600082015250565b600062001756600d836200170d565b915062001763826200171e565b602082019050919050565b60006020820190508181036000830152620017898162001747565b9050919050565b60006200179d8262000ac2565b620017a981856200170d565b9350620017bb81856020860162000ade565b620017c68162000b14565b840191505092915050565b60006060820190508181036000830152620017ed818662001790565b9050620017fe602083018562000e55565b6200180d604083018462000ee6565b949350505050565b6000602082840312156200182e576200182d62000a10565b5b60006200183e848285016200122d565b91505092915050565b60006080820190506200185e600083018762000ee6565b6200186d602083018662000ee6565b818103604083015262001881818562001790565b905062001892606083018462000e55565b95945050505050565b6000620018a88262000b66565b9150620018b58362000b66565b9250827fffffffffffffffffffffffffffffffffffffffffffffffffffffffffffffffff03821115620018ed57620018ec62001690565b5b828201905092915050565b6000620019058262000b66565b9150620019128362000b66565b92508282101562001928576200192762001690565b5b828203905092915050565b7f4e487b7100000000000000000000000000000000000000000000000000000000600052603160045260246000fdfe60806040523480156200001157600080fd5b5060405162003bda38038062003bda833981810160405281019062000037919062000402565b600082116200007d576040517f08c379a00000000000000000000000000000000000000000000000000000000081526004016200007490620004de565b60405180910390fd5b82600090805190602001906200009592919062000115565b5080600160006101000a81548173ffffffffffffffffffffffffffffffffffffffff021916908373ffffffffffffffffffffffffffffffffffffffff160217905550816002819055506000600a60006101000a81548160ff0219169083600281111562000107576200010662000500565b5b021790555050505062000594565b82805462000123906200055e565b90600052602060002090601f01602090048101928262000147576000855562000193565b82601f106200016257805160ff191683800117855562000193565b8280016001018555821562000193579182015b828111156200019257825182559160200191906001019062000175565b5b509050620001a29190620001a6565b5090565b5b80821115620001c1576000816000905550600101620001a7565b5090565b6000604051905090565b600080fd5b600080fd5b600080fd5b600080fd5b6000601f19601f8301169050919050565b7f4e487b7100000000000000000000000000000000000000000000000000000000600052604160045260246000fd5b6200022e82620001e3565b810181811067ffffffffffffffff8211171562000250576200024f620001f4565b5b80604052505050565b600062000265620001c5565b905062000273828262000223565b919050565b600067ffffffffffffffff821115620002965762000295620001f4565b5b620002a182620001e3565b9050602081019050919050565b60005b83811015620002ce578082015181840152602081019050620002b1565b83811115620002de576000848401525b50505050565b6000620002fb620002f58462000278565b62000259565b9050828152602081018484840111156200031a5762000319620001de565b5b62000327848285620002ae565b509392505050565b600082601f830112620003475762000346620001d9565b5b815162000359848260208601620002e4565b91505092915050565b6000819050919050565b620003778162000362565b81146200038357600080fd5b50565b60008151905062000397816200036c565b92915050565b600073ffffffffffffffffffffffffffffffffffffffff82169050919050565b6000620003ca826200039d565b9050919050565b620003dc81620003bd565b8114620003e857600080fd5b50565b600081519050620003fc81620003d1565b92915050565b6000806000606084860312156200041e576200041d620001cf565b5b600084015167ffffffffffffffff8111156200043f576200043e620001d4565b5b6200044d868287016200032f565b9350506020620004608682870162000386565b92505060406200047386828701620003eb565b9150509250925092565b600082825260208201905092915050565b7f546172676574206d7573742062652067726561746572207468616e207a65726f600082015250565b6000620004c66020836200047d565b9150620004d3826200048e565b602082019050919050565b60006020820190508181036000830152620004f981620004b7565b9050919050565b7f4e487b7100000000000000000000000000000000000000000000000000000000600052602160045260246000fd5b7f4e487b7100000000000000000000000000000000000000000000000000000000600052602260045260246000fd5b600060028204905060018216806200057757607f821691505b602082108114156200058e576200058d6200052f565b5b50919050565b61363680620005a46000396000f3fe6080604052600436106101355760003560e01c806373d81bb7116100ab578063ac62f5661161006f578063ac62f5661461042b578063b304b2e11461046c578063c19d93fb14610497578063d4b83992146104c2578063efeb5e58146104ed578063fba9d55e1461052c57610135565b806373d81bb71461035457806378e979251461037f5780637bad2c0d146103aa5780638da5cb5b146103d5578063a07354631461040057610135565b806338cc4831116100fd57806338cc48311461022a578063481b5f6f146102555780634b084d491461029657806356fd7dab146102c15780635aa89076146102ec57806367c897fe1461032957610135565b806306fdde031461013a5780630a24e8961461016557806312065fe0146101a45780631653441c146101cf5780633197cbb6146101ff575b600080fd5b34801561014657600080fd5b5061014f610569565b60405161015c9190612394565b60405180910390f35b34801561017157600080fd5b5061018c60048036038101906101879190612400565b6105f7565b60405161019b9392919061251e565b60405180910390f35b3480156101b057600080fd5b506101b96107b5565b6040516101c6919061255c565b60405180910390f35b6101e960048036038101906101e491906126ac565b6107bd565b6040516101f6919061273f565b60405180910390f35b34801561020b57600080fd5b50610214610b7b565b604051610221919061255c565b60405180910390f35b34801561023657600080fd5b5061023f610b81565b60405161024c919061277b565b60405180910390f35b34801561026157600080fd5b5061027c600480360381019061027791906127c2565b610b89565b60405161028d959493929190612802565b60405180910390f35b3480156102a257600080fd5b506102ab610d0c565b6040516102b8919061273f565b60405180910390f35b3480156102cd57600080fd5b506102d6610d35565b6040516102e391906129db565b60405180910390f35b3480156102f857600080fd5b50610313600480360381019061030e91906129fd565b610f3c565b6040516103209190612b78565b60405180910390f35b34801561033557600080fd5b5061033e61116e565b60405161034b9190612d9f565b60405180910390f35b34801561036057600080fd5b50610369611469565b604051610376919061273f565b60405180910390f35b34801561038b57600080fd5b50610394611497565b6040516103a1919061255c565b60405180910390f35b3480156103b657600080fd5b506103bf61149d565b6040516103cc9190612e47565b60405180910390f35b3480156103e157600080fd5b506103ea61167c565b6040516103f7919061277b565b60405180910390f35b34801561040c57600080fd5b506104156116a2565b6040516104229190612b78565b60405180910390f35b34801561043757600080fd5b50610452600480360381019061044d9190612400565b611895565b604051610463959493929190612802565b60405180910390f35b34801561047857600080fd5b50610481611a0b565b60405161048e919061255c565b60405180910390f35b3480156104a357600080fd5b506104ac611a11565b6040516104b99190612e78565b60405180910390f35b3480156104ce57600080fd5b506104d7611a24565b6040516104e4919061255c565b60405180910390f35b3480156104f957600080fd5b50610514600480360381019061050f9190612400565b611a2a565b60405161052393929190612ea2565b60405180910390f35b34801561053857600080fd5b50610553600480360381019061054e919061309f565b611b94565b604051610560919061273f565b60405180910390f35b6000805461057690613159565b80601f01602080910402602001604051908101604052809291908181526020018280546105a290613159565b80156105ef5780601f106105c4576101008083540402835291602001916105ef565b820191906000526020600020905b8154815290600101906020018083116105d257829003601f168201915b505050505081565b6009818154811061060757600080fd5b9060005260206000209060050201600091509050806000016040518060600160405290816000820160009054906101000a900473ffffffffffffffffffffffffffffffffffffffff1673ffffffffffffffffffffffffffffffffffffffff1673ffffffffffffffffffffffffffffffffffffffff16815260200160018201805461069090613159565b80601f01602080910402602001604051908101604052809291908181526020018280546106bc90613159565b80156107095780601f106106de57610100808354040283529160200191610709565b820191906000526020600020905b8154815290600101906020018083116106ec57829003601f168201915b5050505050815260200160028201805461072290613159565b80601f016020809104026020016040519081016040528092919081815260200182805461074e90613159565b801561079b5780601f106107705761010080835404028352916020019161079b565b820191906000526020600020905b81548152906001019060200180831161077e57829003601f168201915b505050505081525050908060030154908060040154905083565b600047905090565b6000600160028111156107d3576107d2612c5c565b5b600a60009054906101000a900460ff1660028111156107f5576107f4612c5c565b5b14610835576040517f08c379a000000000000000000000000000000000000000000000000000000000815260040161082c906131fd565b60405180910390fd5b60003411610878576040517f08c379a000000000000000000000000000000000000000000000000000000000815260040161086f90613269565b60405180910390fd5b343373ffffffffffffffffffffffffffffffffffffffff1631116108d1576040517f08c379a00000000000000000000000000000000000000000000000000000000081526004016108c8906132d5565b60405180910390fd5b60006040518060a001604052803373ffffffffffffffffffffffffffffffffffffffff168152602001858152602001848152602001348152602001428152509050600660003373ffffffffffffffffffffffffffffffffffffffff1673ffffffffffffffffffffffffffffffffffffffff16815260200190815260200160002081908060018154018082558091505060019003906000526020600020906005020160009091909190915060008201518160000160006101000a81548173ffffffffffffffffffffffffffffffffffffffff021916908373ffffffffffffffffffffffffffffffffffffffff16021790555060208201518160010190805190602001906109de9291906121e4565b5060408201518160020190805190602001906109fb9291906121e4565b5060608201518160030155608082015181600401555050600781908060018154018082558091505060019003906000526020600020906005020160009091909190915060008201518160000160006101000a81548173ffffffffffffffffffffffffffffffffffffffff021916908373ffffffffffffffffffffffffffffffffffffffff1602179055506020820151816001019080519060200190610aa19291906121e4565b506040820151816002019080519060200190610abe9291906121e4565b50606082015181600301556080820151816004015550507f24d83d68453fc3df073101ac515398dd4daeb23e45efb66c3ad49303c188968e81604051610b049190613372565b60405180910390a160011515610b18611469565b15151415610b705760011515610b2c610d0c565b15151415610b67576002600a60006101000a81548160ff02191690836002811115610b5a57610b59612c5c565b5b0217905550426005819055505b610b6f611dee565b5b600191505092915050565b60055481565b600030905090565b60066020528160005260406000208181548110610ba557600080fd5b9060005260206000209060050201600091509150508060000160009054906101000a900473ffffffffffffffffffffffffffffffffffffffff1690806001018054610bef90613159565b80601f0160208091040260200160405190810160405280929190818152602001828054610c1b90613159565b8015610c685780601f10610c3d57610100808354040283529160200191610c68565b820191906000526020600020905b815481529060010190602001808311610c4b57829003601f168201915b505050505090806002018054610c7d90613159565b80601f0160208091040260200160405190810160405280929190818152602001828054610ca990613159565b8015610cf65780601f10610ccb57610100808354040283529160200191610cf6565b820191906000526020600020905b815481529060010190602001808311610cd957829003601f168201915b5050505050908060030154908060040154905085565b600060025460035447610d1f91906133c3565b10610d2d5760019050610d32565b600090505b90565b606060006009805480602002602001604051908101604052809291908181526020016000905b82821015610f2f5783829060005260206000209060050201604051806060016040529081600082016040518060600160405290816000820160009054906101000a900473ffffffffffffffffffffffffffffffffffffffff1673ffffffffffffffffffffffffffffffffffffffff1673ffffffffffffffffffffffffffffffffffffffff168152602001600182018054610df490613159565b80601f0160208091040260200160405190810160405280929190818152602001828054610e2090613159565b8015610e6d5780601f10610e4257610100808354040283529160200191610e6d565b820191906000526020600020905b815481529060010190602001808311610e5057829003601f168201915b50505050508152602001600282018054610e8690613159565b80601f0160208091040260200160405190810160405280929190818152602001828054610eb290613159565b8015610eff5780601f10610ed457610100808354040283529160200191610eff565b820191906000526020600020905b815481529060010190602001808311610ee257829003601f168201915b50505050508152505081526020016003820154815260200160048201548152505081526020019060010190610d5b565b5050505090508091505090565b60606000600660008473ffffffffffffffffffffffffffffffffffffffff1673ffffffffffffffffffffffffffffffffffffffff168152602001908152602001600020805480602002602001604051908101604052809291908181526020016000905b8282101561115f57838290600052602060002090600502016040518060a00160405290816000820160009054906101000a900473ffffffffffffffffffffffffffffffffffffffff1673ffffffffffffffffffffffffffffffffffffffff1673ffffffffffffffffffffffffffffffffffffffff16815260200160018201805461102890613159565b80601f016020809104026020016040519081016040528092919081815260200182805461105490613159565b80156110a15780601f10611076576101008083540402835291602001916110a1565b820191906000526020600020905b81548152906001019060200180831161108457829003601f168201915b505050505081526020016002820180546110ba90613159565b80601f01602080910402602001604051908101604052809291908181526020018280546110e690613159565b80156111335780601f1061110857610100808354040283529160200191611133565b820191906000526020600020905b81548152906001019060200180831161111657829003601f168201915b505050505081526020016003820154815260200160048201548152505081526020019060010190610f9f565b50505050905080915050919050565b61117661226a565b60405180610120016040528061118a610b81565b73ffffffffffffffffffffffffffffffffffffffff168152602001600080546111b290613159565b80601f01602080910402602001604051908101604052809291908181526020018280546111de90613159565b801561122b5780601f106112005761010080835404028352916020019161122b565b820191906000526020600020905b81548152906001019060200180831161120e57829003601f168201915b5050505050815260200160025481526020016112456107b5565b81526020016003548152602001600780549050815260200160088054905081526020016008805480602002602001604051908101604052809291908181526020016000905b8282101561143657838290600052602060002090600302016040518060600160405290816000820160009054906101000a900473ffffffffffffffffffffffffffffffffffffffff1673ffffffffffffffffffffffffffffffffffffffff1673ffffffffffffffffffffffffffffffffffffffff16815260200160018201805461131390613159565b80601f016020809104026020016040519081016040528092919081815260200182805461133f90613159565b801561138c5780601f106113615761010080835404028352916020019161138c565b820191906000526020600020905b81548152906001019060200180831161136f57829003601f168201915b505050505081526020016002820180546113a590613159565b80601f01602080910402602001604051908101604052809291908181526020018280546113d190613159565b801561141e5780601f106113f35761010080835404028352916020019161141e565b820191906000526020600020905b81548152906001019060200180831161140157829003601f168201915b5050505050815250508152602001906001019061128a565b505050508152602001600a60009054906101000a900460ff16600281111561146157611460612c5c565b5b815250905090565b6000600280546114799190613448565b6114816107b5565b1061148f5760019050611494565b600090505b90565b60045481565b606060006008805480602002602001604051908101604052809291908181526020016000905b8282101561166f57838290600052602060002090600302016040518060600160405290816000820160009054906101000a900473ffffffffffffffffffffffffffffffffffffffff1673ffffffffffffffffffffffffffffffffffffffff1673ffffffffffffffffffffffffffffffffffffffff16815260200160018201805461154c90613159565b80601f016020809104026020016040519081016040528092919081815260200182805461157890613159565b80156115c55780601f1061159a576101008083540402835291602001916115c5565b820191906000526020600020905b8154815290600101906020018083116115a857829003601f168201915b505050505081526020016002820180546115de90613159565b80601f016020809104026020016040519081016040528092919081815260200182805461160a90613159565b80156116575780601f1061162c57610100808354040283529160200191611657565b820191906000526020600020905b81548152906001019060200180831161163a57829003601f168201915b505050505081525050815260200190600101906114c3565b5050505090508091505090565b600160009054906101000a900473ffffffffffffffffffffffffffffffffffffffff1681565b606060006007805480602002602001604051908101604052809291908181526020016000905b8282101561188857838290600052602060002090600502016040518060a00160405290816000820160009054906101000a900473ffffffffffffffffffffffffffffffffffffffff1673ffffffffffffffffffffffffffffffffffffffff1673ffffffffffffffffffffffffffffffffffffffff16815260200160018201805461175190613159565b80601f016020809104026020016040519081016040528092919081815260200182805461177d90613159565b80156117ca5780601f1061179f576101008083540402835291602001916117ca565b820191906000526020600020905b8154815290600101906020018083116117ad57829003601f168201915b505050505081526020016002820180546117e390613159565b80601f016020809104026020016040519081016040528092919081815260200182805461180f90613159565b801561185c5780601f106118315761010080835404028352916020019161185c565b820191906000526020600020905b81548152906001019060200180831161183f57829003601f168201915b5050505050815260200160038201548152602001600482015481525050815260200190600101906116c8565b5050505090508091505090565b600781815481106118a557600080fd5b90600052602060002090600502016000915090508060000160009054906101000a900473ffffffffffffffffffffffffffffffffffffffff16908060010180546118ee90613159565b80601f016020809104026020016040519081016040528092919081815260200182805461191a90613159565b80156119675780601f1061193c57610100808354040283529160200191611967565b820191906000526020600020905b81548152906001019060200180831161194a57829003601f168201915b50505050509080600201805461197c90613159565b80601f01602080910402602001604051908101604052809291908181526020018280546119a890613159565b80156119f55780601f106119ca576101008083540402835291602001916119f5565b820191906000526020600020905b8154815290600101906020018083116119d857829003601f168201915b5050505050908060030154908060040154905085565b60035481565b600a60009054906101000a900460ff1681565b60025481565b60088181548110611a3a57600080fd5b90600052602060002090600302016000915090508060000160009054906101000a900473ffffffffffffffffffffffffffffffffffffffff1690806001018054611a8390613159565b80601f0160208091040260200160405190810160405280929190818152602001828054611aaf90613159565b8015611afc5780601f10611ad157610100808354040283529160200191611afc565b820191906000526020600020905b815481529060010190602001808311611adf57829003601f168201915b505050505090806002018054611b1190613159565b80601f0160208091040260200160405190810160405280929190818152602001828054611b3d90613159565b8015611b8a5780601f10611b5f57610100808354040283529160200191611b8a565b820191906000526020600020905b815481529060010190602001808311611b6d57829003601f168201915b5050505050905083565b6000600160009054906101000a900473ffffffffffffffffffffffffffffffffffffffff1673ffffffffffffffffffffffffffffffffffffffff163373ffffffffffffffffffffffffffffffffffffffff1614611c26576040517f08c379a0000000000000000000000000000000000000000000000000000000008152600401611c1d906134c5565b60405180910390fd5b60006002811115611c3a57611c39612c5c565b5b600a60009054906101000a900460ff166002811115611c5c57611c5b612c5c565b5b14611c9c576040517f08c379a0000000000000000000000000000000000000000000000000000000008152600401611c9390613531565b60405180910390fd5b6000825111611caa57600080fd5b60005b8251811015611d92576008838281518110611ccb57611cca613551565b5b6020026020010151908060018154018082558091505060019003906000526020600020906003020160009091909190915060008201518160000160006101000a81548173ffffffffffffffffffffffffffffffffffffffff021916908373ffffffffffffffffffffffffffffffffffffffff1602179055506020820151816001019080519060200190611d5f9291906121e4565b506040820151816002019080519060200190611d7c9291906121e4565b5050508080611d8a90613580565b915050611cad565b508360009080519060200190611da99291906121e4565b50826002819055506001600a60006101000a81548160ff02191690836002811115611dd757611dd6612c5c565b5b021790555042600481905550600190509392505050565b4760036000828254611e0091906133c3565b925050819055506000600880549050905060008147611e1f9190613448565b905060005b828110156121df5760088181548110611e4057611e3f613551565b5b906000526020600020906003020160000160009054906101000a900473ffffffffffffffffffffffffffffffffffffffff1673ffffffffffffffffffffffffffffffffffffffff166108fc839081150290604051600060405180830381858888f19350505050158015611eb7573d6000803e3d6000fd5b506000604051806060016040528060088481548110611ed957611ed8613551565b5b90600052602060002090600302016040518060600160405290816000820160009054906101000a900473ffffffffffffffffffffffffffffffffffffffff1673ffffffffffffffffffffffffffffffffffffffff1673ffffffffffffffffffffffffffffffffffffffff168152602001600182018054611f5890613159565b80601f0160208091040260200160405190810160405280929190818152602001828054611f8490613159565b8015611fd15780601f10611fa657610100808354040283529160200191611fd1565b820191906000526020600020905b815481529060010190602001808311611fb457829003601f168201915b50505050508152602001600282018054611fea90613159565b80601f016020809104026020016040519081016040528092919081815260200182805461201690613159565b80156120635780601f1061203857610100808354040283529160200191612063565b820191906000526020600020905b81548152906001019060200180831161204657829003601f168201915b5050505050815250508152602001848152602001428152509050600981908060018154018082558091505060019003906000526020600020906005020160009091909190915060008201518160000160008201518160000160006101000a81548173ffffffffffffffffffffffffffffffffffffffff021916908373ffffffffffffffffffffffffffffffffffffffff16021790555060208201518160010190805190602001906121159291906121e4565b5060408201518160020190805190602001906121329291906121e4565b505050602082015181600301556040820151816004015550507ffaffca71c161e93019c1527f21a0fb1523759be5092113930dab383f15a3a359306008848154811061218157612180613551565b5b906000526020600020906003020160000160009054906101000a900473ffffffffffffffffffffffffffffffffffffffff16856040516121c3939291906135c9565b60405180910390a15080806121d790613580565b915050611e24565b505050565b8280546121f090613159565b90600052602060002090601f0160209004810192826122125760008555612259565b82601f1061222b57805160ff1916838001178555612259565b82800160010185558215612259579182015b8281111561225857825182559160200191906001019061223d565b5b50905061226691906122de565b5090565b604051806101200160405280600073ffffffffffffffffffffffffffffffffffffffff16815260200160608152602001600081526020016000815260200160008152602001600081526020016000815260200160608152602001600060028111156122d8576122d7612c5c565b5b81525090565b5b808211156122f75760008160009055506001016122df565b5090565b600081519050919050565b600082825260208201905092915050565b60005b8381101561233557808201518184015260208101905061231a565b83811115612344576000848401525b50505050565b6000601f19601f8301169050919050565b6000612366826122fb565b6123708185612306565b9350612380818560208601612317565b6123898161234a565b840191505092915050565b600060208201905081810360008301526123ae818461235b565b905092915050565b6000604051905090565b600080fd5b600080fd5b6000819050919050565b6123dd816123ca565b81146123e857600080fd5b50565b6000813590506123fa816123d4565b92915050565b600060208284031215612416576124156123c0565b5b6000612424848285016123eb565b91505092915050565b600073ffffffffffffffffffffffffffffffffffffffff82169050919050565b60006124588261242d565b9050919050565b6124688161244d565b82525050565b600082825260208201905092915050565b600061248a826122fb565b612494818561246e565b93506124a4818560208601612317565b6124ad8161234a565b840191505092915050565b60006060830160008301516124d0600086018261245f565b50602083015184820360208601526124e8828261247f565b91505060408301518482036040860152612502828261247f565b9150508091505092915050565b612518816123ca565b82525050565b6000606082019050818103600083015261253881866124b8565b9050612547602083018561250f565b612554604083018461250f565b949350505050565b6000602082019050612571600083018461250f565b92915050565b600080fd5b600080fd5b7f4e487b7100000000000000000000000000000000000000000000000000000000600052604160045260246000fd5b6125b98261234a565b810181811067ffffffffffffffff821117156125d8576125d7612581565b5b80604052505050565b60006125eb6123b6565b90506125f782826125b0565b919050565b600067ffffffffffffffff82111561261757612616612581565b5b6126208261234a565b9050602081019050919050565b82818337600083830152505050565b600061264f61264a846125fc565b6125e1565b90508281526020810184848401111561266b5761266a61257c565b5b61267684828561262d565b509392505050565b600082601f83011261269357612692612577565b5b81356126a384826020860161263c565b91505092915050565b600080604083850312156126c3576126c26123c0565b5b600083013567ffffffffffffffff8111156126e1576126e06123c5565b5b6126ed8582860161267e565b925050602083013567ffffffffffffffff81111561270e5761270d6123c5565b5b61271a8582860161267e565b9150509250929050565b60008115159050919050565b61273981612724565b82525050565b60006020820190506127546000830184612730565b92915050565b60006127658261242d565b9050919050565b6127758161275a565b82525050565b6000602082019050612790600083018461276c565b92915050565b61279f8161275a565b81146127aa57600080fd5b50565b6000813590506127bc81612796565b92915050565b600080604083850312156127d9576127d86123c0565b5b60006127e7858286016127ad565b92505060206127f8858286016123eb565b9150509250929050565b600060a082019050612817600083018861276c565b8181036020830152612829818761235b565b9050818103604083015261283d818661235b565b905061284c606083018561250f565b612859608083018461250f565b9695505050505050565b600081519050919050565b600082825260208201905092915050565b6000819050602082019050919050565b60006060830160008301516128a7600086018261245f565b50602083015184820360208601526128bf828261247f565b915050604083015184820360408601526128d9828261247f565b9150508091505092915050565b6128ef816123ca565b82525050565b60006060830160008301518482036000860152612912828261288f565b915050602083015161292760208601826128e6565b50604083015161293a60408601826128e6565b508091505092915050565b600061295183836128f5565b905092915050565b6000602082019050919050565b600061297182612863565b61297b818561286e565b93508360208202850161298d8561287f565b8060005b858110156129c957848403895281516129aa8582612945565b94506129b583612959565b925060208a01995050600181019050612991565b50829750879550505050505092915050565b600060208201905081810360008301526129f58184612966565b905092915050565b600060208284031215612a1357612a126123c0565b5b6000612a21848285016127ad565b91505092915050565b600081519050919050565b600082825260208201905092915050565b6000819050602082019050919050565b612a5f8161275a565b82525050565b600060a083016000830151612a7d6000860182612a56565b5060208301518482036020860152612a95828261247f565b91505060408301518482036040860152612aaf828261247f565b9150506060830151612ac460608601826128e6565b506080830151612ad760808601826128e6565b508091505092915050565b6000612aee8383612a65565b905092915050565b6000602082019050919050565b6000612b0e82612a2a565b612b188185612a35565b935083602082028501612b2a85612a46565b8060005b85811015612b665784840389528151612b478582612ae2565b9450612b5283612af6565b925060208a01995050600181019050612b2e565b50829750879550505050505092915050565b60006020820190508181036000830152612b928184612b03565b905092915050565b600081519050919050565b600082825260208201905092915050565b6000819050602082019050919050565b6000612bd2838361288f565b905092915050565b6000602082019050919050565b6000612bf282612b9a565b612bfc8185612ba5565b935083602082028501612c0e85612bb6565b8060005b85811015612c4a5784840389528151612c2b8582612bc6565b9450612c3683612bda565b925060208a01995050600181019050612c12565b50829750879550505050505092915050565b7f4e487b7100000000000000000000000000000000000000000000000000000000600052602160045260246000fd5b60038110612c9c57612c9b612c5c565b5b50565b6000819050612cad82612c8b565b919050565b6000612cbd82612c9f565b9050919050565b612ccd81612cb2565b82525050565b600061012083016000830151612cec6000860182612a56565b5060208301518482036020860152612d04828261247f565b9150506040830151612d1960408601826128e6565b506060830151612d2c60608601826128e6565b506080830151612d3f60808601826128e6565b5060a0830151612d5260a08601826128e6565b5060c0830151612d6560c08601826128e6565b5060e083015184820360e0860152612d7d8282612be7565b915050610100830151612d94610100860182612cc4565b508091505092915050565b60006020820190508181036000830152612db98184612cd3565b905092915050565b600082825260208201905092915050565b6000612ddd82612b9a565b612de78185612dc1565b935083602082028501612df985612bb6565b8060005b85811015612e355784840389528151612e168582612bc6565b9450612e2183612bda565b925060208a01995050600181019050612dfd565b50829750879550505050505092915050565b60006020820190508181036000830152612e618184612dd2565b905092915050565b612e7281612cb2565b82525050565b6000602082019050612e8d6000830184612e69565b92915050565b612e9c8161244d565b82525050565b6000606082019050612eb76000830186612e93565b8181036020830152612ec9818561235b565b90508181036040830152612edd818461235b565b9050949350505050565b600067ffffffffffffffff821115612f0257612f01612581565b5b602082029050602081019050919050565b600080fd5b600080fd5b600080fd5b612f2b8161244d565b8114612f3657600080fd5b50565b600081359050612f4881612f22565b92915050565b600060608284031215612f6457612f63612f18565b5b612f6e60606125e1565b90506000612f7e84828501612f39565b600083015250602082013567ffffffffffffffff811115612fa257612fa1612f1d565b5b612fae8482850161267e565b602083015250604082013567ffffffffffffffff811115612fd257612fd1612f1d565b5b612fde8482850161267e565b60408301525092915050565b6000612ffd612ff884612ee7565b6125e1565b905080838252602082019050602084028301858111156130205761301f612f13565b5b835b8181101561306757803567ffffffffffffffff81111561304557613044612577565b5b8086016130528982612f4e565b85526020850194505050602081019050613022565b5050509392505050565b600082601f83011261308657613085612577565b5b8135613096848260208601612fea565b91505092915050565b6000806000606084860312156130b8576130b76123c0565b5b600084013567ffffffffffffffff8111156130d6576130d56123c5565b5b6130e28682870161267e565b93505060206130f3868287016123eb565b925050604084013567ffffffffffffffff811115613114576131136123c5565b5b61312086828701613071565b9150509250925092565b7f4e487b7100000000000000000000000000000000000000000000000000000000600052602260045260246000fd5b6000600282049050600182168061317157607f821691505b602082108114156131855761318461312a565b5b50919050565b7f50726f6a65637420686173206e6f742073746172746564206f7220686173206560008201527f6e64656400000000000000000000000000000000000000000000000000000000602082015250565b60006131e7602483612306565b91506131f28261318b565b604082019050919050565b60006020820190508181036000830152613216816131da565b9050919050565b7f416d6f756e74206d7573742062652067726561746572207468616e207a65726f600082015250565b6000613253602083612306565b915061325e8261321d565b602082019050919050565b6000602082019050818103600083015261328281613246565b9050919050565b7f42616c616e6365206f66206163636f756e74206973206e6f7420656e6f756768600082015250565b60006132bf602083612306565b91506132ca82613289565b602082019050919050565b600060208201905081810360008301526132ee816132b2565b9050919050565b600060a08301600083015161330d6000860182612a56565b5060208301518482036020860152613325828261247f565b9150506040830151848203604086015261333f828261247f565b915050606083015161335460608601826128e6565b50608083015161336760808601826128e6565b508091505092915050565b6000602082019050818103600083015261338c81846132f5565b905092915050565b7f4e487b7100000000000000000000000000000000000000000000000000000000600052601160045260246000fd5b60006133ce826123ca565b91506133d9836123ca565b9250827fffffffffffffffffffffffffffffffffffffffffffffffffffffffffffffffff0382111561340e5761340d613394565b5b828201905092915050565b7f4e487b7100000000000000000000000000000000000000000000000000000000600052601260045260246000fd5b6000613453826123ca565b915061345e836123ca565b92508261346e5761346d613419565b5b828204905092915050565b7f4e6f207065726d697373696f6e00000000000000000000000000000000000000600082015250565b60006134af600d83612306565b91506134ba82613479565b602082019050919050565b600060208201905081810360008301526134de816134a2565b9050919050565b7f50726f6a6563742069732072756e6e696e67206f722068617320656e64656400600082015250565b600061351b601f83612306565b9150613526826134e5565b602082019050919050565b6000602082019050818103600083015261354a8161350e565b9050919050565b7f4e487b7100000000000000000000000000000000000000000000000000000000600052603260045260246000fd5b600061358b826123ca565b91507fffffffffffffffffffffffffffffffffffffffffffffffffffffffffffffffff8214156135be576135bd613394565b5b600182019050919050565b60006060820190506135de600083018661276c565b6135eb6020830185612e93565b6135f8604083018461250f565b94935050505056fea2646970667358221220efca3715fe0627fc3c77fa780b81320a012e65427f0e505db2712f94ad2c03ed64736f6c634300080a0033a2646970667358221220873ac4e5b6336404041c2266758144b935529abd41f56dda3b7d8e962593c9a964736f6c634300080a0033",
  "immutableReferences": {},
  "source": "// SPDX-License-Identifier: GPL-3.0-or-later\r\npragma solidity >=0.7.0 <0.9.0;\r\n\r\nimport \"./Project.sol\";\r\n\r\ncontract Charity {\r\n    address[] public listProject;\r\n    address public owner;\r\n\r\n    constructor() {\r\n        owner = msg.sender;\r\n    }\r\n\r\n    //event\r\n    event addCharityProjectEvent(\r\n        address owner,\r\n        address projectAddress,\r\n        string name,\r\n        uint256 target\r\n    );\r\n\r\n    function addCharityProject(string memory _name, uint256 _target)\r\n        public\r\n        returns (bool)\r\n    {\r\n        require(msg.sender == owner, \"No Permission\");\r\n\r\n        Project charity = new Project(_name, _target, msg.sender);\r\n        listProject.push(address(charity));\r\n        emit addCharityProjectEvent(\r\n            msg.sender,\r\n            charity.getAddress(),\r\n            _name,\r\n            _target\r\n        );\r\n        return true;\r\n    }\r\n\r\n    function deleteCharityProject(address _address) public {\r\n        require(msg.sender == owner, \"No Permission\");\r\n\r\n        uint256 i = findProject(_address);\r\n        removeProjectByIndex(i);\r\n    }\r\n\r\n    function findProject(address _address) public view returns (uint256) {\r\n        uint256 i = 0;\r\n        while (listProject[i] != _address) {\r\n            i++;\r\n        }\r\n        return i;\r\n    }\r\n\r\n    function removeProjectByIndex(uint256 i) public {\r\n        listProject[i] = listProject[listProject.length - 1];\r\n        listProject.pop();\r\n    }\r\n\r\n    function getAllProject() public view returns (address[] memory) {\r\n        return listProject;\r\n    }\r\n\r\n    function getProjectInfo(address _address)\r\n        public\r\n        view\r\n        returns (Project.ProjectInfo memory)\r\n    {\r\n        Project pi = Project(_address);\r\n        return pi.getProjectInfo();\r\n    }\r\n\r\n    function getOwner() public view returns (address) {\r\n        return owner;\r\n    }\r\n\r\n    function getInfoCharity()\r\n        public\r\n        view\r\n        returns (\r\n            uint256 totalDonate,\r\n            uint256 totalDonator,\r\n            uint256 totalBeneficy\r\n        )\r\n    {\r\n        for (uint256 i = 0; i < listProject.length; i++) {\r\n            Project.ProjectInfo memory p = Project(listProject[i])\r\n                .getProjectInfo();\r\n            totalDonate += (p.balance + p.allocated);\r\n            totalDonator += p.numberOfDonator;\r\n            totalBeneficy += p.numberOfBeneficy;\r\n        }\r\n    }\r\n}\r\n",
  "sourcePath": "C:\\Users\\lexua\\Desktop\\charity-project\\contracts\\Charity.sol",
  "compiler": {
    "name": "solc",
    "version": "0.8.10+commit.fc410830.Emscripten.clang"
  },
  "schemaVersion": "3.4.3",
  "updatedAt": "2022-03-18T05:49:38.428Z",
  "networkType": "ethereum",
  "devdoc": {
    "kind": "dev",
    "methods": {},
    "version": 1
  },
  "userdoc": {
    "kind": "user",
    "methods": {},
    "version": 1
  }
}