{
  "contractName": "Charity",
  "abi": [
    {
      "inputs": [],
      "stateMutability": "nonpayable",
      "type": "constructor"
    },
    {
      "anonymous": false,
      "inputs": [
        {
          "indexed": false,
          "internalType": "address",
          "name": "owner",
          "type": "address"
        },
        {
          "indexed": false,
          "internalType": "string",
          "name": "name",
          "type": "string"
        },
        {
          "indexed": false,
          "internalType": "uint256",
          "name": "target",
          "type": "uint256"
        }
      ],
      "name": "addCharityProjectEvent",
      "type": "event"
    },
    {
      "anonymous": false,
      "inputs": [
        {
          "indexed": false,
          "internalType": "address",
          "name": "owner",
          "type": "address"
        },
        {
          "components": [
            {
              "internalType": "address",
              "name": "managerAddress",
              "type": "address"
            },
            {
              "internalType": "string",
              "name": "name",
              "type": "string"
            },
            {
              "internalType": "string",
              "name": "description",
              "type": "string"
            }
          ],
          "indexed": false,
          "internalType": "struct Charity.Manager",
          "name": "manager",
          "type": "tuple"
        }
      ],
      "name": "addManagerEvent",
      "type": "event"
    },
    {
      "inputs": [
        {
          "internalType": "uint256",
          "name": "",
          "type": "uint256"
        }
      ],
      "name": "listManager",
      "outputs": [
        {
          "internalType": "address",
          "name": "managerAddress",
          "type": "address"
        },
        {
          "internalType": "string",
          "name": "name",
          "type": "string"
        },
        {
          "internalType": "string",
          "name": "description",
          "type": "string"
        }
      ],
      "stateMutability": "view",
      "type": "function",
      "constant": true
    },
    {
      "inputs": [
        {
          "internalType": "uint256",
          "name": "",
          "type": "uint256"
        }
      ],
      "name": "listProject",
      "outputs": [
        {
          "internalType": "address",
          "name": "",
          "type": "address"
        }
      ],
      "stateMutability": "view",
      "type": "function",
      "constant": true
    },
    {
      "inputs": [
        {
          "internalType": "address",
          "name": "",
          "type": "address"
        },
        {
          "internalType": "uint256",
          "name": "",
          "type": "uint256"
        }
      ],
      "name": "myCharity",
      "outputs": [
        {
          "internalType": "address",
          "name": "",
          "type": "address"
        }
      ],
      "stateMutability": "view",
      "type": "function",
      "constant": true
    },
    {
      "inputs": [],
      "name": "owner",
      "outputs": [
        {
          "internalType": "address",
          "name": "",
          "type": "address"
        }
      ],
      "stateMutability": "view",
      "type": "function",
      "constant": true
    },
    {
      "inputs": [
        {
          "internalType": "address",
          "name": "_mangerAddress",
          "type": "address"
        },
        {
          "internalType": "string",
          "name": "_name",
          "type": "string"
        },
        {
          "internalType": "string",
          "name": "_description",
          "type": "string"
        }
      ],
      "name": "addManager",
      "outputs": [
        {
          "internalType": "bool",
          "name": "",
          "type": "bool"
        }
      ],
      "stateMutability": "nonpayable",
      "type": "function"
    },
    {
      "inputs": [
        {
          "internalType": "address",
          "name": "_mangerAddress",
          "type": "address"
        },
        {
          "internalType": "string",
          "name": "_name",
          "type": "string"
        },
        {
          "internalType": "string",
          "name": "_description",
          "type": "string"
        }
      ],
      "name": "updateManager",
      "outputs": [
        {
          "internalType": "bool",
          "name": "",
          "type": "bool"
        }
      ],
      "stateMutability": "nonpayable",
      "type": "function"
    },
    {
      "inputs": [
        {
          "internalType": "string",
          "name": "_name",
          "type": "string"
        },
        {
          "internalType": "string",
          "name": "_description",
          "type": "string"
        },
        {
          "internalType": "uint256",
          "name": "_target",
          "type": "uint256"
        }
      ],
      "name": "addCharityProject",
      "outputs": [
        {
          "internalType": "bool",
          "name": "",
          "type": "bool"
        }
      ],
      "stateMutability": "nonpayable",
      "type": "function"
    },
    {
      "inputs": [],
      "name": "getAllProject",
      "outputs": [
        {
          "internalType": "address[]",
          "name": "",
          "type": "address[]"
        }
      ],
      "stateMutability": "view",
      "type": "function",
      "constant": true
    },
    {
      "inputs": [
        {
          "internalType": "address",
          "name": "_address",
          "type": "address"
        }
      ],
      "name": "getProjectInfo",
      "outputs": [
        {
          "components": [
            {
              "internalType": "address",
              "name": "projectAddress",
              "type": "address"
            },
            {
              "internalType": "string",
              "name": "name",
              "type": "string"
            },
            {
              "internalType": "string",
              "name": "description",
              "type": "string"
            },
            {
              "internalType": "uint256",
              "name": "target",
              "type": "uint256"
            },
            {
              "internalType": "uint256",
              "name": "balance",
              "type": "uint256"
            },
            {
              "internalType": "uint256",
              "name": "numberOfDonator",
              "type": "uint256"
            },
            {
              "internalType": "uint256",
              "name": "numberOfBeneficy",
              "type": "uint256"
            },
            {
              "internalType": "enum Project.charity_state",
              "name": "state",
              "type": "uint8"
            }
          ],
          "internalType": "struct Project.ProjectInfo",
          "name": "",
          "type": "tuple"
        }
      ],
      "stateMutability": "view",
      "type": "function",
      "constant": true
    },
    {
      "inputs": [
        {
          "internalType": "address",
          "name": "_address",
          "type": "address"
        }
      ],
      "name": "getMyProject",
      "outputs": [
        {
          "internalType": "address[]",
          "name": "",
          "type": "address[]"
        }
      ],
      "stateMutability": "view",
      "type": "function",
      "constant": true
    },
    {
      "inputs": [],
      "name": "getAllManager",
      "outputs": [
        {
          "components": [
            {
              "internalType": "address",
              "name": "managerAddress",
              "type": "address"
            },
            {
              "internalType": "string",
              "name": "name",
              "type": "string"
            },
            {
              "internalType": "string",
              "name": "description",
              "type": "string"
            }
          ],
          "internalType": "struct Charity.Manager[]",
          "name": "",
          "type": "tuple[]"
        }
      ],
      "stateMutability": "view",
      "type": "function",
      "constant": true
    },
    {
      "inputs": [],
      "name": "getInfoCharity",
      "outputs": [
        {
          "internalType": "uint256",
          "name": "totalDonate",
          "type": "uint256"
        },
        {
          "internalType": "uint256",
          "name": "totalDonator",
          "type": "uint256"
        },
        {
          "internalType": "uint256",
          "name": "totalBeneficy",
          "type": "uint256"
        }
      ],
      "stateMutability": "view",
      "type": "function",
      "constant": true
    }
  ],
  "bytecode": "0x608060405234801561001057600080fd5b5033600360006101000a81548173ffffffffffffffffffffffffffffffffffffffff021916908373ffffffffffffffffffffffffffffffffffffffff160217905550615dca806100616000396000f3fe60806040523480156200001157600080fd5b5060043610620000c45760003560e01c806397913652116200007b5780639791365214620001e7578063bc9ec6b3146200021d578063c1e7dcd21462000253578063c7a398871462000277578063d70ed49814620002ad578063dd8bbd9f14620002cf57620000c4565b806301f6a27414620000c95780633278412514620000ff57806347ee45b914620001375780635a73d5ed146200016d57806385a20c80146200018f5780638da5cb5b14620001c5575b600080fd5b620000e76004803603810190620000e1919062001406565b62000305565b604051620000f69190620014bd565b60405180910390f35b6200011d600480360381019062000117919062001515565b62000484565b6040516200012e93929190620015eb565b60405180910390f35b6200015560048036038101906200014f919062001636565b620005ff565b60405162000164919062001823565b60405180910390f35b6200017762000687565b60405162000186919062001974565b60405180910390f35b620001ad6004803603810190620001a7919062001515565b62000872565b604051620001bc919062001998565b60405180910390f35b620001cf620008b2565b604051620001de919062001998565b60405180910390f35b620002056004803603810190620001ff919062001636565b620008d8565b60405162000214919062001a72565b60405180910390f35b6200023b600480360381019062000235919062001406565b620009a6565b6040516200024a9190620014bd565b60405180910390f35b6200025d62000bd9565b6040516200026e9392919062001aa7565b60405180910390f35b6200029560048036038101906200028f919062001ae4565b62000d07565b604051620002a4919062001998565b60405180910390f35b620002b762000d56565b604051620002c6919062001a72565b60405180910390f35b620002ed6004803603810190620002e7919062001b2b565b62000de6565b604051620002fc9190620014bd565b60405180910390f35b6000600360009054906101000a900473ffffffffffffffffffffffffffffffffffffffff1673ffffffffffffffffffffffffffffffffffffffff163373ffffffffffffffffffffffffffffffffffffffff16146200039a576040517f08c379a0000000000000000000000000000000000000000000000000000000008152600401620003919062001c3b565b60405180910390fd5b6000620003a78562001020565b1215620003eb576040517f08c379a0000000000000000000000000000000000000000000000000000000008152600401620003e29062001cd3565b60405180910390fd5b6000620003f88562001020565b9050836001828154811062000412576200041162001cf5565b5b9060005260206000209060030201600101908051906020019062000438929190620010fd565b50826001828154811062000451576200045062001cf5565b5b9060005260206000209060030201600201908051906020019062000477929190620010fd565b5060019150509392505050565b600181815481106200049557600080fd5b90600052602060002090600302016000915090508060000160009054906101000a900473ffffffffffffffffffffffffffffffffffffffff1690806001018054620004e09062001d53565b80601f01602080910402602001604051908101604052809291908181526020018280546200050e9062001d53565b80156200055f5780601f1062000533576101008083540402835291602001916200055f565b820191906000526020600020905b8154815290600101906020018083116200054157829003601f168201915b505050505090806002018054620005769062001d53565b80601f0160208091040260200160405190810160405280929190818152602001828054620005a49062001d53565b8015620005f55780601f10620005c957610100808354040283529160200191620005f5565b820191906000526020600020905b815481529060010190602001808311620005d757829003601f168201915b5050505050905083565b620006096200118e565b8173ffffffffffffffffffffffffffffffffffffffff166367c897fe6040518163ffffffff1660e01b8152600401600060405180830381865afa15801562000655573d6000803e3d6000fd5b505050506040513d6000823e3d601f19601f8201168201806040525081019062000680919062001f84565b9050919050565b60606001805480602002602001604051908101604052809291908181526020016000905b828210156200086957838290600052602060002090600302016040518060600160405290816000820160009054906101000a900473ffffffffffffffffffffffffffffffffffffffff1673ffffffffffffffffffffffffffffffffffffffff1673ffffffffffffffffffffffffffffffffffffffff168152602001600182018054620007379062001d53565b80601f0160208091040260200160405190810160405280929190818152602001828054620007659062001d53565b8015620007b65780601f106200078a57610100808354040283529160200191620007b6565b820191906000526020600020905b8154815290600101906020018083116200079857829003601f168201915b50505050508152602001600282018054620007d19062001d53565b80601f0160208091040260200160405190810160405280929190818152602001828054620007ff9062001d53565b8015620008505780601f10620008245761010080835404028352916020019162000850565b820191906000526020600020905b8154815290600101906020018083116200083257829003601f168201915b50505050508152505081526020019060010190620006ab565b50505050905090565b600281815481106200088357600080fd5b906000526020600020016000915054906101000a900473ffffffffffffffffffffffffffffffffffffffff1681565b600360009054906101000a900473ffffffffffffffffffffffffffffffffffffffff1681565b60606000808373ffffffffffffffffffffffffffffffffffffffff1673ffffffffffffffffffffffffffffffffffffffff1681526020019081526020016000208054806020026020016040519081016040528092919081815260200182805480156200099a57602002820191906000526020600020905b8160009054906101000a900473ffffffffffffffffffffffffffffffffffffffff1673ffffffffffffffffffffffffffffffffffffffff16815260200190600101908083116200094f575b50505050509050919050565b6000600360009054906101000a900473ffffffffffffffffffffffffffffffffffffffff1673ffffffffffffffffffffffffffffffffffffffff163373ffffffffffffffffffffffffffffffffffffffff161462000a3b576040517f08c379a000000000000000000000000000000000000000000000000000000000815260040162000a329062001c3b565b60405180910390fd5b7fffffffffffffffffffffffffffffffffffffffffffffffffffffffffffffffff62000a678562001020565b1462000aaa576040517f08c379a000000000000000000000000000000000000000000000000000000000815260040162000aa1906200204b565b60405180910390fd5b600060405180606001604052808673ffffffffffffffffffffffffffffffffffffffff168152602001858152602001848152509050600181908060018154018082558091505060019003906000526020600020906003020160009091909190915060008201518160000160006101000a81548173ffffffffffffffffffffffffffffffffffffffff021916908373ffffffffffffffffffffffffffffffffffffffff160217905550602082015181600101908051906020019062000b70929190620010fd565b50604082015181600201908051906020019062000b8f929190620010fd565b5050507fb7745947ab2338b50bbff2c8aad6fb3cc4e4a61f7e6d3cdfd8867cad6b599d06338260405162000bc5929190620020ca565b60405180910390a160019150509392505050565b600080600080600090505b60028054905081101562000d015760006002828154811062000c0b5762000c0a62001cf5565b5b9060005260206000200160009054906101000a900473ffffffffffffffffffffffffffffffffffffffff1673ffffffffffffffffffffffffffffffffffffffff166367c897fe6040518163ffffffff1660e01b8152600401600060405180830381865afa15801562000c81573d6000803e3d6000fd5b505050506040513d6000823e3d601f19601f8201168201806040525081019062000cac919062001f84565b905080608001518562000cc091906200212d565b94508060a001518462000cd491906200212d565b93508060c001518362000ce891906200212d565b925050808062000cf8906200218a565b91505062000be4565b50909192565b6000602052816000526040600020818154811062000d2457600080fd5b906000526020600020016000915091509054906101000a900473ffffffffffffffffffffffffffffffffffffffff1681565b6060600280548060200260200160405190810160405280929190818152602001828054801562000ddc57602002820191906000526020600020905b8160009054906101000a900473ffffffffffffffffffffffffffffffffffffffff1673ffffffffffffffffffffffffffffffffffffffff168152602001906001019080831162000d91575b5050505050905090565b6000600360009054906101000a900473ffffffffffffffffffffffffffffffffffffffff1673ffffffffffffffffffffffffffffffffffffffff163373ffffffffffffffffffffffffffffffffffffffff16148062000e505750600062000e4d3362001020565b12155b62000e92576040517f08c379a000000000000000000000000000000000000000000000000000000000815260040162000e899062001c3b565b60405180910390fd5b60008484843360405162000ea690620011fe565b62000eb59493929190620021d8565b604051809103906000f08015801562000ed2573d6000803e3d6000fd5b5090506000803373ffffffffffffffffffffffffffffffffffffffff1673ffffffffffffffffffffffffffffffffffffffff168152602001908152602001600020819080600181540180825580915050600190039060005260206000200160009091909190916101000a81548173ffffffffffffffffffffffffffffffffffffffff021916908373ffffffffffffffffffffffffffffffffffffffff1602179055506002819080600181540180825580915050600190039060005260206000200160009091909190916101000a81548173ffffffffffffffffffffffffffffffffffffffff021916908373ffffffffffffffffffffffffffffffffffffffff1602179055507fc6bc2d268b91e8fc92b22faa3f3f8a397f5143abe7eadc9d1f06b842b771db953386856040516200100c9392919062002233565b60405180910390a160019150509392505050565b600080600090505b600180549050811215620010d357600181815481106200104d576200104c62001cf5565b5b906000526020600020906003020160000160009054906101000a900473ffffffffffffffffffffffffffffffffffffffff1673ffffffffffffffffffffffffffffffffffffffff168373ffffffffffffffffffffffffffffffffffffffff161415620010bd5780915050620010f8565b8080620010ca9062002281565b91505062001028565b507fffffffffffffffffffffffffffffffffffffffffffffffffffffffffffffffff90505b919050565b8280546200110b9062001d53565b90600052602060002090601f0160209004810192826200112f57600085556200117b565b82601f106200114a57805160ff19168380011785556200117b565b828001600101855582156200117b579182015b828111156200117a5782518255916020019190600101906200115d565b5b5090506200118a91906200120c565b5090565b604051806101000160405280600073ffffffffffffffffffffffffffffffffffffffff16815260200160608152602001606081526020016000815260200160008152602001600081526020016000815260200160006002811115620011f857620011f7620016dc565b5b81525090565b613ac580620022d083390190565b5b80821115620012275760008160009055506001016200120d565b5090565b6000604051905090565b600080fd5b600080fd5b600073ffffffffffffffffffffffffffffffffffffffff82169050919050565b60006200126c826200123f565b9050919050565b6200127e816200125f565b81146200128a57600080fd5b50565b6000813590506200129e8162001273565b92915050565b600080fd5b600080fd5b6000601f19601f8301169050919050565b7f4e487b7100000000000000000000000000000000000000000000000000000000600052604160045260246000fd5b620012f982620012ae565b810181811067ffffffffffffffff821117156200131b576200131a620012bf565b5b80604052505050565b6000620013306200122b565b90506200133e8282620012ee565b919050565b600067ffffffffffffffff821115620013615762001360620012bf565b5b6200136c82620012ae565b9050602081019050919050565b82818337600083830152505050565b60006200139f620013998462001343565b62001324565b905082815260208101848484011115620013be57620013bd620012a9565b5b620013cb84828562001379565b509392505050565b600082601f830112620013eb57620013ea620012a4565b5b8135620013fd84826020860162001388565b91505092915050565b60008060006060848603121562001422576200142162001235565b5b600062001432868287016200128d565b935050602084013567ffffffffffffffff8111156200145657620014556200123a565b5b6200146486828701620013d3565b925050604084013567ffffffffffffffff8111156200148857620014876200123a565b5b6200149686828701620013d3565b9150509250925092565b60008115159050919050565b620014b781620014a0565b82525050565b6000602082019050620014d46000830184620014ac565b92915050565b6000819050919050565b620014ef81620014da565b8114620014fb57600080fd5b50565b6000813590506200150f81620014e4565b92915050565b6000602082840312156200152e576200152d62001235565b5b60006200153e84828501620014fe565b91505092915050565b62001552816200125f565b82525050565b600081519050919050565b600082825260208201905092915050565b60005b838110156200159457808201518184015260208101905062001577565b83811115620015a4576000848401525b50505050565b6000620015b78262001558565b620015c3818562001563565b9350620015d581856020860162001574565b620015e081620012ae565b840191505092915050565b600060608201905062001602600083018662001547565b8181036020830152620016168185620015aa565b905081810360408301526200162c8184620015aa565b9050949350505050565b6000602082840312156200164f576200164e62001235565b5b60006200165f848285016200128d565b91505092915050565b62001673816200125f565b82525050565b600082825260208201905092915050565b6000620016978262001558565b620016a3818562001679565b9350620016b581856020860162001574565b620016c081620012ae565b840191505092915050565b620016d681620014da565b82525050565b7f4e487b7100000000000000000000000000000000000000000000000000000000600052602160045260246000fd5b600381106200171f576200171e620016dc565b5b50565b600081905062001732826200170b565b919050565b6000620017448262001722565b9050919050565b620017568162001737565b82525050565b60006101008301600083015162001777600086018262001668565b50602083015184820360208601526200179182826200168a565b91505060408301518482036040860152620017ad82826200168a565b9150506060830151620017c46060860182620016cb565b506080830151620017d96080860182620016cb565b5060a0830151620017ee60a0860182620016cb565b5060c08301516200180360c0860182620016cb565b5060e08301516200181860e08601826200174b565b508091505092915050565b600060208201905081810360008301526200183f81846200175c565b905092915050565b600081519050919050565b600082825260208201905092915050565b6000819050602082019050919050565b60006060830160008301516200188d600086018262001668565b5060208301518482036020860152620018a782826200168a565b91505060408301518482036040860152620018c382826200168a565b9150508091505092915050565b6000620018de838362001873565b905092915050565b6000602082019050919050565b6000620019008262001847565b6200190c818562001852565b935083602082028501620019208562001863565b8060005b85811015620019625784840389528151620019408582620018d0565b94506200194d83620018e6565b925060208a0199505060018101905062001924565b50829750879550505050505092915050565b60006020820190508181036000830152620019908184620018f3565b905092915050565b6000602082019050620019af600083018462001547565b92915050565b600081519050919050565b600082825260208201905092915050565b6000819050602082019050919050565b6000620019ef838362001668565b60208301905092915050565b6000602082019050919050565b600062001a1582620019b5565b62001a218185620019c0565b935062001a2e83620019d1565b8060005b8381101562001a6557815162001a498882620019e1565b975062001a5683620019fb565b92505060018101905062001a32565b5085935050505092915050565b6000602082019050818103600083015262001a8e818462001a08565b905092915050565b62001aa181620014da565b82525050565b600060608201905062001abe600083018662001a96565b62001acd602083018562001a96565b62001adc604083018462001a96565b949350505050565b6000806040838503121562001afe5762001afd62001235565b5b600062001b0e858286016200128d565b925050602062001b2185828601620014fe565b9150509250929050565b60008060006060848603121562001b475762001b4662001235565b5b600084013567ffffffffffffffff81111562001b685762001b676200123a565b5b62001b7686828701620013d3565b935050602084013567ffffffffffffffff81111562001b9a5762001b996200123a565b5b62001ba886828701620013d3565b925050604062001bbb86828701620014fe565b9150509250925092565b7f4b682543332542346e672532306325433325423325323071757925453125424260008201527f2538316e25323074682545312542422542316325323074686900000000000000602082015250565b600062001c2360398362001563565b915062001c308262001bc5565b604082019050919050565b6000602082019050818103600083015262001c568162001c14565b9050919050565b7f4b682543332542346e67253230742545312542422539336e253230742545312560008201527f4241254131690000000000000000000000000000000000000000000000000000602082015250565b600062001cbb60268362001563565b915062001cc88262001c5d565b604082019050919050565b6000602082019050818103600083015262001cee8162001cac565b9050919050565b7f4e487b7100000000000000000000000000000000000000000000000000000000600052603260045260246000fd5b7f4e487b7100000000000000000000000000000000000000000000000000000000600052602260045260246000fd5b6000600282049050600182168062001d6c57607f821691505b6020821081141562001d835762001d8262001d24565b5b50919050565b600080fd5b600080fd5b60008151905062001da48162001273565b92915050565b600062001dc162001dbb8462001343565b62001324565b90508281526020810184848401111562001de05762001ddf620012a9565b5b62001ded84828562001574565b509392505050565b600082601f83011262001e0d5762001e0c620012a4565b5b815162001e1f84826020860162001daa565b91505092915050565b60008151905062001e3981620014e4565b92915050565b6003811062001e4d57600080fd5b50565b60008151905062001e618162001e3f565b92915050565b6000610100828403121562001e815762001e8062001d89565b5b62001e8e61010062001324565b9050600062001ea08482850162001d93565b600083015250602082015167ffffffffffffffff81111562001ec75762001ec662001d8e565b5b62001ed58482850162001df5565b602083015250604082015167ffffffffffffffff81111562001efc5762001efb62001d8e565b5b62001f0a8482850162001df5565b604083015250606062001f208482850162001e28565b606083015250608062001f368482850162001e28565b60808301525060a062001f4c8482850162001e28565b60a08301525060c062001f628482850162001e28565b60c08301525060e062001f788482850162001e50565b60e08301525092915050565b60006020828403121562001f9d5762001f9c62001235565b5b600082015167ffffffffffffffff81111562001fbe5762001fbd6200123a565b5b62001fcc8482850162001e67565b91505092915050565b7f254334253930254333254133253230742545312542422539336e25323074254560008201527f3125424125413169000000000000000000000000000000000000000000000000602082015250565b60006200203360288362001563565b9150620020408262001fd5565b604082019050919050565b60006020820190508181036000830152620020668162002024565b9050919050565b600060608301600083015162002087600086018262001668565b5060208301518482036020860152620020a182826200168a565b91505060408301518482036040860152620020bd82826200168a565b9150508091505092915050565b6000604082019050620020e1600083018562001547565b8181036020830152620020f581846200206d565b90509392505050565b7f4e487b7100000000000000000000000000000000000000000000000000000000600052601160045260246000fd5b60006200213a82620014da565b91506200214783620014da565b9250827fffffffffffffffffffffffffffffffffffffffffffffffffffffffffffffffff038211156200217f576200217e620020fe565b5b828201905092915050565b60006200219782620014da565b91507fffffffffffffffffffffffffffffffffffffffffffffffffffffffffffffffff821415620021cd57620021cc620020fe565b5b600182019050919050565b60006080820190508181036000830152620021f48187620015aa565b905081810360208301526200220a8186620015aa565b90506200221b604083018562001a96565b6200222a606083018462001547565b95945050505050565b60006060820190506200224a600083018662001547565b81810360208301526200225e8185620015aa565b90506200226f604083018462001a96565b949350505050565b6000819050919050565b60006200228e8262002277565b91507f7fffffffffffffffffffffffffffffffffffffffffffffffffffffffffffffff821415620022c457620022c3620020fe565b5b60018201905091905056fe60806040523480156200001157600080fd5b5060405162003ac538038062003ac583398181016040528101906200003791906200041c565b600082116200007d576040517f08c379a000000000000000000000000000000000000000000000000000000000815260040162000074906200059f565b60405180910390fd5b8360009080519060200190620000959291906200012f565b508260019080519060200190620000ae9291906200012f565b5080600260006101000a81548173ffffffffffffffffffffffffffffffffffffffff021916908373ffffffffffffffffffffffffffffffffffffffff160217905550816003819055506000600b60006101000a81548160ff0219169083600281111562000120576200011f620005c1565b5b02179055505050505062000655565b8280546200013d906200061f565b90600052602060002090601f016020900481019282620001615760008555620001ad565b82601f106200017c57805160ff1916838001178555620001ad565b82800160010185558215620001ad579182015b82811115620001ac5782518255916020019190600101906200018f565b5b509050620001bc9190620001c0565b5090565b5b80821115620001db576000816000905550600101620001c1565b5090565b6000604051905090565b600080fd5b600080fd5b600080fd5b600080fd5b6000601f19601f8301169050919050565b7f4e487b7100000000000000000000000000000000000000000000000000000000600052604160045260246000fd5b6200024882620001fd565b810181811067ffffffffffffffff821117156200026a57620002696200020e565b5b80604052505050565b60006200027f620001df565b90506200028d82826200023d565b919050565b600067ffffffffffffffff821115620002b057620002af6200020e565b5b620002bb82620001fd565b9050602081019050919050565b60005b83811015620002e8578082015181840152602081019050620002cb565b83811115620002f8576000848401525b50505050565b6000620003156200030f8462000292565b62000273565b905082815260208101848484011115620003345762000333620001f8565b5b62000341848285620002c8565b509392505050565b600082601f830112620003615762000360620001f3565b5b815162000373848260208601620002fe565b91505092915050565b6000819050919050565b62000391816200037c565b81146200039d57600080fd5b50565b600081519050620003b18162000386565b92915050565b600073ffffffffffffffffffffffffffffffffffffffff82169050919050565b6000620003e482620003b7565b9050919050565b620003f681620003d7565b81146200040257600080fd5b50565b6000815190506200041681620003eb565b92915050565b60008060008060808587031215620004395762000438620001e9565b5b600085015167ffffffffffffffff8111156200045a5762000459620001ee565b5b620004688782880162000349565b945050602085015167ffffffffffffffff8111156200048c576200048b620001ee565b5b6200049a8782880162000349565b9350506040620004ad87828801620003a0565b9250506060620004c08782880162000405565b91505092959194509250565b600082825260208201905092915050565b7f4d2545312542422541356325323074692543332541417525323063254531254260008201527f4225413761253230642545312542422542312532302543332541316e2532307060208201527f68254531254241254133692532306c2545312542422539426e2532306825433660408201527f2541316e25323030000000000000000000000000000000000000000000000000606082015250565b600062000587606883620004cc565b91506200059482620004dd565b608082019050919050565b60006020820190508181036000830152620005ba8162000578565b9050919050565b7f4e487b7100000000000000000000000000000000000000000000000000000000600052602160045260246000fd5b7f4e487b7100000000000000000000000000000000000000000000000000000000600052602260045260246000fd5b600060028204905060018216806200063857607f821691505b602082108114156200064f576200064e620005f0565b5b50919050565b61346080620006656000396000f3fe6080604052600436106101405760003560e01c80637284e416116100b6578063a07354631161006f578063a073546314610461578063a149277b1461048c578063ac62f566146104b7578063c19d93fb146104f8578063d4b8399214610523578063efeb5e581461054e57610140565b80637284e4161461035f57806373d81bb71461038a57806378e97925146103b55780637b3e5e7b146103e05780637bad2c0d1461040b5780638da5cb5b1461043657610140565b806338cc48311161010857806338cc483114610235578063481b5f6f14610260578063500424d7146102a157806356fd7dab146102de57806367c897fe146103095780636d1af0181461033457610140565b806306fdde03146101455780630a24e8961461017057806312065fe0146101af5780631653441c146101da5780633197cbb61461020a575b600080fd5b34801561015157600080fd5b5061015a61058d565b6040516101679190612172565b60405180910390f35b34801561017c57600080fd5b50610197600480360381019061019291906121de565b61061b565b6040516101a6939291906122fc565b60405180910390f35b3480156101bb57600080fd5b506101c46107d9565b6040516101d1919061233a565b60405180910390f35b6101f460048036038101906101ef919061248a565b6107e1565b604051610201919061251d565b60405180910390f35b34801561021657600080fd5b5061021f610ba3565b60405161022c919061233a565b60405180910390f35b34801561024157600080fd5b5061024a610ba9565b6040516102579190612559565b60405180910390f35b34801561026c57600080fd5b50610287600480360381019061028291906125a0565b610bb1565b6040516102989594939291906125e0565b60405180910390f35b3480156102ad57600080fd5b506102c860048036038101906102c391906127f9565b610d34565b6040516102d5919061251d565b60405180910390f35b3480156102ea57600080fd5b506102f3610f2e565b60405161030091906129ba565b60405180910390f35b34801561031557600080fd5b5061031e611135565b60405161032b9190612b19565b60405180910390f35b34801561034057600080fd5b506103496112e1565b604051610356919061233a565b60405180910390f35b34801561036b57600080fd5b506103746112eb565b6040516103819190612172565b60405180910390f35b34801561039657600080fd5b5061039f611379565b6040516103ac919061251d565b60405180910390f35b3480156103c157600080fd5b506103ca61139c565b6040516103d7919061233a565b60405180910390f35b3480156103ec57600080fd5b506103f56113a2565b604051610402919061233a565b60405180910390f35b34801561041757600080fd5b506104206113a8565b60405161042d9190612bfd565b60405180910390f35b34801561044257600080fd5b5061044b611587565b6040516104589190612559565b60405180910390f35b34801561046d57600080fd5b506104766115ad565b6040516104839190612d5e565b60405180910390f35b34801561049857600080fd5b506104a16117a0565b6040516104ae919061251d565b60405180910390f35b3480156104c357600080fd5b506104de60048036038101906104d991906121de565b6118f3565b6040516104ef9594939291906125e0565b60405180910390f35b34801561050457600080fd5b5061050d611a69565b60405161051a9190612d8f565b60405180910390f35b34801561052f57600080fd5b50610538611a7c565b604051610545919061233a565b60405180910390f35b34801561055a57600080fd5b50610575600480360381019061057091906121de565b611a82565b60405161058493929190612db9565b60405180910390f35b6000805461059a90612e2d565b80601f01602080910402602001604051908101604052809291908181526020018280546105c690612e2d565b80156106135780601f106105e857610100808354040283529160200191610613565b820191906000526020600020905b8154815290600101906020018083116105f657829003601f168201915b505050505081565b600a818154811061062b57600080fd5b9060005260206000209060050201600091509050806000016040518060600160405290816000820160009054906101000a900473ffffffffffffffffffffffffffffffffffffffff1673ffffffffffffffffffffffffffffffffffffffff1673ffffffffffffffffffffffffffffffffffffffff1681526020016001820180546106b490612e2d565b80601f01602080910402602001604051908101604052809291908181526020018280546106e090612e2d565b801561072d5780601f106107025761010080835404028352916020019161072d565b820191906000526020600020905b81548152906001019060200180831161071057829003601f168201915b5050505050815260200160028201805461074690612e2d565b80601f016020809104026020016040519081016040528092919081815260200182805461077290612e2d565b80156107bf5780601f10610794576101008083540402835291602001916107bf565b820191906000526020600020905b8154815290600101906020018083116107a257829003601f168201915b505050505081525050908060030154908060040154905083565b600047905090565b6000600160028111156107f7576107f66129eb565b5b600b60009054906101000a900460ff166002811115610819576108186129eb565b5b14610859576040517f08c379a000000000000000000000000000000000000000000000000000000000815260040161085090612f43565b60405180910390fd5b6000341161089c576040517f08c379a000000000000000000000000000000000000000000000000000000000815260040161089390612ffb565b60405180910390fd5b343373ffffffffffffffffffffffffffffffffffffffff1631116108f5576040517f08c379a00000000000000000000000000000000000000000000000000000000081526004016108ec9061308d565b60405180910390fd5b60006040518060a001604052803373ffffffffffffffffffffffffffffffffffffffff168152602001858152602001848152602001348152602001428152509050600760003373ffffffffffffffffffffffffffffffffffffffff1673ffffffffffffffffffffffffffffffffffffffff16815260200190815260200160002081908060018154018082558091505060019003906000526020600020906005020160009091909190915060008201518160000160006101000a81548173ffffffffffffffffffffffffffffffffffffffff021916908373ffffffffffffffffffffffffffffffffffffffff1602179055506020820151816001019080519060200190610a02929190611fc9565b506040820151816002019080519060200190610a1f929190611fc9565b5060608201518160030155608082015181600401555050600881908060018154018082558091505060019003906000526020600020906005020160009091909190915060008201518160000160006101000a81548173ffffffffffffffffffffffffffffffffffffffff021916908373ffffffffffffffffffffffffffffffffffffffff1602179055506020820151816001019080519060200190610ac5929190611fc9565b506040820151816002019080519060200190610ae2929190611fc9565b50606082015181600301556080820151816004015550503460046000828254610b0b91906130dc565b925050819055507f24d83d68453fc3df073101ac515398dd4daeb23e45efb66c3ad49303c188968e81604051610b4191906131af565b60405180910390a160011515610b55611379565b15151415610b98576002600b60006101000a81548160ff02191690836002811115610b8357610b826129eb565b5b021790555042600681905550610b97611bec565b5b600191505092915050565b60065481565b600030905090565b60076020528160005260406000208181548110610bcd57600080fd5b9060005260206000209060050201600091509150508060000160009054906101000a900473ffffffffffffffffffffffffffffffffffffffff1690806001018054610c1790612e2d565b80601f0160208091040260200160405190810160405280929190818152602001828054610c4390612e2d565b8015610c905780601f10610c6557610100808354040283529160200191610c90565b820191906000526020600020905b815481529060010190602001808311610c7357829003601f168201915b505050505090806002018054610ca590612e2d565b80601f0160208091040260200160405190810160405280929190818152602001828054610cd190612e2d565b8015610d1e5780601f10610cf357610100808354040283529160200191610d1e565b820191906000526020600020905b815481529060010190602001808311610d0157829003601f168201915b5050505050908060030154908060040154905085565b6000600260009054906101000a900473ffffffffffffffffffffffffffffffffffffffff1673ffffffffffffffffffffffffffffffffffffffff163373ffffffffffffffffffffffffffffffffffffffff1614610dc6576040517f08c379a0000000000000000000000000000000000000000000000000000000008152600401610dbd90613243565b60405180910390fd5b60006002811115610dda57610dd96129eb565b5b600b60009054906101000a900460ff166002811115610dfc57610dfb6129eb565b5b14610e3c576040517f08c379a0000000000000000000000000000000000000000000000000000000008152600401610e33906132fb565b60405180910390fd5b60005b8251811015610f24576009838281518110610e5d57610e5c61331b565b5b6020026020010151908060018154018082558091505060019003906000526020600020906003020160009091909190915060008201518160000160006101000a81548173ffffffffffffffffffffffffffffffffffffffff021916908373ffffffffffffffffffffffffffffffffffffffff1602179055506020820151816001019080519060200190610ef1929190611fc9565b506040820151816002019080519060200190610f0e929190611fc9565b5050508080610f1c9061334a565b915050610e3f565b5060019050919050565b60606000600a805480602002602001604051908101604052809291908181526020016000905b828210156111285783829060005260206000209060050201604051806060016040529081600082016040518060600160405290816000820160009054906101000a900473ffffffffffffffffffffffffffffffffffffffff1673ffffffffffffffffffffffffffffffffffffffff1673ffffffffffffffffffffffffffffffffffffffff168152602001600182018054610fed90612e2d565b80601f016020809104026020016040519081016040528092919081815260200182805461101990612e2d565b80156110665780601f1061103b57610100808354040283529160200191611066565b820191906000526020600020905b81548152906001019060200180831161104957829003601f168201915b5050505050815260200160028201805461107f90612e2d565b80601f01602080910402602001604051908101604052809291908181526020018280546110ab90612e2d565b80156110f85780601f106110cd576101008083540402835291602001916110f8565b820191906000526020600020905b8154815290600101906020018083116110db57829003601f168201915b50505050508152505081526020016003820154815260200160048201548152505081526020019060010190610f54565b5050505090508091505090565b61113d61204f565b604051806101000160405280611151610ba9565b73ffffffffffffffffffffffffffffffffffffffff1681526020016000805461117990612e2d565b80601f01602080910402602001604051908101604052809291908181526020018280546111a590612e2d565b80156111f25780601f106111c7576101008083540402835291602001916111f2565b820191906000526020600020905b8154815290600101906020018083116111d557829003601f168201915b505050505081526020016001805461120990612e2d565b80601f016020809104026020016040519081016040528092919081815260200182805461123590612e2d565b80156112825780601f1061125757610100808354040283529160200191611282565b820191906000526020600020905b81548152906001019060200180831161126557829003601f168201915b50505050508152602001600354815260200161129c6112e1565b815260200160088054905081526020016009805490508152602001600b60009054906101000a900460ff1660028111156112d9576112d86129eb565b5b815250905090565b6000600454905090565b600180546112f890612e2d565b80601f016020809104026020016040519081016040528092919081815260200182805461132490612e2d565b80156113715780601f1061134657610100808354040283529160200191611371565b820191906000526020600020905b81548152906001019060200180831161135457829003601f168201915b505050505081565b60006003546113866107d9565b106113945760019050611399565b600090505b90565b60055481565b60045481565b606060006009805480602002602001604051908101604052809291908181526020016000905b8282101561157a57838290600052602060002090600302016040518060600160405290816000820160009054906101000a900473ffffffffffffffffffffffffffffffffffffffff1673ffffffffffffffffffffffffffffffffffffffff1673ffffffffffffffffffffffffffffffffffffffff16815260200160018201805461145790612e2d565b80601f016020809104026020016040519081016040528092919081815260200182805461148390612e2d565b80156114d05780601f106114a5576101008083540402835291602001916114d0565b820191906000526020600020905b8154815290600101906020018083116114b357829003601f168201915b505050505081526020016002820180546114e990612e2d565b80601f016020809104026020016040519081016040528092919081815260200182805461151590612e2d565b80156115625780601f1061153757610100808354040283529160200191611562565b820191906000526020600020905b81548152906001019060200180831161154557829003601f168201915b505050505081525050815260200190600101906113ce565b5050505090508091505090565b600260009054906101000a900473ffffffffffffffffffffffffffffffffffffffff1681565b606060006008805480602002602001604051908101604052809291908181526020016000905b8282101561179357838290600052602060002090600502016040518060a00160405290816000820160009054906101000a900473ffffffffffffffffffffffffffffffffffffffff1673ffffffffffffffffffffffffffffffffffffffff1673ffffffffffffffffffffffffffffffffffffffff16815260200160018201805461165c90612e2d565b80601f016020809104026020016040519081016040528092919081815260200182805461168890612e2d565b80156116d55780601f106116aa576101008083540402835291602001916116d5565b820191906000526020600020905b8154815290600101906020018083116116b857829003601f168201915b505050505081526020016002820180546116ee90612e2d565b80601f016020809104026020016040519081016040528092919081815260200182805461171a90612e2d565b80156117675780601f1061173c57610100808354040283529160200191611767565b820191906000526020600020905b81548152906001019060200180831161174a57829003601f168201915b5050505050815260200160038201548152602001600482015481525050815260200190600101906115d3565b5050505090508091505090565b6000600260009054906101000a900473ffffffffffffffffffffffffffffffffffffffff1673ffffffffffffffffffffffffffffffffffffffff163373ffffffffffffffffffffffffffffffffffffffff1614611832576040517f08c379a000000000000000000000000000000000000000000000000000000000815260040161182990613243565b60405180910390fd5b60006002811115611846576118456129eb565b5b600b60009054906101000a900460ff166002811115611868576118676129eb565b5b146118a8576040517f08c379a000000000000000000000000000000000000000000000000000000000815260040161189f906132fb565b60405180910390fd5b6000600980549050116118ba57600080fd5b6001600b60006101000a81548160ff021916908360028111156118e0576118df6129eb565b5b0217905550426005819055506001905090565b6008818154811061190357600080fd5b90600052602060002090600502016000915090508060000160009054906101000a900473ffffffffffffffffffffffffffffffffffffffff169080600101805461194c90612e2d565b80601f016020809104026020016040519081016040528092919081815260200182805461197890612e2d565b80156119c55780601f1061199a576101008083540402835291602001916119c5565b820191906000526020600020905b8154815290600101906020018083116119a857829003601f168201915b5050505050908060020180546119da90612e2d565b80601f0160208091040260200160405190810160405280929190818152602001828054611a0690612e2d565b8015611a535780601f10611a2857610100808354040283529160200191611a53565b820191906000526020600020905b815481529060010190602001808311611a3657829003601f168201915b5050505050908060030154908060040154905085565b600b60009054906101000a900460ff1681565b60035481565b60098181548110611a9257600080fd5b90600052602060002090600302016000915090508060000160009054906101000a900473ffffffffffffffffffffffffffffffffffffffff1690806001018054611adb90612e2d565b80601f0160208091040260200160405190810160405280929190818152602001828054611b0790612e2d565b8015611b545780601f10611b2957610100808354040283529160200191611b54565b820191906000526020600020905b815481529060010190602001808311611b3757829003601f168201915b505050505090806002018054611b6990612e2d565b80601f0160208091040260200160405190810160405280929190818152602001828054611b9590612e2d565b8015611be25780601f10611bb757610100808354040283529160200191611be2565b820191906000526020600020905b815481529060010190602001808311611bc557829003601f168201915b5050505050905083565b6000600980549050905060008147611c0491906133c2565b905060005b82811015611fc45760098181548110611c2557611c2461331b565b5b906000526020600020906003020160000160009054906101000a900473ffffffffffffffffffffffffffffffffffffffff1673ffffffffffffffffffffffffffffffffffffffff166108fc839081150290604051600060405180830381858888f19350505050158015611c9c573d6000803e3d6000fd5b506000604051806060016040528060098481548110611cbe57611cbd61331b565b5b90600052602060002090600302016040518060600160405290816000820160009054906101000a900473ffffffffffffffffffffffffffffffffffffffff1673ffffffffffffffffffffffffffffffffffffffff1673ffffffffffffffffffffffffffffffffffffffff168152602001600182018054611d3d90612e2d565b80601f0160208091040260200160405190810160405280929190818152602001828054611d6990612e2d565b8015611db65780601f10611d8b57610100808354040283529160200191611db6565b820191906000526020600020905b815481529060010190602001808311611d9957829003601f168201915b50505050508152602001600282018054611dcf90612e2d565b80601f0160208091040260200160405190810160405280929190818152602001828054611dfb90612e2d565b8015611e485780601f10611e1d57610100808354040283529160200191611e48565b820191906000526020600020905b815481529060010190602001808311611e2b57829003601f168201915b5050505050815250508152602001848152602001428152509050600a81908060018154018082558091505060019003906000526020600020906005020160009091909190915060008201518160000160008201518160000160006101000a81548173ffffffffffffffffffffffffffffffffffffffff021916908373ffffffffffffffffffffffffffffffffffffffff1602179055506020820151816001019080519060200190611efa929190611fc9565b506040820151816002019080519060200190611f17929190611fc9565b505050602082015181600301556040820151816004015550507ffaffca71c161e93019c1527f21a0fb1523759be5092113930dab383f15a3a3593060098481548110611f6657611f6561331b565b5b906000526020600020906003020160000160009054906101000a900473ffffffffffffffffffffffffffffffffffffffff1685604051611fa8939291906133f3565b60405180910390a1508080611fbc9061334a565b915050611c09565b505050565b828054611fd590612e2d565b90600052602060002090601f016020900481019282611ff7576000855561203e565b82601f1061201057805160ff191683800117855561203e565b8280016001018555821561203e579182015b8281111561203d578251825591602001919060010190612022565b5b50905061204b91906120bc565b5090565b604051806101000160405280600073ffffffffffffffffffffffffffffffffffffffff168152602001606081526020016060815260200160008152602001600081526020016000815260200160008152602001600060028111156120b6576120b56129eb565b5b81525090565b5b808211156120d55760008160009055506001016120bd565b5090565b600081519050919050565b600082825260208201905092915050565b60005b838110156121135780820151818401526020810190506120f8565b83811115612122576000848401525b50505050565b6000601f19601f8301169050919050565b6000612144826120d9565b61214e81856120e4565b935061215e8185602086016120f5565b61216781612128565b840191505092915050565b6000602082019050818103600083015261218c8184612139565b905092915050565b6000604051905090565b600080fd5b600080fd5b6000819050919050565b6121bb816121a8565b81146121c657600080fd5b50565b6000813590506121d8816121b2565b92915050565b6000602082840312156121f4576121f361219e565b5b6000612202848285016121c9565b91505092915050565b600073ffffffffffffffffffffffffffffffffffffffff82169050919050565b60006122368261220b565b9050919050565b6122468161222b565b82525050565b600082825260208201905092915050565b6000612268826120d9565b612272818561224c565b93506122828185602086016120f5565b61228b81612128565b840191505092915050565b60006060830160008301516122ae600086018261223d565b50602083015184820360208601526122c6828261225d565b915050604083015184820360408601526122e0828261225d565b9150508091505092915050565b6122f6816121a8565b82525050565b600060608201905081810360008301526123168186612296565b905061232560208301856122ed565b61233260408301846122ed565b949350505050565b600060208201905061234f60008301846122ed565b92915050565b600080fd5b600080fd5b7f4e487b7100000000000000000000000000000000000000000000000000000000600052604160045260246000fd5b61239782612128565b810181811067ffffffffffffffff821117156123b6576123b561235f565b5b80604052505050565b60006123c9612194565b90506123d5828261238e565b919050565b600067ffffffffffffffff8211156123f5576123f461235f565b5b6123fe82612128565b9050602081019050919050565b82818337600083830152505050565b600061242d612428846123da565b6123bf565b9050828152602081018484840111156124495761244861235a565b5b61245484828561240b565b509392505050565b600082601f83011261247157612470612355565b5b813561248184826020860161241a565b91505092915050565b600080604083850312156124a1576124a061219e565b5b600083013567ffffffffffffffff8111156124bf576124be6121a3565b5b6124cb8582860161245c565b925050602083013567ffffffffffffffff8111156124ec576124eb6121a3565b5b6124f88582860161245c565b9150509250929050565b60008115159050919050565b61251781612502565b82525050565b6000602082019050612532600083018461250e565b92915050565b60006125438261220b565b9050919050565b61255381612538565b82525050565b600060208201905061256e600083018461254a565b92915050565b61257d81612538565b811461258857600080fd5b50565b60008135905061259a81612574565b92915050565b600080604083850312156125b7576125b661219e565b5b60006125c58582860161258b565b92505060206125d6858286016121c9565b9150509250929050565b600060a0820190506125f5600083018861254a565b81810360208301526126078187612139565b9050818103604083015261261b8186612139565b905061262a60608301856122ed565b61263760808301846122ed565b9695505050505050565b600067ffffffffffffffff82111561265c5761265b61235f565b5b602082029050602081019050919050565b600080fd5b600080fd5b600080fd5b6126858161222b565b811461269057600080fd5b50565b6000813590506126a28161267c565b92915050565b6000606082840312156126be576126bd612672565b5b6126c860606123bf565b905060006126d884828501612693565b600083015250602082013567ffffffffffffffff8111156126fc576126fb612677565b5b6127088482850161245c565b602083015250604082013567ffffffffffffffff81111561272c5761272b612677565b5b6127388482850161245c565b60408301525092915050565b600061275761275284612641565b6123bf565b9050808382526020820190506020840283018581111561277a5761277961266d565b5b835b818110156127c157803567ffffffffffffffff81111561279f5761279e612355565b5b8086016127ac89826126a8565b8552602085019450505060208101905061277c565b5050509392505050565b600082601f8301126127e0576127df612355565b5b81356127f0848260208601612744565b91505092915050565b60006020828403121561280f5761280e61219e565b5b600082013567ffffffffffffffff81111561282d5761282c6121a3565b5b612839848285016127cb565b91505092915050565b600081519050919050565b600082825260208201905092915050565b6000819050602082019050919050565b6000606083016000830151612886600086018261223d565b506020830151848203602086015261289e828261225d565b915050604083015184820360408601526128b8828261225d565b9150508091505092915050565b6128ce816121a8565b82525050565b600060608301600083015184820360008601526128f1828261286e565b915050602083015161290660208601826128c5565b50604083015161291960408601826128c5565b508091505092915050565b600061293083836128d4565b905092915050565b6000602082019050919050565b600061295082612842565b61295a818561284d565b93508360208202850161296c8561285e565b8060005b858110156129a857848403895281516129898582612924565b945061299483612938565b925060208a01995050600181019050612970565b50829750879550505050505092915050565b600060208201905081810360008301526129d48184612945565b905092915050565b6129e581612538565b82525050565b7f4e487b7100000000000000000000000000000000000000000000000000000000600052602160045260246000fd5b60038110612a2b57612a2a6129eb565b5b50565b6000819050612a3c82612a1a565b919050565b6000612a4c82612a2e565b9050919050565b612a5c81612a41565b82525050565b600061010083016000830151612a7b60008601826129dc565b5060208301518482036020860152612a93828261225d565b91505060408301518482036040860152612aad828261225d565b9150506060830151612ac260608601826128c5565b506080830151612ad560808601826128c5565b5060a0830151612ae860a08601826128c5565b5060c0830151612afb60c08601826128c5565b5060e0830151612b0e60e0860182612a53565b508091505092915050565b60006020820190508181036000830152612b338184612a62565b905092915050565b600081519050919050565b600082825260208201905092915050565b6000819050602082019050919050565b6000612b73838361286e565b905092915050565b6000602082019050919050565b6000612b9382612b3b565b612b9d8185612b46565b935083602082028501612baf85612b57565b8060005b85811015612beb5784840389528151612bcc8582612b67565b9450612bd783612b7b565b925060208a01995050600181019050612bb3565b50829750879550505050505092915050565b60006020820190508181036000830152612c178184612b88565b905092915050565b600081519050919050565b600082825260208201905092915050565b6000819050602082019050919050565b600060a083016000830151612c6360008601826129dc565b5060208301518482036020860152612c7b828261225d565b91505060408301518482036040860152612c95828261225d565b9150506060830151612caa60608601826128c5565b506080830151612cbd60808601826128c5565b508091505092915050565b6000612cd48383612c4b565b905092915050565b6000602082019050919050565b6000612cf482612c1f565b612cfe8185612c2a565b935083602082028501612d1085612c3b565b8060005b85811015612d4c5784840389528151612d2d8582612cc8565b9450612d3883612cdc565b925060208a01995050600181019050612d14565b50829750879550505050505092915050565b60006020820190508181036000830152612d788184612ce9565b905092915050565b612d8981612a41565b82525050565b6000602082019050612da46000830184612d80565b92915050565b612db38161222b565b82525050565b6000606082019050612dce6000830186612daa565b8181036020830152612de08185612139565b90508181036040830152612df48184612139565b9050949350505050565b7f4e487b7100000000000000000000000000000000000000000000000000000000600052602260045260246000fd5b60006002820490506001821680612e4557607f821691505b60208210811415612e5957612e58612dfe565b5b50919050565b7f442545312542422542312532302543332541316e2532306e254333254130792560008201527f323063682543362542306125323062254531254241254146742532302543342560208201527f393125453125424125413775253230686f25453125424125423763253230254360408201527f342539312543332541332532306b25453125424125424674253230746825433360608201527f2542416300000000000000000000000000000000000000000000000000000000608082015250565b6000612f2d6084836120e4565b9150612f3882612e5f565b60a082019050919050565b60006020820190508181036000830152612f5c81612f20565b9050919050565b7f5325453125424225393125323074692545312542422538316e2532307175792560008201527f43332541416e253230672543332542337025323070682545312542412541336960208201527f2532306c2545312542422539426e253230682543362541316e25323030000000604082015250565b6000612fe5605d836120e4565b9150612ff082612f63565b606082019050919050565b6000602082019050818103600083015261301481612fd8565b9050919050565b7f53254531254242253931253230642543362542302532306b682543332542346e60008201527f6725323025433425393125453125424225413700000000000000000000000000602082015250565b60006130776033836120e4565b91506130828261301b565b604082019050919050565b600060208201905081810360008301526130a68161306a565b9050919050565b7f4e487b7100000000000000000000000000000000000000000000000000000000600052601160045260246000fd5b60006130e7826121a8565b91506130f2836121a8565b9250827fffffffffffffffffffffffffffffffffffffffffffffffffffffffffffffffff03821115613127576131266130ad565b5b828201905092915050565b600060a08301600083015161314a60008601826129dc565b5060208301518482036020860152613162828261225d565b9150506040830151848203604086015261317c828261225d565b915050606083015161319160608601826128c5565b5060808301516131a460808601826128c5565b508091505092915050565b600060208201905081810360008301526131c98184613132565b905092915050565b7f4b682543332542346e672532306325433325423325323071757925453125424260008201527f2538316e25323074682545312542422542316325323074686900000000000000602082015250565b600061322d6039836120e4565b9150613238826131d1565b604082019050919050565b6000602082019050818103600083015261325c81613220565b9050919050565b7f442545312542422542312532302543332541316e2532306e254333254130792560008201527f3230254334253931254333254133253230686f2545312542412541317425323060208201527f2543342539312545312542422539396e67000000000000000000000000000000604082015250565b60006132e56051836120e4565b91506132f082613263565b606082019050919050565b60006020820190508181036000830152613314816132d8565b9050919050565b7f4e487b7100000000000000000000000000000000000000000000000000000000600052603260045260246000fd5b6000613355826121a8565b91507fffffffffffffffffffffffffffffffffffffffffffffffffffffffffffffffff821415613388576133876130ad565b5b600182019050919050565b7f4e487b7100000000000000000000000000000000000000000000000000000000600052601260045260246000fd5b60006133cd826121a8565b91506133d8836121a8565b9250826133e8576133e7613393565b5b828204905092915050565b6000606082019050613408600083018661254a565b6134156020830185612daa565b61342260408301846122ed565b94935050505056fea2646970667358221220da5146905fe16040895094b25ee68aeb069e950ee6d810e0d84f9162919b796564736f6c634300080a0033a264697066735822122027d088fb2e459cb1f691531c5fcd015a5a6b0f2e8468407a1f1905f3ca2c2d5564736f6c634300080a0033",
  "immutableReferences": {},
  "source": "pragma solidity >=0.7.0 <0.9.0;\r\n\r\nimport \"./Project.sol\";\r\n\r\ncontract Charity {\r\n    struct Manager {\r\n        address managerAddress;\r\n        string name;\r\n        string description;\r\n    }\r\n\r\n    mapping(address => address[]) public myCharity;\r\n    Manager[] public listManager;\r\n    address[] public listProject;\r\n    address public owner;\r\n\r\n    constructor() {\r\n        owner = msg.sender;\r\n    }\r\n\r\n    //event\r\n    event addCharityProjectEvent(address owner, string name, uint256 target);\r\n    event addManagerEvent(address owner, Manager manager);\r\n\r\n    //manager methods\r\n    function addManager(\r\n        address _mangerAddress,\r\n        string memory _name,\r\n        string memory _description\r\n    ) public returns (bool) {\r\n        require(\r\n            msg.sender == owner,\r\n            \"Kh%C3%B4ng%20c%C3%B3%20quy%E1%BB%81n%20th%E1%BB%B1c%20thi\"\r\n        );\r\n        require(\r\n            indexOfManager(_mangerAddress) == -1,\r\n            \"%C4%90%C3%A3%20t%E1%BB%93n%20t%E1%BA%A1i\"\r\n        );\r\n\r\n        Manager memory manager = Manager(_mangerAddress, _name, _description);\r\n        listManager.push(manager);\r\n        emit addManagerEvent(msg.sender, manager);\r\n        return true;\r\n    }\r\n\r\n    //delete manager\r\n    // function deleteManager(address _mangerAddress) public returns (bool) {\r\n    //     require(\r\n    //         msg.sender == owner,\r\n    //         \"Kh%C3%B4ng%20c%C3%B3%20quy%E1%BB%81n%20th%E1%BB%B1c%20thi\"\r\n    //     );\r\n    //     require(\r\n    //         indexOfManager(_mangerAddress) >= 0,\r\n    //         \"Kh%C3%B4ng%20t%E1%BB%93n%20t%E1%BA%A1i\"\r\n    //     );\r\n\r\n    //     int256 index = indexOfManager(_mangerAddress);\r\n    //     removeManager(index);\r\n    //     return true;\r\n    // }\r\n\r\n    //update manager\r\n    function updateManager(\r\n        address _mangerAddress,\r\n        string memory _name,\r\n        string memory _description\r\n    ) public returns (bool) {\r\n        require(\r\n            msg.sender == owner,\r\n            \"Kh%C3%B4ng%20c%C3%B3%20quy%E1%BB%81n%20th%E1%BB%B1c%20thi\"\r\n        );\r\n        require(\r\n            indexOfManager(_mangerAddress) >= 0,\r\n            \"Kh%C3%B4ng%20t%E1%BB%93n%20t%E1%BA%A1i\"\r\n        );\r\n\r\n        int256 index = indexOfManager(_mangerAddress);\r\n        listManager[uint256(index)].name = _name;\r\n        listManager[uint256(index)].description = _description;\r\n        return true;\r\n    }\r\n\r\n    function addCharityProject(\r\n        string memory _name,\r\n        string memory _description,\r\n        uint256 _target\r\n    ) public returns (bool) {\r\n        require(\r\n            msg.sender == owner || indexOfManager(msg.sender) >= 0,\r\n            \"Kh%C3%B4ng%20c%C3%B3%20quy%E1%BB%81n%20th%E1%BB%B1c%20thi\"\r\n        );\r\n\r\n        Project charity = new Project(_name, _description, _target, msg.sender);\r\n        myCharity[msg.sender].push(address(charity));\r\n        listProject.push(address(charity));\r\n        emit addCharityProjectEvent(msg.sender, _name, _target);\r\n        return true;\r\n    }\r\n\r\n    function getAllProject() public view returns (address[] memory) {\r\n        return listProject;\r\n    }\r\n\r\n    function getProjectInfo(address _address)\r\n        public\r\n        view\r\n        returns (Project.ProjectInfo memory)\r\n    {\r\n        return Project(_address).getProjectInfo();\r\n    }\r\n\r\n    function getMyProject(address _address)\r\n        public\r\n        view\r\n        returns (address[] memory)\r\n    {\r\n        return myCharity[_address];\r\n    }\r\n\r\n    function getAllManager() public view returns (Manager[] memory) {\r\n        return listManager;\r\n    }\r\n\r\n    function indexOfManager(address item) internal view returns (int256) {\r\n        for (int256 i = 0; i < int256(listManager.length); i++) {\r\n            if (item == listManager[uint256(i)].managerAddress) return i;\r\n        }\r\n        return -1;\r\n    }\r\n\r\n    function removeManager(int256 index) internal {\r\n        if (uint256(index) > listManager.length) return;\r\n\r\n        listManager[uint256(index)] = listManager[listManager.length - 1];\r\n        listManager.pop();\r\n        return;\r\n    }\r\n\r\n    function getInfoCharity()\r\n        public\r\n        view\r\n        returns (\r\n            uint256 totalDonate,\r\n            uint256 totalDonator,\r\n            uint256 totalBeneficy\r\n        )\r\n    {\r\n        for (uint256 i = 0; i < listProject.length; i++) {\r\n            Project.ProjectInfo memory p = Project(listProject[i])\r\n                .getProjectInfo();\r\n            totalDonate += p.balance;\r\n            totalDonator += p.numberOfDonator;\r\n            totalBeneficy += p.numberOfBeneficy;\r\n        }\r\n    }\r\n}\r\n",
  "sourcePath": "C:\\Users\\lexua\\Desktop\\charity-project\\contracts\\Charity.sol",
  "compiler": {
    "name": "solc",
    "version": "0.8.10+commit.fc410830.Emscripten.clang"
  },
  "schemaVersion": "3.4.3",
  "updatedAt": "2022-01-04T20:04:39.717Z",
  "networkType": "ethereum",
  "devdoc": {
    "kind": "dev",
    "methods": {},
    "version": 1
  },
  "userdoc": {
    "kind": "user",
    "methods": {},
    "version": 1
  }
}