{
  "contractName": "Charity",
  "abi": [
    {
      "inputs": [],
      "stateMutability": "nonpayable",
      "type": "constructor"
    },
    {
      "anonymous": false,
      "inputs": [
        {
          "indexed": false,
          "internalType": "address",
          "name": "owner",
          "type": "address"
        },
        {
          "indexed": false,
          "internalType": "address",
          "name": "projectAddress",
          "type": "address"
        },
        {
          "indexed": false,
          "internalType": "string",
          "name": "name",
          "type": "string"
        },
        {
          "indexed": false,
          "internalType": "uint256",
          "name": "target",
          "type": "uint256"
        }
      ],
      "name": "addCharityProjectEvent",
      "type": "event"
    },
    {
      "inputs": [
        {
          "internalType": "uint256",
          "name": "",
          "type": "uint256"
        }
      ],
      "name": "listProject",
      "outputs": [
        {
          "internalType": "address",
          "name": "",
          "type": "address"
        }
      ],
      "stateMutability": "view",
      "type": "function",
      "constant": true
    },
    {
      "inputs": [],
      "name": "owner",
      "outputs": [
        {
          "internalType": "address",
          "name": "",
          "type": "address"
        }
      ],
      "stateMutability": "view",
      "type": "function",
      "constant": true
    },
    {
      "inputs": [
        {
          "internalType": "string",
          "name": "_name",
          "type": "string"
        },
        {
          "internalType": "uint256",
          "name": "_target",
          "type": "uint256"
        }
      ],
      "name": "addCharityProject",
      "outputs": [
        {
          "internalType": "bool",
          "name": "",
          "type": "bool"
        }
      ],
      "stateMutability": "nonpayable",
      "type": "function"
    },
    {
      "inputs": [],
      "name": "getAllProject",
      "outputs": [
        {
          "internalType": "address[]",
          "name": "",
          "type": "address[]"
        }
      ],
      "stateMutability": "view",
      "type": "function",
      "constant": true
    },
    {
      "inputs": [
        {
          "internalType": "address",
          "name": "_address",
          "type": "address"
        }
      ],
      "name": "getProjectInfo",
      "outputs": [
        {
          "components": [
            {
              "internalType": "address",
              "name": "projectAddress",
              "type": "address"
            },
            {
              "internalType": "string",
              "name": "name",
              "type": "string"
            },
            {
              "internalType": "uint256",
              "name": "target",
              "type": "uint256"
            },
            {
              "internalType": "uint256",
              "name": "balance",
              "type": "uint256"
            },
            {
              "internalType": "uint256",
              "name": "allocated",
              "type": "uint256"
            },
            {
              "internalType": "uint256",
              "name": "numberOfDonator",
              "type": "uint256"
            },
            {
              "internalType": "uint256",
              "name": "numberOfBeneficy",
              "type": "uint256"
            },
            {
              "components": [
                {
                  "internalType": "address payable",
                  "name": "beneficiaryAddress",
                  "type": "address"
                },
                {
                  "internalType": "string",
                  "name": "name",
                  "type": "string"
                },
                {
                  "internalType": "string",
                  "name": "description",
                  "type": "string"
                }
              ],
              "internalType": "struct Project.Beneficiary[]",
              "name": "beneficiaries",
              "type": "tuple[]"
            },
            {
              "internalType": "enum Project.charity_state",
              "name": "state",
              "type": "uint8"
            }
          ],
          "internalType": "struct Project.ProjectInfo",
          "name": "",
          "type": "tuple"
        }
      ],
      "stateMutability": "view",
      "type": "function",
      "constant": true
    },
    {
      "inputs": [],
      "name": "getInfoCharity",
      "outputs": [
        {
          "internalType": "uint256",
          "name": "totalDonate",
          "type": "uint256"
        },
        {
          "internalType": "uint256",
          "name": "totalDonator",
          "type": "uint256"
        },
        {
          "internalType": "uint256",
          "name": "totalBeneficy",
          "type": "uint256"
        }
      ],
      "stateMutability": "view",
      "type": "function",
      "constant": true
    }
  ],
  "bytecode": "0x608060405234801561001057600080fd5b5033600160006101000a81548173ffffffffffffffffffffffffffffffffffffffff021916908373ffffffffffffffffffffffffffffffffffffffff160217905550614ef2806100616000396000f3fe60806040523480156200001157600080fd5b50600436106200006a5760003560e01c806347ee45b9146200006f57806385a20c8014620000a55780638da5cb5b14620000db578063a604bdae14620000fd578063c1e7dcd21462000133578063d70ed4981462000157575b600080fd5b6200008d60048036038101906200008791906200072d565b62000179565b6040516200009c919062000adf565b60405180910390f35b620000c36004803603810190620000bd919062000b34565b62000207565b604051620000d2919062000b77565b60405180910390f35b620000e562000247565b604051620000f4919062000b77565b60405180910390f35b6200011b600480360381019062000115919062000ce5565b6200026d565b6040516200012a919062000d68565b60405180910390f35b6200013d62000461565b6040516200014e9392919062000d96565b60405180910390f35b620001616200059f565b60405162000170919062000e90565b60405180910390f35b620001836200062f565b60008290508073ffffffffffffffffffffffffffffffffffffffff166367c897fe6040518163ffffffff1660e01b8152600401600060405180830381865afa158015620001d4573d6000803e3d6000fd5b505050506040513d6000823e3d601f19601f82011682018060405250810190620001ff9190620012a1565b915050919050565b600081815481106200021857600080fd5b906000526020600020016000915054906101000a900473ffffffffffffffffffffffffffffffffffffffff1681565b600160009054906101000a900473ffffffffffffffffffffffffffffffffffffffff1681565b6000600160009054906101000a900473ffffffffffffffffffffffffffffffffffffffff1673ffffffffffffffffffffffffffffffffffffffff163373ffffffffffffffffffffffffffffffffffffffff161462000302576040517f08c379a0000000000000000000000000000000000000000000000000000000008152600401620002f99062001353565b60405180910390fd5b60008383336040516200031590620006a6565b6200032393929190620013b6565b604051809103906000f08015801562000340573d6000803e3d6000fd5b5090506000819080600181540180825580915050600190039060005260206000200160009091909190916101000a81548173ffffffffffffffffffffffffffffffffffffffff021916908373ffffffffffffffffffffffffffffffffffffffff1602179055507f85ba33523ad4e48c04ae48d4a2a3ec940b0c7fa66ec23e7fe760408fbacd03b7338273ffffffffffffffffffffffffffffffffffffffff166338cc48316040518163ffffffff1660e01b8152600401602060405180830381865afa15801562000414573d6000803e3d6000fd5b505050506040513d601f19601f820116820180604052508101906200043a9190620013fa565b86866040516200044e94939291906200142c565b60405180910390a1600191505092915050565b600080600080600090505b6000805490508110156200059957600080828154811062000492576200049162001480565b5b9060005260206000200160009054906101000a900473ffffffffffffffffffffffffffffffffffffffff1673ffffffffffffffffffffffffffffffffffffffff166367c897fe6040518163ffffffff1660e01b8152600401600060405180830381865afa15801562000508573d6000803e3d6000fd5b505050506040513d6000823e3d601f19601f82011682018060405250810190620005339190620012a1565b9050806080015181606001516200054b9190620014de565b85620005589190620014de565b94508060a00151846200056c9190620014de565b93508060c0015183620005809190620014de565b925050808062000590906200153b565b9150506200046c565b50909192565b606060008054806020026020016040519081016040528092919081815260200182805480156200062557602002820191906000526020600020905b8160009054906101000a900473ffffffffffffffffffffffffffffffffffffffff1673ffffffffffffffffffffffffffffffffffffffff1681526020019060010190808311620005da575b5050505050905090565b604051806101200160405280600073ffffffffffffffffffffffffffffffffffffffff1681526020016060815260200160008152602001600081526020016000815260200160008152602001600081526020016060815260200160006002811115620006a0576200069f62000981565b5b81525090565b613933806200158a83390190565b6000604051905090565b600080fd5b600080fd5b600073ffffffffffffffffffffffffffffffffffffffff82169050919050565b6000620006f582620006c8565b9050919050565b6200070781620006e8565b81146200071357600080fd5b50565b6000813590506200072781620006fc565b92915050565b600060208284031215620007465762000745620006be565b5b6000620007568482850162000716565b91505092915050565b6200076a81620006e8565b82525050565b600081519050919050565b600082825260208201905092915050565b60005b83811015620007ac5780820151818401526020810190506200078f565b83811115620007bc576000848401525b50505050565b6000601f19601f8301169050919050565b6000620007e08262000770565b620007ec81856200077b565b9350620007fe8185602086016200078c565b6200080981620007c2565b840191505092915050565b6000819050919050565b620008298162000814565b82525050565b600081519050919050565b600082825260208201905092915050565b6000819050602082019050919050565b60006200086882620006c8565b9050919050565b6200087a816200085b565b82525050565b60006060830160008301516200089a60008601826200086f565b5060208301518482036020860152620008b48282620007d3565b91505060408301518482036040860152620008d08282620007d3565b9150508091505092915050565b6000620008eb838362000880565b905092915050565b6000602082019050919050565b60006200090d826200082f565b6200091981856200083a565b9350836020820285016200092d856200084b565b8060005b858110156200096f57848403895281516200094d8582620008dd565b94506200095a83620008f3565b925060208a0199505060018101905062000931565b50829750879550505050505092915050565b7f4e487b7100000000000000000000000000000000000000000000000000000000600052602160045260246000fd5b60038110620009c457620009c362000981565b5b50565b6000819050620009d782620009b0565b919050565b6000620009e982620009c7565b9050919050565b620009fb81620009dc565b82525050565b60006101208301600083015162000a1c60008601826200075f565b506020830151848203602086015262000a368282620007d3565b915050604083015162000a4d60408601826200081e565b50606083015162000a6260608601826200081e565b50608083015162000a7760808601826200081e565b5060a083015162000a8c60a08601826200081e565b5060c083015162000aa160c08601826200081e565b5060e083015184820360e086015262000abb828262000900565b91505061010083015162000ad4610100860182620009f0565b508091505092915050565b6000602082019050818103600083015262000afb818462000a01565b905092915050565b62000b0e8162000814565b811462000b1a57600080fd5b50565b60008135905062000b2e8162000b03565b92915050565b60006020828403121562000b4d5762000b4c620006be565b5b600062000b5d8482850162000b1d565b91505092915050565b62000b7181620006e8565b82525050565b600060208201905062000b8e600083018462000b66565b92915050565b600080fd5b600080fd5b7f4e487b7100000000000000000000000000000000000000000000000000000000600052604160045260246000fd5b62000bd882620007c2565b810181811067ffffffffffffffff8211171562000bfa5762000bf962000b9e565b5b80604052505050565b600062000c0f620006b4565b905062000c1d828262000bcd565b919050565b600067ffffffffffffffff82111562000c405762000c3f62000b9e565b5b62000c4b82620007c2565b9050602081019050919050565b82818337600083830152505050565b600062000c7e62000c788462000c22565b62000c03565b90508281526020810184848401111562000c9d5762000c9c62000b99565b5b62000caa84828562000c58565b509392505050565b600082601f83011262000cca5762000cc962000b94565b5b813562000cdc84826020860162000c67565b91505092915050565b6000806040838503121562000cff5762000cfe620006be565b5b600083013567ffffffffffffffff81111562000d205762000d1f620006c3565b5b62000d2e8582860162000cb2565b925050602062000d418582860162000b1d565b9150509250929050565b60008115159050919050565b62000d628162000d4b565b82525050565b600060208201905062000d7f600083018462000d57565b92915050565b62000d908162000814565b82525050565b600060608201905062000dad600083018662000d85565b62000dbc602083018562000d85565b62000dcb604083018462000d85565b949350505050565b600081519050919050565b600082825260208201905092915050565b6000819050602082019050919050565b600062000e0d83836200075f565b60208301905092915050565b6000602082019050919050565b600062000e338262000dd3565b62000e3f818562000dde565b935062000e4c8362000def565b8060005b8381101562000e8357815162000e67888262000dff565b975062000e748362000e19565b92505060018101905062000e50565b5085935050505092915050565b6000602082019050818103600083015262000eac818462000e26565b905092915050565b600080fd5b600080fd5b60008151905062000ecf81620006fc565b92915050565b600062000eec62000ee68462000c22565b62000c03565b90508281526020810184848401111562000f0b5762000f0a62000b99565b5b62000f188482856200078c565b509392505050565b600082601f83011262000f385762000f3762000b94565b5b815162000f4a84826020860162000ed5565b91505092915050565b60008151905062000f648162000b03565b92915050565b600067ffffffffffffffff82111562000f885762000f8762000b9e565b5b602082029050602081019050919050565b600080fd5b62000fa9816200085b565b811462000fb557600080fd5b50565b60008151905062000fc98162000f9e565b92915050565b60006060828403121562000fe85762000fe762000eb4565b5b62000ff4606062000c03565b90506000620010068482850162000fb8565b600083015250602082015167ffffffffffffffff8111156200102d576200102c62000eb9565b5b6200103b8482850162000f20565b602083015250604082015167ffffffffffffffff81111562001062576200106162000eb9565b5b620010708482850162000f20565b60408301525092915050565b6000620010936200108d8462000f6a565b62000c03565b90508083825260208201905060208402830185811115620010b957620010b862000f99565b5b835b818110156200110757805167ffffffffffffffff811115620010e257620010e162000b94565b5b808601620010f1898262000fcf565b85526020850194505050602081019050620010bb565b5050509392505050565b600082601f83011262001129576200112862000b94565b5b81516200113b8482602086016200107c565b91505092915050565b600381106200115257600080fd5b50565b600081519050620011668162001144565b92915050565b6000610120828403121562001186576200118562000eb4565b5b6200119361012062000c03565b90506000620011a58482850162000ebe565b600083015250602082015167ffffffffffffffff811115620011cc57620011cb62000eb9565b5b620011da8482850162000f20565b6020830152506040620011f08482850162000f53565b6040830152506060620012068482850162000f53565b60608301525060806200121c8482850162000f53565b60808301525060a0620012328482850162000f53565b60a08301525060c0620012488482850162000f53565b60c08301525060e082015167ffffffffffffffff8111156200126f576200126e62000eb9565b5b6200127d8482850162001111565b60e083015250610100620012948482850162001155565b6101008301525092915050565b600060208284031215620012ba57620012b9620006be565b5b600082015167ffffffffffffffff811115620012db57620012da620006c3565b5b620012e9848285016200116c565b91505092915050565b600082825260208201905092915050565b7f4e6f205065726d697373696f6e00000000000000000000000000000000000000600082015250565b60006200133b600d83620012f2565b9150620013488262001303565b602082019050919050565b600060208201905081810360008301526200136e816200132c565b9050919050565b6000620013828262000770565b6200138e8185620012f2565b9350620013a08185602086016200078c565b620013ab81620007c2565b840191505092915050565b60006060820190508181036000830152620013d2818662001375565b9050620013e3602083018562000d85565b620013f2604083018462000b66565b949350505050565b600060208284031215620014135762001412620006be565b5b6000620014238482850162000ebe565b91505092915050565b600060808201905062001443600083018762000b66565b62001452602083018662000b66565b818103604083015262001466818562001375565b905062001477606083018462000d85565b95945050505050565b7f4e487b7100000000000000000000000000000000000000000000000000000000600052603260045260246000fd5b7f4e487b7100000000000000000000000000000000000000000000000000000000600052601160045260246000fd5b6000620014eb8262000814565b9150620014f88362000814565b9250827fffffffffffffffffffffffffffffffffffffffffffffffffffffffffffffffff0382111562001530576200152f620014af565b5b828201905092915050565b6000620015488262000814565b91507fffffffffffffffffffffffffffffffffffffffffffffffffffffffffffffffff8214156200157e576200157d620014af565b5b60018201905091905056fe60806040523480156200001157600080fd5b506040516200393338038062003933833981810160405281019062000037919062000402565b600082116200007d576040517f08c379a00000000000000000000000000000000000000000000000000000000081526004016200007490620004de565b60405180910390fd5b82600090805190602001906200009592919062000115565b5080600160006101000a81548173ffffffffffffffffffffffffffffffffffffffff021916908373ffffffffffffffffffffffffffffffffffffffff160217905550816002819055506000600a60006101000a81548160ff0219169083600281111562000107576200010662000500565b5b021790555050505062000594565b82805462000123906200055e565b90600052602060002090601f01602090048101928262000147576000855562000193565b82601f106200016257805160ff191683800117855562000193565b8280016001018555821562000193579182015b828111156200019257825182559160200191906001019062000175565b5b509050620001a29190620001a6565b5090565b5b80821115620001c1576000816000905550600101620001a7565b5090565b6000604051905090565b600080fd5b600080fd5b600080fd5b600080fd5b6000601f19601f8301169050919050565b7f4e487b7100000000000000000000000000000000000000000000000000000000600052604160045260246000fd5b6200022e82620001e3565b810181811067ffffffffffffffff8211171562000250576200024f620001f4565b5b80604052505050565b600062000265620001c5565b905062000273828262000223565b919050565b600067ffffffffffffffff821115620002965762000295620001f4565b5b620002a182620001e3565b9050602081019050919050565b60005b83811015620002ce578082015181840152602081019050620002b1565b83811115620002de576000848401525b50505050565b6000620002fb620002f58462000278565b62000259565b9050828152602081018484840111156200031a5762000319620001de565b5b62000327848285620002ae565b509392505050565b600082601f830112620003475762000346620001d9565b5b815162000359848260208601620002e4565b91505092915050565b6000819050919050565b620003778162000362565b81146200038357600080fd5b50565b60008151905062000397816200036c565b92915050565b600073ffffffffffffffffffffffffffffffffffffffff82169050919050565b6000620003ca826200039d565b9050919050565b620003dc81620003bd565b8114620003e857600080fd5b50565b600081519050620003fc81620003d1565b92915050565b6000806000606084860312156200041e576200041d620001cf565b5b600084015167ffffffffffffffff8111156200043f576200043e620001d4565b5b6200044d868287016200032f565b9350506020620004608682870162000386565b92505060406200047386828701620003eb565b9150509250925092565b600082825260208201905092915050565b7f546172676574206d7573742062652067726561746572207468616e207a65726f600082015250565b6000620004c66020836200047d565b9150620004d3826200048e565b602082019050919050565b60006020820190508181036000830152620004f981620004b7565b9050919050565b7f4e487b7100000000000000000000000000000000000000000000000000000000600052602160045260246000fd5b7f4e487b7100000000000000000000000000000000000000000000000000000000600052602260045260246000fd5b600060028204905060018216806200057757607f821691505b602082108114156200058e576200058d6200052f565b5b50919050565b61338f80620005a46000396000f3fe60806040526004361061012a5760003560e01c806373d81bb7116100ab578063ac62f5661161006f578063ac62f566146103e3578063b304b2e114610424578063c19d93fb1461044f578063d4b839921461047a578063efeb5e58146104a5578063fba9d55e146104e45761012a565b806373d81bb71461030c57806378e97925146103375780637bad2c0d146103625780638da5cb5b1461038d578063a0735463146103b85761012a565b806338cc4831116100f257806338cc48311461021f578063481b5f6f1461024a5780634b084d491461028b57806356fd7dab146102b657806367c897fe146102e15761012a565b806306fdde031461012f5780630a24e8961461015a57806312065fe0146101995780631653441c146101c45780633197cbb6146101f4575b600080fd5b34801561013b57600080fd5b50610144610521565b604051610151919061211a565b60405180910390f35b34801561016657600080fd5b50610181600480360381019061017c9190612186565b6105af565b604051610190939291906122a4565b60405180910390f35b3480156101a557600080fd5b506101ae61076d565b6040516101bb91906122e2565b60405180910390f35b6101de60048036038101906101d99190612432565b610775565b6040516101eb91906124c5565b60405180910390f35b34801561020057600080fd5b50610209610b33565b60405161021691906122e2565b60405180910390f35b34801561022b57600080fd5b50610234610b39565b6040516102419190612501565b60405180910390f35b34801561025657600080fd5b50610271600480360381019061026c9190612548565b610b41565b604051610282959493929190612588565b60405180910390f35b34801561029757600080fd5b506102a0610cc4565b6040516102ad91906124c5565b60405180910390f35b3480156102c257600080fd5b506102cb610ced565b6040516102d89190612761565b60405180910390f35b3480156102ed57600080fd5b506102f6610ef4565b6040516103039190612997565b60405180910390f35b34801561031857600080fd5b506103216111ef565b60405161032e91906124c5565b60405180910390f35b34801561034357600080fd5b5061034c61121d565b60405161035991906122e2565b60405180910390f35b34801561036e57600080fd5b50610377611223565b6040516103849190612a3f565b60405180910390f35b34801561039957600080fd5b506103a2611402565b6040516103af9190612501565b60405180910390f35b3480156103c457600080fd5b506103cd611428565b6040516103da9190612ba0565b60405180910390f35b3480156103ef57600080fd5b5061040a60048036038101906104059190612186565b61161b565b60405161041b959493929190612588565b60405180910390f35b34801561043057600080fd5b50610439611791565b60405161044691906122e2565b60405180910390f35b34801561045b57600080fd5b50610464611797565b6040516104719190612bd1565b60405180910390f35b34801561048657600080fd5b5061048f6117aa565b60405161049c91906122e2565b60405180910390f35b3480156104b157600080fd5b506104cc60048036038101906104c79190612186565b6117b0565b6040516104db93929190612bfb565b60405180910390f35b3480156104f057600080fd5b5061050b60048036038101906105069190612df8565b61191a565b60405161051891906124c5565b60405180910390f35b6000805461052e90612eb2565b80601f016020809104026020016040519081016040528092919081815260200182805461055a90612eb2565b80156105a75780601f1061057c576101008083540402835291602001916105a7565b820191906000526020600020905b81548152906001019060200180831161058a57829003601f168201915b505050505081565b600981815481106105bf57600080fd5b9060005260206000209060050201600091509050806000016040518060600160405290816000820160009054906101000a900473ffffffffffffffffffffffffffffffffffffffff1673ffffffffffffffffffffffffffffffffffffffff1673ffffffffffffffffffffffffffffffffffffffff16815260200160018201805461064890612eb2565b80601f016020809104026020016040519081016040528092919081815260200182805461067490612eb2565b80156106c15780601f10610696576101008083540402835291602001916106c1565b820191906000526020600020905b8154815290600101906020018083116106a457829003601f168201915b505050505081526020016002820180546106da90612eb2565b80601f016020809104026020016040519081016040528092919081815260200182805461070690612eb2565b80156107535780601f1061072857610100808354040283529160200191610753565b820191906000526020600020905b81548152906001019060200180831161073657829003601f168201915b505050505081525050908060030154908060040154905083565b600047905090565b60006001600281111561078b5761078a612854565b5b600a60009054906101000a900460ff1660028111156107ad576107ac612854565b5b146107ed576040517f08c379a00000000000000000000000000000000000000000000000000000000081526004016107e490612f56565b60405180910390fd5b60003411610830576040517f08c379a000000000000000000000000000000000000000000000000000000000815260040161082790612fc2565b60405180910390fd5b343373ffffffffffffffffffffffffffffffffffffffff163111610889576040517f08c379a00000000000000000000000000000000000000000000000000000000081526004016108809061302e565b60405180910390fd5b60006040518060a001604052803373ffffffffffffffffffffffffffffffffffffffff168152602001858152602001848152602001348152602001428152509050600660003373ffffffffffffffffffffffffffffffffffffffff1673ffffffffffffffffffffffffffffffffffffffff16815260200190815260200160002081908060018154018082558091505060019003906000526020600020906005020160009091909190915060008201518160000160006101000a81548173ffffffffffffffffffffffffffffffffffffffff021916908373ffffffffffffffffffffffffffffffffffffffff1602179055506020820151816001019080519060200190610996929190611f6a565b5060408201518160020190805190602001906109b3929190611f6a565b5060608201518160030155608082015181600401555050600781908060018154018082558091505060019003906000526020600020906005020160009091909190915060008201518160000160006101000a81548173ffffffffffffffffffffffffffffffffffffffff021916908373ffffffffffffffffffffffffffffffffffffffff1602179055506020820151816001019080519060200190610a59929190611f6a565b506040820151816002019080519060200190610a76929190611f6a565b50606082015181600301556080820151816004015550507f24d83d68453fc3df073101ac515398dd4daeb23e45efb66c3ad49303c188968e81604051610abc91906130cb565b60405180910390a160011515610ad06111ef565b15151415610b285760011515610ae4610cc4565b15151415610b1f576002600a60006101000a81548160ff02191690836002811115610b1257610b11612854565b5b0217905550426005819055505b610b27611b74565b5b600191505092915050565b60055481565b600030905090565b60066020528160005260406000208181548110610b5d57600080fd5b9060005260206000209060050201600091509150508060000160009054906101000a900473ffffffffffffffffffffffffffffffffffffffff1690806001018054610ba790612eb2565b80601f0160208091040260200160405190810160405280929190818152602001828054610bd390612eb2565b8015610c205780601f10610bf557610100808354040283529160200191610c20565b820191906000526020600020905b815481529060010190602001808311610c0357829003601f168201915b505050505090806002018054610c3590612eb2565b80601f0160208091040260200160405190810160405280929190818152602001828054610c6190612eb2565b8015610cae5780601f10610c8357610100808354040283529160200191610cae565b820191906000526020600020905b815481529060010190602001808311610c9157829003601f168201915b5050505050908060030154908060040154905085565b600060025460035447610cd7919061311c565b10610ce55760019050610cea565b600090505b90565b606060006009805480602002602001604051908101604052809291908181526020016000905b82821015610ee75783829060005260206000209060050201604051806060016040529081600082016040518060600160405290816000820160009054906101000a900473ffffffffffffffffffffffffffffffffffffffff1673ffffffffffffffffffffffffffffffffffffffff1673ffffffffffffffffffffffffffffffffffffffff168152602001600182018054610dac90612eb2565b80601f0160208091040260200160405190810160405280929190818152602001828054610dd890612eb2565b8015610e255780601f10610dfa57610100808354040283529160200191610e25565b820191906000526020600020905b815481529060010190602001808311610e0857829003601f168201915b50505050508152602001600282018054610e3e90612eb2565b80601f0160208091040260200160405190810160405280929190818152602001828054610e6a90612eb2565b8015610eb75780601f10610e8c57610100808354040283529160200191610eb7565b820191906000526020600020905b815481529060010190602001808311610e9a57829003601f168201915b50505050508152505081526020016003820154815260200160048201548152505081526020019060010190610d13565b5050505090508091505090565b610efc611ff0565b604051806101200160405280610f10610b39565b73ffffffffffffffffffffffffffffffffffffffff16815260200160008054610f3890612eb2565b80601f0160208091040260200160405190810160405280929190818152602001828054610f6490612eb2565b8015610fb15780601f10610f8657610100808354040283529160200191610fb1565b820191906000526020600020905b815481529060010190602001808311610f9457829003601f168201915b505050505081526020016002548152602001610fcb61076d565b81526020016003548152602001600780549050815260200160088054905081526020016008805480602002602001604051908101604052809291908181526020016000905b828210156111bc57838290600052602060002090600302016040518060600160405290816000820160009054906101000a900473ffffffffffffffffffffffffffffffffffffffff1673ffffffffffffffffffffffffffffffffffffffff1673ffffffffffffffffffffffffffffffffffffffff16815260200160018201805461109990612eb2565b80601f01602080910402602001604051908101604052809291908181526020018280546110c590612eb2565b80156111125780601f106110e757610100808354040283529160200191611112565b820191906000526020600020905b8154815290600101906020018083116110f557829003601f168201915b5050505050815260200160028201805461112b90612eb2565b80601f016020809104026020016040519081016040528092919081815260200182805461115790612eb2565b80156111a45780601f10611179576101008083540402835291602001916111a4565b820191906000526020600020905b81548152906001019060200180831161118757829003601f168201915b50505050508152505081526020019060010190611010565b505050508152602001600a60009054906101000a900460ff1660028111156111e7576111e6612854565b5b815250905090565b6000600280546111ff91906131a1565b61120761076d565b10611215576001905061121a565b600090505b90565b60045481565b606060006008805480602002602001604051908101604052809291908181526020016000905b828210156113f557838290600052602060002090600302016040518060600160405290816000820160009054906101000a900473ffffffffffffffffffffffffffffffffffffffff1673ffffffffffffffffffffffffffffffffffffffff1673ffffffffffffffffffffffffffffffffffffffff1681526020016001820180546112d290612eb2565b80601f01602080910402602001604051908101604052809291908181526020018280546112fe90612eb2565b801561134b5780601f106113205761010080835404028352916020019161134b565b820191906000526020600020905b81548152906001019060200180831161132e57829003601f168201915b5050505050815260200160028201805461136490612eb2565b80601f016020809104026020016040519081016040528092919081815260200182805461139090612eb2565b80156113dd5780601f106113b2576101008083540402835291602001916113dd565b820191906000526020600020905b8154815290600101906020018083116113c057829003601f168201915b50505050508152505081526020019060010190611249565b5050505090508091505090565b600160009054906101000a900473ffffffffffffffffffffffffffffffffffffffff1681565b606060006007805480602002602001604051908101604052809291908181526020016000905b8282101561160e57838290600052602060002090600502016040518060a00160405290816000820160009054906101000a900473ffffffffffffffffffffffffffffffffffffffff1673ffffffffffffffffffffffffffffffffffffffff1673ffffffffffffffffffffffffffffffffffffffff1681526020016001820180546114d790612eb2565b80601f016020809104026020016040519081016040528092919081815260200182805461150390612eb2565b80156115505780601f1061152557610100808354040283529160200191611550565b820191906000526020600020905b81548152906001019060200180831161153357829003601f168201915b5050505050815260200160028201805461156990612eb2565b80601f016020809104026020016040519081016040528092919081815260200182805461159590612eb2565b80156115e25780601f106115b7576101008083540402835291602001916115e2565b820191906000526020600020905b8154815290600101906020018083116115c557829003601f168201915b50505050508152602001600382015481526020016004820154815250508152602001906001019061144e565b5050505090508091505090565b6007818154811061162b57600080fd5b90600052602060002090600502016000915090508060000160009054906101000a900473ffffffffffffffffffffffffffffffffffffffff169080600101805461167490612eb2565b80601f01602080910402602001604051908101604052809291908181526020018280546116a090612eb2565b80156116ed5780601f106116c2576101008083540402835291602001916116ed565b820191906000526020600020905b8154815290600101906020018083116116d057829003601f168201915b50505050509080600201805461170290612eb2565b80601f016020809104026020016040519081016040528092919081815260200182805461172e90612eb2565b801561177b5780601f106117505761010080835404028352916020019161177b565b820191906000526020600020905b81548152906001019060200180831161175e57829003601f168201915b5050505050908060030154908060040154905085565b60035481565b600a60009054906101000a900460ff1681565b60025481565b600881815481106117c057600080fd5b90600052602060002090600302016000915090508060000160009054906101000a900473ffffffffffffffffffffffffffffffffffffffff169080600101805461180990612eb2565b80601f016020809104026020016040519081016040528092919081815260200182805461183590612eb2565b80156118825780601f1061185757610100808354040283529160200191611882565b820191906000526020600020905b81548152906001019060200180831161186557829003601f168201915b50505050509080600201805461189790612eb2565b80601f01602080910402602001604051908101604052809291908181526020018280546118c390612eb2565b80156119105780601f106118e557610100808354040283529160200191611910565b820191906000526020600020905b8154815290600101906020018083116118f357829003601f168201915b5050505050905083565b6000600160009054906101000a900473ffffffffffffffffffffffffffffffffffffffff1673ffffffffffffffffffffffffffffffffffffffff163373ffffffffffffffffffffffffffffffffffffffff16146119ac576040517f08c379a00000000000000000000000000000000000000000000000000000000081526004016119a39061321e565b60405180910390fd5b600060028111156119c0576119bf612854565b5b600a60009054906101000a900460ff1660028111156119e2576119e1612854565b5b14611a22576040517f08c379a0000000000000000000000000000000000000000000000000000000008152600401611a199061328a565b60405180910390fd5b6000825111611a3057600080fd5b60005b8251811015611b18576008838281518110611a5157611a506132aa565b5b6020026020010151908060018154018082558091505060019003906000526020600020906003020160009091909190915060008201518160000160006101000a81548173ffffffffffffffffffffffffffffffffffffffff021916908373ffffffffffffffffffffffffffffffffffffffff1602179055506020820151816001019080519060200190611ae5929190611f6a565b506040820151816002019080519060200190611b02929190611f6a565b5050508080611b10906132d9565b915050611a33565b508360009080519060200190611b2f929190611f6a565b50826002819055506001600a60006101000a81548160ff02191690836002811115611b5d57611b5c612854565b5b021790555042600481905550600190509392505050565b4760036000828254611b86919061311c565b925050819055506000600880549050905060008147611ba591906131a1565b905060005b82811015611f655760088181548110611bc657611bc56132aa565b5b906000526020600020906003020160000160009054906101000a900473ffffffffffffffffffffffffffffffffffffffff1673ffffffffffffffffffffffffffffffffffffffff166108fc839081150290604051600060405180830381858888f19350505050158015611c3d573d6000803e3d6000fd5b506000604051806060016040528060088481548110611c5f57611c5e6132aa565b5b90600052602060002090600302016040518060600160405290816000820160009054906101000a900473ffffffffffffffffffffffffffffffffffffffff1673ffffffffffffffffffffffffffffffffffffffff1673ffffffffffffffffffffffffffffffffffffffff168152602001600182018054611cde90612eb2565b80601f0160208091040260200160405190810160405280929190818152602001828054611d0a90612eb2565b8015611d575780601f10611d2c57610100808354040283529160200191611d57565b820191906000526020600020905b815481529060010190602001808311611d3a57829003601f168201915b50505050508152602001600282018054611d7090612eb2565b80601f0160208091040260200160405190810160405280929190818152602001828054611d9c90612eb2565b8015611de95780601f10611dbe57610100808354040283529160200191611de9565b820191906000526020600020905b815481529060010190602001808311611dcc57829003601f168201915b5050505050815250508152602001848152602001428152509050600981908060018154018082558091505060019003906000526020600020906005020160009091909190915060008201518160000160008201518160000160006101000a81548173ffffffffffffffffffffffffffffffffffffffff021916908373ffffffffffffffffffffffffffffffffffffffff1602179055506020820151816001019080519060200190611e9b929190611f6a565b506040820151816002019080519060200190611eb8929190611f6a565b505050602082015181600301556040820151816004015550507ffaffca71c161e93019c1527f21a0fb1523759be5092113930dab383f15a3a3593060088481548110611f0757611f066132aa565b5b906000526020600020906003020160000160009054906101000a900473ffffffffffffffffffffffffffffffffffffffff1685604051611f4993929190613322565b60405180910390a1508080611f5d906132d9565b915050611baa565b505050565b828054611f7690612eb2565b90600052602060002090601f016020900481019282611f985760008555611fdf565b82601f10611fb157805160ff1916838001178555611fdf565b82800160010185558215611fdf579182015b82811115611fde578251825591602001919060010190611fc3565b5b509050611fec9190612064565b5090565b604051806101200160405280600073ffffffffffffffffffffffffffffffffffffffff168152602001606081526020016000815260200160008152602001600081526020016000815260200160008152602001606081526020016000600281111561205e5761205d612854565b5b81525090565b5b8082111561207d576000816000905550600101612065565b5090565b600081519050919050565b600082825260208201905092915050565b60005b838110156120bb5780820151818401526020810190506120a0565b838111156120ca576000848401525b50505050565b6000601f19601f8301169050919050565b60006120ec82612081565b6120f6818561208c565b935061210681856020860161209d565b61210f816120d0565b840191505092915050565b6000602082019050818103600083015261213481846120e1565b905092915050565b6000604051905090565b600080fd5b600080fd5b6000819050919050565b61216381612150565b811461216e57600080fd5b50565b6000813590506121808161215a565b92915050565b60006020828403121561219c5761219b612146565b5b60006121aa84828501612171565b91505092915050565b600073ffffffffffffffffffffffffffffffffffffffff82169050919050565b60006121de826121b3565b9050919050565b6121ee816121d3565b82525050565b600082825260208201905092915050565b600061221082612081565b61221a81856121f4565b935061222a81856020860161209d565b612233816120d0565b840191505092915050565b600060608301600083015161225660008601826121e5565b506020830151848203602086015261226e8282612205565b915050604083015184820360408601526122888282612205565b9150508091505092915050565b61229e81612150565b82525050565b600060608201905081810360008301526122be818661223e565b90506122cd6020830185612295565b6122da6040830184612295565b949350505050565b60006020820190506122f76000830184612295565b92915050565b600080fd5b600080fd5b7f4e487b7100000000000000000000000000000000000000000000000000000000600052604160045260246000fd5b61233f826120d0565b810181811067ffffffffffffffff8211171561235e5761235d612307565b5b80604052505050565b600061237161213c565b905061237d8282612336565b919050565b600067ffffffffffffffff82111561239d5761239c612307565b5b6123a6826120d0565b9050602081019050919050565b82818337600083830152505050565b60006123d56123d084612382565b612367565b9050828152602081018484840111156123f1576123f0612302565b5b6123fc8482856123b3565b509392505050565b600082601f830112612419576124186122fd565b5b81356124298482602086016123c2565b91505092915050565b6000806040838503121561244957612448612146565b5b600083013567ffffffffffffffff8111156124675761246661214b565b5b61247385828601612404565b925050602083013567ffffffffffffffff8111156124945761249361214b565b5b6124a085828601612404565b9150509250929050565b60008115159050919050565b6124bf816124aa565b82525050565b60006020820190506124da60008301846124b6565b92915050565b60006124eb826121b3565b9050919050565b6124fb816124e0565b82525050565b600060208201905061251660008301846124f2565b92915050565b612525816124e0565b811461253057600080fd5b50565b6000813590506125428161251c565b92915050565b6000806040838503121561255f5761255e612146565b5b600061256d85828601612533565b925050602061257e85828601612171565b9150509250929050565b600060a08201905061259d60008301886124f2565b81810360208301526125af81876120e1565b905081810360408301526125c381866120e1565b90506125d26060830185612295565b6125df6080830184612295565b9695505050505050565b600081519050919050565b600082825260208201905092915050565b6000819050602082019050919050565b600060608301600083015161262d60008601826121e5565b50602083015184820360208601526126458282612205565b9150506040830151848203604086015261265f8282612205565b9150508091505092915050565b61267581612150565b82525050565b600060608301600083015184820360008601526126988282612615565b91505060208301516126ad602086018261266c565b5060408301516126c0604086018261266c565b508091505092915050565b60006126d7838361267b565b905092915050565b6000602082019050919050565b60006126f7826125e9565b61270181856125f4565b93508360208202850161271385612605565b8060005b8581101561274f578484038952815161273085826126cb565b945061273b836126df565b925060208a01995050600181019050612717565b50829750879550505050505092915050565b6000602082019050818103600083015261277b81846126ec565b905092915050565b61278c816124e0565b82525050565b600081519050919050565b600082825260208201905092915050565b6000819050602082019050919050565b60006127ca8383612615565b905092915050565b6000602082019050919050565b60006127ea82612792565b6127f4818561279d565b935083602082028501612806856127ae565b8060005b85811015612842578484038952815161282385826127be565b945061282e836127d2565b925060208a0199505060018101905061280a565b50829750879550505050505092915050565b7f4e487b7100000000000000000000000000000000000000000000000000000000600052602160045260246000fd5b6003811061289457612893612854565b5b50565b60008190506128a582612883565b919050565b60006128b582612897565b9050919050565b6128c5816128aa565b82525050565b6000610120830160008301516128e46000860182612783565b50602083015184820360208601526128fc8282612205565b9150506040830151612911604086018261266c565b506060830151612924606086018261266c565b506080830151612937608086018261266c565b5060a083015161294a60a086018261266c565b5060c083015161295d60c086018261266c565b5060e083015184820360e086015261297582826127df565b91505061010083015161298c6101008601826128bc565b508091505092915050565b600060208201905081810360008301526129b181846128cb565b905092915050565b600082825260208201905092915050565b60006129d582612792565b6129df81856129b9565b9350836020820285016129f1856127ae565b8060005b85811015612a2d5784840389528151612a0e85826127be565b9450612a19836127d2565b925060208a019950506001810190506129f5565b50829750879550505050505092915050565b60006020820190508181036000830152612a5981846129ca565b905092915050565b600081519050919050565b600082825260208201905092915050565b6000819050602082019050919050565b600060a083016000830151612aa56000860182612783565b5060208301518482036020860152612abd8282612205565b91505060408301518482036040860152612ad78282612205565b9150506060830151612aec606086018261266c565b506080830151612aff608086018261266c565b508091505092915050565b6000612b168383612a8d565b905092915050565b6000602082019050919050565b6000612b3682612a61565b612b408185612a6c565b935083602082028501612b5285612a7d565b8060005b85811015612b8e5784840389528151612b6f8582612b0a565b9450612b7a83612b1e565b925060208a01995050600181019050612b56565b50829750879550505050505092915050565b60006020820190508181036000830152612bba8184612b2b565b905092915050565b612bcb816128aa565b82525050565b6000602082019050612be66000830184612bc2565b92915050565b612bf5816121d3565b82525050565b6000606082019050612c106000830186612bec565b8181036020830152612c2281856120e1565b90508181036040830152612c3681846120e1565b9050949350505050565b600067ffffffffffffffff821115612c5b57612c5a612307565b5b602082029050602081019050919050565b600080fd5b600080fd5b600080fd5b612c84816121d3565b8114612c8f57600080fd5b50565b600081359050612ca181612c7b565b92915050565b600060608284031215612cbd57612cbc612c71565b5b612cc76060612367565b90506000612cd784828501612c92565b600083015250602082013567ffffffffffffffff811115612cfb57612cfa612c76565b5b612d0784828501612404565b602083015250604082013567ffffffffffffffff811115612d2b57612d2a612c76565b5b612d3784828501612404565b60408301525092915050565b6000612d56612d5184612c40565b612367565b90508083825260208201905060208402830185811115612d7957612d78612c6c565b5b835b81811015612dc057803567ffffffffffffffff811115612d9e57612d9d6122fd565b5b808601612dab8982612ca7565b85526020850194505050602081019050612d7b565b5050509392505050565b600082601f830112612ddf57612dde6122fd565b5b8135612def848260208601612d43565b91505092915050565b600080600060608486031215612e1157612e10612146565b5b600084013567ffffffffffffffff811115612e2f57612e2e61214b565b5b612e3b86828701612404565b9350506020612e4c86828701612171565b925050604084013567ffffffffffffffff811115612e6d57612e6c61214b565b5b612e7986828701612dca565b9150509250925092565b7f4e487b7100000000000000000000000000000000000000000000000000000000600052602260045260246000fd5b60006002820490506001821680612eca57607f821691505b60208210811415612ede57612edd612e83565b5b50919050565b7f50726f6a65637420686173206e6f742073746172746564206f7220686173206560008201527f6e64656400000000000000000000000000000000000000000000000000000000602082015250565b6000612f4060248361208c565b9150612f4b82612ee4565b604082019050919050565b60006020820190508181036000830152612f6f81612f33565b9050919050565b7f416d6f756e74206d7573742062652067726561746572207468616e207a65726f600082015250565b6000612fac60208361208c565b9150612fb782612f76565b602082019050919050565b60006020820190508181036000830152612fdb81612f9f565b9050919050565b7f42616c616e6365206f66206163636f756e74206973206e6f7420656e6f756768600082015250565b600061301860208361208c565b915061302382612fe2565b602082019050919050565b600060208201905081810360008301526130478161300b565b9050919050565b600060a0830160008301516130666000860182612783565b506020830151848203602086015261307e8282612205565b915050604083015184820360408601526130988282612205565b91505060608301516130ad606086018261266c565b5060808301516130c0608086018261266c565b508091505092915050565b600060208201905081810360008301526130e5818461304e565b905092915050565b7f4e487b7100000000000000000000000000000000000000000000000000000000600052601160045260246000fd5b600061312782612150565b915061313283612150565b9250827fffffffffffffffffffffffffffffffffffffffffffffffffffffffffffffffff03821115613167576131666130ed565b5b828201905092915050565b7f4e487b7100000000000000000000000000000000000000000000000000000000600052601260045260246000fd5b60006131ac82612150565b91506131b783612150565b9250826131c7576131c6613172565b5b828204905092915050565b7f4e6f207065726d697373696f6e00000000000000000000000000000000000000600082015250565b6000613208600d8361208c565b9150613213826131d2565b602082019050919050565b60006020820190508181036000830152613237816131fb565b9050919050565b7f50726f6a6563742069732072756e6e696e67206f722068617320656e64656400600082015250565b6000613274601f8361208c565b915061327f8261323e565b602082019050919050565b600060208201905081810360008301526132a381613267565b9050919050565b7f4e487b7100000000000000000000000000000000000000000000000000000000600052603260045260246000fd5b60006132e482612150565b91507fffffffffffffffffffffffffffffffffffffffffffffffffffffffffffffffff821415613317576133166130ed565b5b600182019050919050565b600060608201905061333760008301866124f2565b6133446020830185612bec565b6133516040830184612295565b94935050505056fea2646970667358221220259c9eb8fb62316984b7b0c8130836e7ba41d854f8e75e488a159bd7b4ff967164736f6c634300080a0033a2646970667358221220128c3d36f9ecd9bd98357f7ca666c93af1667b2a361e7c7da85e6a9d8d0b69a664736f6c634300080a0033",
  "immutableReferences": {},
  "source": "pragma solidity >=0.7.0 <0.9.0;\r\n\r\nimport \"./Project.sol\";\r\n\r\ncontract Charity {\r\n    address[] public listProject;\r\n    address public owner;\r\n\r\n    constructor() {\r\n        owner = msg.sender;\r\n    }\r\n\r\n    //event\r\n    event addCharityProjectEvent(\r\n        address owner,\r\n        address projectAddress,\r\n        string name,\r\n        uint256 target\r\n    );\r\n\r\n    function addCharityProject(string memory _name, uint256 _target)\r\n        public\r\n        returns (bool)\r\n    {\r\n        require(msg.sender == owner, \"No Permission\");\r\n\r\n        Project charity = new Project(_name, _target, msg.sender);\r\n        listProject.push(address(charity));\r\n        emit addCharityProjectEvent(\r\n            msg.sender,\r\n            charity.getAddress(),\r\n            _name,\r\n            _target\r\n        );\r\n        return true;\r\n    }\r\n\r\n    function getAllProject() public view returns (address[] memory) {\r\n        return listProject;\r\n    }\r\n\r\n    function getProjectInfo(address _address)\r\n        public\r\n        view\r\n        returns (Project.ProjectInfo memory)\r\n    {\r\n        Project pi = Project(_address);\r\n        return pi.getProjectInfo();\r\n    }\r\n\r\n    function getInfoCharity()\r\n        public\r\n        view\r\n        returns (\r\n            uint256 totalDonate,\r\n            uint256 totalDonator,\r\n            uint256 totalBeneficy\r\n        )\r\n    {\r\n        for (uint256 i = 0; i < listProject.length; i++) {\r\n            Project.ProjectInfo memory p = Project(listProject[i])\r\n                .getProjectInfo();\r\n            totalDonate += (p.balance + p.allocated);\r\n            totalDonator += p.numberOfDonator;\r\n            totalBeneficy += p.numberOfBeneficy;\r\n        }\r\n    }\r\n}\r\n",
  "sourcePath": "C:\\Users\\lexua\\Desktop\\charity-project\\contracts\\Charity.sol",
  "compiler": {
    "name": "solc",
    "version": "0.8.10+commit.fc410830.Emscripten.clang"
  },
  "schemaVersion": "3.4.3",
  "updatedAt": "2022-01-12T21:40:00.056Z",
  "networkType": "ethereum",
  "devdoc": {
    "kind": "dev",
    "methods": {},
    "version": 1
  },
  "userdoc": {
    "kind": "user",
    "methods": {},
    "version": 1
  }
}