{
  "contractName": "Project",
  "abi": [
    {
      "inputs": [
        {
          "internalType": "string",
          "name": "_name",
          "type": "string"
        },
        {
          "internalType": "string",
          "name": "_description",
          "type": "string"
        },
        {
          "internalType": "uint256",
          "name": "_target",
          "type": "uint256"
        },
        {
          "internalType": "address",
          "name": "_ownerAddess",
          "type": "address"
        }
      ],
      "stateMutability": "nonpayable",
      "type": "constructor"
    },
    {
      "anonymous": false,
      "inputs": [
        {
          "components": [
            {
              "internalType": "address",
              "name": "donatorAddress",
              "type": "address"
            },
            {
              "internalType": "string",
              "name": "name",
              "type": "string"
            },
            {
              "internalType": "string",
              "name": "message",
              "type": "string"
            },
            {
              "internalType": "uint256",
              "name": "amount",
              "type": "uint256"
            },
            {
              "internalType": "uint256",
              "name": "timestamp",
              "type": "uint256"
            }
          ],
          "indexed": false,
          "internalType": "struct Project.Donator",
          "name": "donator",
          "type": "tuple"
        }
      ],
      "name": "donateEvent",
      "type": "event"
    },
    {
      "anonymous": false,
      "inputs": [
        {
          "indexed": false,
          "internalType": "address",
          "name": "from",
          "type": "address"
        },
        {
          "indexed": false,
          "internalType": "address payable",
          "name": "to",
          "type": "address"
        },
        {
          "indexed": false,
          "internalType": "uint256",
          "name": "value",
          "type": "uint256"
        }
      ],
      "name": "tranferToBeneficiaryEvent",
      "type": "event"
    },
    {
      "inputs": [],
      "name": "amountRaised",
      "outputs": [
        {
          "internalType": "uint256",
          "name": "",
          "type": "uint256"
        }
      ],
      "stateMutability": "view",
      "type": "function"
    },
    {
      "inputs": [
        {
          "internalType": "uint256",
          "name": "",
          "type": "uint256"
        }
      ],
      "name": "beneficiaries",
      "outputs": [
        {
          "internalType": "address payable",
          "name": "beneficiaryAddress",
          "type": "address"
        },
        {
          "internalType": "string",
          "name": "name",
          "type": "string"
        },
        {
          "internalType": "string",
          "name": "description",
          "type": "string"
        }
      ],
      "stateMutability": "view",
      "type": "function"
    },
    {
      "inputs": [],
      "name": "description",
      "outputs": [
        {
          "internalType": "string",
          "name": "",
          "type": "string"
        }
      ],
      "stateMutability": "view",
      "type": "function"
    },
    {
      "inputs": [
        {
          "internalType": "uint256",
          "name": "",
          "type": "uint256"
        }
      ],
      "name": "donators",
      "outputs": [
        {
          "internalType": "address",
          "name": "donatorAddress",
          "type": "address"
        },
        {
          "internalType": "string",
          "name": "name",
          "type": "string"
        },
        {
          "internalType": "string",
          "name": "message",
          "type": "string"
        },
        {
          "internalType": "uint256",
          "name": "amount",
          "type": "uint256"
        },
        {
          "internalType": "uint256",
          "name": "timestamp",
          "type": "uint256"
        }
      ],
      "stateMutability": "view",
      "type": "function"
    },
    {
      "inputs": [
        {
          "internalType": "address",
          "name": "",
          "type": "address"
        },
        {
          "internalType": "uint256",
          "name": "",
          "type": "uint256"
        }
      ],
      "name": "myDonation",
      "outputs": [
        {
          "internalType": "address",
          "name": "donatorAddress",
          "type": "address"
        },
        {
          "internalType": "string",
          "name": "name",
          "type": "string"
        },
        {
          "internalType": "string",
          "name": "message",
          "type": "string"
        },
        {
          "internalType": "uint256",
          "name": "amount",
          "type": "uint256"
        },
        {
          "internalType": "uint256",
          "name": "timestamp",
          "type": "uint256"
        }
      ],
      "stateMutability": "view",
      "type": "function"
    },
    {
      "inputs": [],
      "name": "name",
      "outputs": [
        {
          "internalType": "string",
          "name": "",
          "type": "string"
        }
      ],
      "stateMutability": "view",
      "type": "function"
    },
    {
      "inputs": [],
      "name": "owner",
      "outputs": [
        {
          "internalType": "address",
          "name": "",
          "type": "address"
        }
      ],
      "stateMutability": "view",
      "type": "function"
    },
    {
      "inputs": [],
      "name": "state",
      "outputs": [
        {
          "internalType": "enum Project.charity_state",
          "name": "",
          "type": "uint8"
        }
      ],
      "stateMutability": "view",
      "type": "function"
    },
    {
      "inputs": [],
      "name": "target",
      "outputs": [
        {
          "internalType": "uint256",
          "name": "",
          "type": "uint256"
        }
      ],
      "stateMutability": "view",
      "type": "function"
    },
    {
      "inputs": [
        {
          "internalType": "uint256",
          "name": "",
          "type": "uint256"
        }
      ],
      "name": "transactionBeneficiaries",
      "outputs": [
        {
          "components": [
            {
              "internalType": "address payable",
              "name": "beneficiaryAddress",
              "type": "address"
            },
            {
              "internalType": "string",
              "name": "name",
              "type": "string"
            },
            {
              "internalType": "string",
              "name": "description",
              "type": "string"
            }
          ],
          "internalType": "struct Project.Beneficiary",
          "name": "beneficiary",
          "type": "tuple"
        },
        {
          "internalType": "uint256",
          "name": "amount",
          "type": "uint256"
        },
        {
          "internalType": "uint256",
          "name": "timestamp",
          "type": "uint256"
        }
      ],
      "stateMutability": "view",
      "type": "function"
    },
    {
      "inputs": [],
      "name": "startCharity",
      "outputs": [
        {
          "internalType": "bool",
          "name": "",
          "type": "bool"
        }
      ],
      "stateMutability": "nonpayable",
      "type": "function"
    },
    {
      "inputs": [
        {
          "components": [
            {
              "internalType": "address payable",
              "name": "beneficiaryAddress",
              "type": "address"
            },
            {
              "internalType": "string",
              "name": "name",
              "type": "string"
            },
            {
              "internalType": "string",
              "name": "description",
              "type": "string"
            }
          ],
          "internalType": "struct Project.Beneficiary[]",
          "name": "_beneficiaries",
          "type": "tuple[]"
        }
      ],
      "name": "addBeneficiary",
      "outputs": [
        {
          "internalType": "bool",
          "name": "",
          "type": "bool"
        }
      ],
      "stateMutability": "nonpayable",
      "type": "function"
    },
    {
      "inputs": [
        {
          "internalType": "string",
          "name": "_name",
          "type": "string"
        },
        {
          "internalType": "string",
          "name": "_message",
          "type": "string"
        }
      ],
      "name": "donate",
      "outputs": [
        {
          "internalType": "bool",
          "name": "",
          "type": "bool"
        }
      ],
      "stateMutability": "payable",
      "type": "function"
    },
    {
      "inputs": [],
      "name": "checkTarget",
      "outputs": [
        {
          "internalType": "bool",
          "name": "",
          "type": "bool"
        }
      ],
      "stateMutability": "view",
      "type": "function"
    },
    {
      "inputs": [],
      "name": "getBalance",
      "outputs": [
        {
          "internalType": "uint256",
          "name": "",
          "type": "uint256"
        }
      ],
      "stateMutability": "view",
      "type": "function"
    },
    {
      "inputs": [],
      "name": "getAddress",
      "outputs": [
        {
          "internalType": "address",
          "name": "",
          "type": "address"
        }
      ],
      "stateMutability": "view",
      "type": "function"
    },
    {
      "inputs": [],
      "name": "getAmountRaised",
      "outputs": [
        {
          "internalType": "uint256",
          "name": "",
          "type": "uint256"
        }
      ],
      "stateMutability": "view",
      "type": "function"
    },
    {
      "inputs": [],
      "name": "getAllDonator",
      "outputs": [
        {
          "components": [
            {
              "internalType": "address",
              "name": "donatorAddress",
              "type": "address"
            },
            {
              "internalType": "string",
              "name": "name",
              "type": "string"
            },
            {
              "internalType": "string",
              "name": "message",
              "type": "string"
            },
            {
              "internalType": "uint256",
              "name": "amount",
              "type": "uint256"
            },
            {
              "internalType": "uint256",
              "name": "timestamp",
              "type": "uint256"
            }
          ],
          "internalType": "struct Project.Donator[]",
          "name": "",
          "type": "tuple[]"
        }
      ],
      "stateMutability": "view",
      "type": "function"
    },
    {
      "inputs": [],
      "name": "getAllBeneficiary",
      "outputs": [
        {
          "components": [
            {
              "internalType": "address payable",
              "name": "beneficiaryAddress",
              "type": "address"
            },
            {
              "internalType": "string",
              "name": "name",
              "type": "string"
            },
            {
              "internalType": "string",
              "name": "description",
              "type": "string"
            }
          ],
          "internalType": "struct Project.Beneficiary[]",
          "name": "",
          "type": "tuple[]"
        }
      ],
      "stateMutability": "view",
      "type": "function"
    },
    {
      "inputs": [],
      "name": "getAllTransactionBeneficiary",
      "outputs": [
        {
          "components": [
            {
              "components": [
                {
                  "internalType": "address payable",
                  "name": "beneficiaryAddress",
                  "type": "address"
                },
                {
                  "internalType": "string",
                  "name": "name",
                  "type": "string"
                },
                {
                  "internalType": "string",
                  "name": "description",
                  "type": "string"
                }
              ],
              "internalType": "struct Project.Beneficiary",
              "name": "beneficiary",
              "type": "tuple"
            },
            {
              "internalType": "uint256",
              "name": "amount",
              "type": "uint256"
            },
            {
              "internalType": "uint256",
              "name": "timestamp",
              "type": "uint256"
            }
          ],
          "internalType": "struct Project.TransactionBeneficiary[]",
          "name": "",
          "type": "tuple[]"
        }
      ],
      "stateMutability": "view",
      "type": "function"
    },
    {
      "inputs": [],
      "name": "getProjectInfo",
      "outputs": [
        {
          "components": [
            {
              "internalType": "address",
              "name": "projectAddress",
              "type": "address"
            },
            {
              "internalType": "string",
              "name": "name",
              "type": "string"
            },
            {
              "internalType": "string",
              "name": "description",
              "type": "string"
            },
            {
              "internalType": "uint256",
              "name": "target",
              "type": "uint256"
            },
            {
              "internalType": "uint256",
              "name": "balance",
              "type": "uint256"
            },
            {
              "internalType": "uint256",
              "name": "numberOfDonator",
              "type": "uint256"
            },
            {
              "internalType": "uint256",
              "name": "numberOfBeneficy",
              "type": "uint256"
            }
          ],
          "internalType": "struct Project.ProjectInfo",
          "name": "",
          "type": "tuple"
        }
      ],
      "stateMutability": "view",
      "type": "function"
    }
  ],
  "bytecode": "0x60806040523480156200001157600080fd5b50604051620039e0380380620039e083398181016040528101906200003791906200041c565b600082116200007d576040517f08c379a000000000000000000000000000000000000000000000000000000000815260040162000074906200059f565b60405180910390fd5b8360009080519060200190620000959291906200012f565b508260019080519060200190620000ae9291906200012f565b5080600260006101000a81548173ffffffffffffffffffffffffffffffffffffffff021916908373ffffffffffffffffffffffffffffffffffffffff160217905550816003819055506000600960006101000a81548160ff0219169083600281111562000120576200011f620005c1565b5b02179055505050505062000655565b8280546200013d906200061f565b90600052602060002090601f016020900481019282620001615760008555620001ad565b82601f106200017c57805160ff1916838001178555620001ad565b82800160010185558215620001ad579182015b82811115620001ac5782518255916020019190600101906200018f565b5b509050620001bc9190620001c0565b5090565b5b80821115620001db576000816000905550600101620001c1565b5090565b6000604051905090565b600080fd5b600080fd5b600080fd5b600080fd5b6000601f19601f8301169050919050565b7f4e487b7100000000000000000000000000000000000000000000000000000000600052604160045260246000fd5b6200024882620001fd565b810181811067ffffffffffffffff821117156200026a57620002696200020e565b5b80604052505050565b60006200027f620001df565b90506200028d82826200023d565b919050565b600067ffffffffffffffff821115620002b057620002af6200020e565b5b620002bb82620001fd565b9050602081019050919050565b60005b83811015620002e8578082015181840152602081019050620002cb565b83811115620002f8576000848401525b50505050565b6000620003156200030f8462000292565b62000273565b905082815260208101848484011115620003345762000333620001f8565b5b62000341848285620002c8565b509392505050565b600082601f830112620003615762000360620001f3565b5b815162000373848260208601620002fe565b91505092915050565b6000819050919050565b62000391816200037c565b81146200039d57600080fd5b50565b600081519050620003b18162000386565b92915050565b600073ffffffffffffffffffffffffffffffffffffffff82169050919050565b6000620003e482620003b7565b9050919050565b620003f681620003d7565b81146200040257600080fd5b50565b6000815190506200041681620003eb565b92915050565b60008060008060808587031215620004395762000438620001e9565b5b600085015167ffffffffffffffff8111156200045a5762000459620001ee565b5b620004688782880162000349565b945050602085015167ffffffffffffffff8111156200048c576200048b620001ee565b5b6200049a8782880162000349565b9350506040620004ad87828801620003a0565b9250506060620004c08782880162000405565b91505092959194509250565b600082825260208201905092915050565b7f4d2545312542422541356325323074692543332541417525323063254531254260008201527f4225413761253230642545312542422542312532302543332541316e2532307060208201527f68254531254241254133692532306c2545312542422539426e2532306825433660408201527f2541316e25323030000000000000000000000000000000000000000000000000606082015250565b600062000587606883620004cc565b91506200059482620004dd565b608082019050919050565b60006020820190508181036000830152620005ba8162000578565b9050919050565b7f4e487b7100000000000000000000000000000000000000000000000000000000600052602160045260246000fd5b7f4e487b7100000000000000000000000000000000000000000000000000000000600052602260045260246000fd5b600060028204905060018216806200063857607f821691505b602082108114156200064f576200064e620005f0565b5b50919050565b61337b80620006656000396000f3fe60806040526004361061012a5760003560e01c80637284e416116100ab578063a07354631161006f578063a0735463146103f5578063a149277b14610420578063ac62f5661461044b578063c19d93fb1461048c578063d4b83992146104b7578063efeb5e58146104e25761012a565b80637284e4161461031e57806373d81bb7146103495780637b3e5e7b146103745780637bad2c0d1461039f5780638da5cb5b146103ca5761012a565b8063481b5f6f116100f2578063481b5f6f1461021f578063500424d71461026057806356fd7dab1461029d57806367c897fe146102c85780636d1af018146102f35761012a565b806306fdde031461012f5780630a24e8961461015a57806312065fe0146101995780631653441c146101c457806338cc4831146101f4575b600080fd5b34801561013b57600080fd5b50610144610521565b60405161015191906120b0565b60405180910390f35b34801561016657600080fd5b50610181600480360381019061017c919061211c565b6105af565b6040516101909392919061223a565b60405180910390f35b3480156101a557600080fd5b506101ae61076d565b6040516101bb9190612278565b60405180910390f35b6101de60048036038101906101d991906123c8565b610775565b6040516101eb919061245b565b60405180910390f35b34801561020057600080fd5b50610209610b30565b6040516102169190612497565b60405180910390f35b34801561022b57600080fd5b50610246600480360381019061024191906124de565b610b38565b60405161025795949392919061251e565b60405180910390f35b34801561026c57600080fd5b5061028760048036038101906102829190612737565b610cbb565b604051610294919061245b565b60405180910390f35b3480156102a957600080fd5b506102b2610eb5565b6040516102bf91906128f8565b60405180910390f35b3480156102d457600080fd5b506102dd6110bc565b6040516102ea91906129cc565b60405180910390f35b3480156102ff57600080fd5b50610308611246565b6040516103159190612278565b60405180910390f35b34801561032a57600080fd5b50610333611250565b60405161034091906120b0565b60405180910390f35b34801561035557600080fd5b5061035e6112de565b60405161036b919061245b565b60405180910390f35b34801561038057600080fd5b50610389611301565b6040516103969190612278565b60405180910390f35b3480156103ab57600080fd5b506103b4611307565b6040516103c19190612ab0565b60405180910390f35b3480156103d657600080fd5b506103df6114e6565b6040516103ec9190612497565b60405180910390f35b34801561040157600080fd5b5061040a61150c565b6040516104179190612c11565b60405180910390f35b34801561042c57600080fd5b506104356116ff565b604051610442919061245b565b60405180910390f35b34801561045757600080fd5b50610472600480360381019061046d919061211c565b61184b565b60405161048395949392919061251e565b60405180910390f35b34801561049857600080fd5b506104a16119c1565b6040516104ae9190612caa565b60405180910390f35b3480156104c357600080fd5b506104cc6119d4565b6040516104d99190612278565b60405180910390f35b3480156104ee57600080fd5b506105096004803603810190610504919061211c565b6119da565b60405161051893929190612cd4565b60405180910390f35b6000805461052e90612d48565b80601f016020809104026020016040519081016040528092919081815260200182805461055a90612d48565b80156105a75780601f1061057c576101008083540402835291602001916105a7565b820191906000526020600020905b81548152906001019060200180831161058a57829003601f168201915b505050505081565b600881815481106105bf57600080fd5b9060005260206000209060050201600091509050806000016040518060600160405290816000820160009054906101000a900473ffffffffffffffffffffffffffffffffffffffff1673ffffffffffffffffffffffffffffffffffffffff1673ffffffffffffffffffffffffffffffffffffffff16815260200160018201805461064890612d48565b80601f016020809104026020016040519081016040528092919081815260200182805461067490612d48565b80156106c15780601f10610696576101008083540402835291602001916106c1565b820191906000526020600020905b8154815290600101906020018083116106a457829003601f168201915b505050505081526020016002820180546106da90612d48565b80601f016020809104026020016040519081016040528092919081815260200182805461070690612d48565b80156107535780601f1061072857610100808354040283529160200191610753565b820191906000526020600020905b81548152906001019060200180831161073657829003601f168201915b505050505081525050908060030154908060040154905083565b600047905090565b60006001600281111561078b5761078a612c33565b5b600960009054906101000a900460ff1660028111156107ad576107ac612c33565b5b146107ed576040517f08c379a00000000000000000000000000000000000000000000000000000000081526004016107e490612e5e565b60405180910390fd5b60003411610830576040517f08c379a000000000000000000000000000000000000000000000000000000000815260040161082790612f16565b60405180910390fd5b343373ffffffffffffffffffffffffffffffffffffffff163111610889576040517f08c379a000000000000000000000000000000000000000000000000000000000815260040161088090612fa8565b60405180910390fd5b60006040518060a001604052803373ffffffffffffffffffffffffffffffffffffffff168152602001858152602001848152602001348152602001428152509050600560003373ffffffffffffffffffffffffffffffffffffffff1673ffffffffffffffffffffffffffffffffffffffff16815260200190815260200160002081908060018154018082558091505060019003906000526020600020906005020160009091909190915060008201518160000160006101000a81548173ffffffffffffffffffffffffffffffffffffffff021916908373ffffffffffffffffffffffffffffffffffffffff1602179055506020820151816001019080519060200190610996929190611f21565b5060408201518160020190805190602001906109b3929190611f21565b5060608201518160030155608082015181600401555050600681908060018154018082558091505060019003906000526020600020906005020160009091909190915060008201518160000160006101000a81548173ffffffffffffffffffffffffffffffffffffffff021916908373ffffffffffffffffffffffffffffffffffffffff1602179055506020820151816001019080519060200190610a59929190611f21565b506040820151816002019080519060200190610a76929190611f21565b50606082015181600301556080820151816004015550503460046000828254610a9f9190612ff7565b925050819055507f24d83d68453fc3df073101ac515398dd4daeb23e45efb66c3ad49303c188968e81604051610ad591906130ca565b60405180910390a160011515610ae96112de565b15151415610b25576002600960006101000a81548160ff02191690836002811115610b1757610b16612c33565b5b0217905550610b24611b44565b5b600191505092915050565b600030905090565b60056020528160005260406000208181548110610b5457600080fd5b9060005260206000209060050201600091509150508060000160009054906101000a900473ffffffffffffffffffffffffffffffffffffffff1690806001018054610b9e90612d48565b80601f0160208091040260200160405190810160405280929190818152602001828054610bca90612d48565b8015610c175780601f10610bec57610100808354040283529160200191610c17565b820191906000526020600020905b815481529060010190602001808311610bfa57829003601f168201915b505050505090806002018054610c2c90612d48565b80601f0160208091040260200160405190810160405280929190818152602001828054610c5890612d48565b8015610ca55780601f10610c7a57610100808354040283529160200191610ca5565b820191906000526020600020905b815481529060010190602001808311610c8857829003601f168201915b5050505050908060030154908060040154905085565b6000600260009054906101000a900473ffffffffffffffffffffffffffffffffffffffff1673ffffffffffffffffffffffffffffffffffffffff163373ffffffffffffffffffffffffffffffffffffffff1614610d4d576040517f08c379a0000000000000000000000000000000000000000000000000000000008152600401610d449061315e565b60405180910390fd5b60006002811115610d6157610d60612c33565b5b600960009054906101000a900460ff166002811115610d8357610d82612c33565b5b14610dc3576040517f08c379a0000000000000000000000000000000000000000000000000000000008152600401610dba90613216565b60405180910390fd5b60005b8251811015610eab576007838281518110610de457610de3613236565b5b6020026020010151908060018154018082558091505060019003906000526020600020906003020160009091909190915060008201518160000160006101000a81548173ffffffffffffffffffffffffffffffffffffffff021916908373ffffffffffffffffffffffffffffffffffffffff1602179055506020820151816001019080519060200190610e78929190611f21565b506040820151816002019080519060200190610e95929190611f21565b5050508080610ea390613265565b915050610dc6565b5060019050919050565b606060006008805480602002602001604051908101604052809291908181526020016000905b828210156110af5783829060005260206000209060050201604051806060016040529081600082016040518060600160405290816000820160009054906101000a900473ffffffffffffffffffffffffffffffffffffffff1673ffffffffffffffffffffffffffffffffffffffff1673ffffffffffffffffffffffffffffffffffffffff168152602001600182018054610f7490612d48565b80601f0160208091040260200160405190810160405280929190818152602001828054610fa090612d48565b8015610fed5780601f10610fc257610100808354040283529160200191610fed565b820191906000526020600020905b815481529060010190602001808311610fd057829003601f168201915b5050505050815260200160028201805461100690612d48565b80601f016020809104026020016040519081016040528092919081815260200182805461103290612d48565b801561107f5780601f106110545761010080835404028352916020019161107f565b820191906000526020600020905b81548152906001019060200180831161106257829003601f168201915b50505050508152505081526020016003820154815260200160048201548152505081526020019060010190610edb565b5050505090508091505090565b6110c4611fa7565b60006040518060e001604052806110d9610b30565b73ffffffffffffffffffffffffffffffffffffffff1681526020016000805461110190612d48565b80601f016020809104026020016040519081016040528092919081815260200182805461112d90612d48565b801561117a5780601f1061114f5761010080835404028352916020019161117a565b820191906000526020600020905b81548152906001019060200180831161115d57829003601f168201915b505050505081526020016001805461119190612d48565b80601f01602080910402602001604051908101604052809291908181526020018280546111bd90612d48565b801561120a5780601f106111df5761010080835404028352916020019161120a565b820191906000526020600020905b8154815290600101906020018083116111ed57829003601f168201915b505050505081526020016003548152602001611224611246565b8152602001600680549050815260200160078054905081525090508091505090565b6000600454905090565b6001805461125d90612d48565b80601f016020809104026020016040519081016040528092919081815260200182805461128990612d48565b80156112d65780601f106112ab576101008083540402835291602001916112d6565b820191906000526020600020905b8154815290600101906020018083116112b957829003601f168201915b505050505081565b60006003546112eb61076d565b106112f957600190506112fe565b600090505b90565b60045481565b606060006007805480602002602001604051908101604052809291908181526020016000905b828210156114d957838290600052602060002090600302016040518060600160405290816000820160009054906101000a900473ffffffffffffffffffffffffffffffffffffffff1673ffffffffffffffffffffffffffffffffffffffff1673ffffffffffffffffffffffffffffffffffffffff1681526020016001820180546113b690612d48565b80601f01602080910402602001604051908101604052809291908181526020018280546113e290612d48565b801561142f5780601f106114045761010080835404028352916020019161142f565b820191906000526020600020905b81548152906001019060200180831161141257829003601f168201915b5050505050815260200160028201805461144890612d48565b80601f016020809104026020016040519081016040528092919081815260200182805461147490612d48565b80156114c15780601f10611496576101008083540402835291602001916114c1565b820191906000526020600020905b8154815290600101906020018083116114a457829003601f168201915b5050505050815250508152602001906001019061132d565b5050505090508091505090565b600260009054906101000a900473ffffffffffffffffffffffffffffffffffffffff1681565b606060006006805480602002602001604051908101604052809291908181526020016000905b828210156116f257838290600052602060002090600502016040518060a00160405290816000820160009054906101000a900473ffffffffffffffffffffffffffffffffffffffff1673ffffffffffffffffffffffffffffffffffffffff1673ffffffffffffffffffffffffffffffffffffffff1681526020016001820180546115bb90612d48565b80601f01602080910402602001604051908101604052809291908181526020018280546115e790612d48565b80156116345780601f1061160957610100808354040283529160200191611634565b820191906000526020600020905b81548152906001019060200180831161161757829003601f168201915b5050505050815260200160028201805461164d90612d48565b80601f016020809104026020016040519081016040528092919081815260200182805461167990612d48565b80156116c65780601f1061169b576101008083540402835291602001916116c6565b820191906000526020600020905b8154815290600101906020018083116116a957829003601f168201915b505050505081526020016003820154815260200160048201548152505081526020019060010190611532565b5050505090508091505090565b6000600260009054906101000a900473ffffffffffffffffffffffffffffffffffffffff1673ffffffffffffffffffffffffffffffffffffffff163373ffffffffffffffffffffffffffffffffffffffff1614611791576040517f08c379a00000000000000000000000000000000000000000000000000000000081526004016117889061315e565b60405180910390fd5b600060028111156117a5576117a4612c33565b5b600960009054906101000a900460ff1660028111156117c7576117c6612c33565b5b14611807576040517f08c379a00000000000000000000000000000000000000000000000000000000081526004016117fe90613216565b60405180910390fd5b60006007805490501161181957600080fd5b6001600960006101000a81548160ff0219169083600281111561183f5761183e612c33565b5b02179055506001905090565b6006818154811061185b57600080fd5b90600052602060002090600502016000915090508060000160009054906101000a900473ffffffffffffffffffffffffffffffffffffffff16908060010180546118a490612d48565b80601f01602080910402602001604051908101604052809291908181526020018280546118d090612d48565b801561191d5780601f106118f25761010080835404028352916020019161191d565b820191906000526020600020905b81548152906001019060200180831161190057829003601f168201915b50505050509080600201805461193290612d48565b80601f016020809104026020016040519081016040528092919081815260200182805461195e90612d48565b80156119ab5780601f10611980576101008083540402835291602001916119ab565b820191906000526020600020905b81548152906001019060200180831161198e57829003601f168201915b5050505050908060030154908060040154905085565b600960009054906101000a900460ff1681565b60035481565b600781815481106119ea57600080fd5b90600052602060002090600302016000915090508060000160009054906101000a900473ffffffffffffffffffffffffffffffffffffffff1690806001018054611a3390612d48565b80601f0160208091040260200160405190810160405280929190818152602001828054611a5f90612d48565b8015611aac5780601f10611a8157610100808354040283529160200191611aac565b820191906000526020600020905b815481529060010190602001808311611a8f57829003601f168201915b505050505090806002018054611ac190612d48565b80601f0160208091040260200160405190810160405280929190818152602001828054611aed90612d48565b8015611b3a5780601f10611b0f57610100808354040283529160200191611b3a565b820191906000526020600020905b815481529060010190602001808311611b1d57829003601f168201915b5050505050905083565b6000600780549050905060008147611b5c91906132dd565b905060005b82811015611f1c5760078181548110611b7d57611b7c613236565b5b906000526020600020906003020160000160009054906101000a900473ffffffffffffffffffffffffffffffffffffffff1673ffffffffffffffffffffffffffffffffffffffff166108fc839081150290604051600060405180830381858888f19350505050158015611bf4573d6000803e3d6000fd5b506000604051806060016040528060078481548110611c1657611c15613236565b5b90600052602060002090600302016040518060600160405290816000820160009054906101000a900473ffffffffffffffffffffffffffffffffffffffff1673ffffffffffffffffffffffffffffffffffffffff1673ffffffffffffffffffffffffffffffffffffffff168152602001600182018054611c9590612d48565b80601f0160208091040260200160405190810160405280929190818152602001828054611cc190612d48565b8015611d0e5780601f10611ce357610100808354040283529160200191611d0e565b820191906000526020600020905b815481529060010190602001808311611cf157829003601f168201915b50505050508152602001600282018054611d2790612d48565b80601f0160208091040260200160405190810160405280929190818152602001828054611d5390612d48565b8015611da05780601f10611d7557610100808354040283529160200191611da0565b820191906000526020600020905b815481529060010190602001808311611d8357829003601f168201915b5050505050815250508152602001848152602001428152509050600881908060018154018082558091505060019003906000526020600020906005020160009091909190915060008201518160000160008201518160000160006101000a81548173ffffffffffffffffffffffffffffffffffffffff021916908373ffffffffffffffffffffffffffffffffffffffff1602179055506020820151816001019080519060200190611e52929190611f21565b506040820151816002019080519060200190611e6f929190611f21565b505050602082015181600301556040820151816004015550507ffaffca71c161e93019c1527f21a0fb1523759be5092113930dab383f15a3a3593060078481548110611ebe57611ebd613236565b5b906000526020600020906003020160000160009054906101000a900473ffffffffffffffffffffffffffffffffffffffff1685604051611f009392919061330e565b60405180910390a1508080611f1490613265565b915050611b61565b505050565b828054611f2d90612d48565b90600052602060002090601f016020900481019282611f4f5760008555611f96565b82601f10611f6857805160ff1916838001178555611f96565b82800160010185558215611f96579182015b82811115611f95578251825591602001919060010190611f7a565b5b509050611fa39190611ffa565b5090565b6040518060e00160405280600073ffffffffffffffffffffffffffffffffffffffff1681526020016060815260200160608152602001600081526020016000815260200160008152602001600081525090565b5b80821115612013576000816000905550600101611ffb565b5090565b600081519050919050565b600082825260208201905092915050565b60005b83811015612051578082015181840152602081019050612036565b83811115612060576000848401525b50505050565b6000601f19601f8301169050919050565b600061208282612017565b61208c8185612022565b935061209c818560208601612033565b6120a581612066565b840191505092915050565b600060208201905081810360008301526120ca8184612077565b905092915050565b6000604051905090565b600080fd5b600080fd5b6000819050919050565b6120f9816120e6565b811461210457600080fd5b50565b600081359050612116816120f0565b92915050565b600060208284031215612132576121316120dc565b5b600061214084828501612107565b91505092915050565b600073ffffffffffffffffffffffffffffffffffffffff82169050919050565b600061217482612149565b9050919050565b61218481612169565b82525050565b600082825260208201905092915050565b60006121a682612017565b6121b0818561218a565b93506121c0818560208601612033565b6121c981612066565b840191505092915050565b60006060830160008301516121ec600086018261217b565b5060208301518482036020860152612204828261219b565b9150506040830151848203604086015261221e828261219b565b9150508091505092915050565b612234816120e6565b82525050565b6000606082019050818103600083015261225481866121d4565b9050612263602083018561222b565b612270604083018461222b565b949350505050565b600060208201905061228d600083018461222b565b92915050565b600080fd5b600080fd5b7f4e487b7100000000000000000000000000000000000000000000000000000000600052604160045260246000fd5b6122d582612066565b810181811067ffffffffffffffff821117156122f4576122f361229d565b5b80604052505050565b60006123076120d2565b905061231382826122cc565b919050565b600067ffffffffffffffff8211156123335761233261229d565b5b61233c82612066565b9050602081019050919050565b82818337600083830152505050565b600061236b61236684612318565b6122fd565b90508281526020810184848401111561238757612386612298565b5b612392848285612349565b509392505050565b600082601f8301126123af576123ae612293565b5b81356123bf848260208601612358565b91505092915050565b600080604083850312156123df576123de6120dc565b5b600083013567ffffffffffffffff8111156123fd576123fc6120e1565b5b6124098582860161239a565b925050602083013567ffffffffffffffff81111561242a576124296120e1565b5b6124368582860161239a565b9150509250929050565b60008115159050919050565b61245581612440565b82525050565b6000602082019050612470600083018461244c565b92915050565b600061248182612149565b9050919050565b61249181612476565b82525050565b60006020820190506124ac6000830184612488565b92915050565b6124bb81612476565b81146124c657600080fd5b50565b6000813590506124d8816124b2565b92915050565b600080604083850312156124f5576124f46120dc565b5b6000612503858286016124c9565b925050602061251485828601612107565b9150509250929050565b600060a0820190506125336000830188612488565b81810360208301526125458187612077565b905081810360408301526125598186612077565b9050612568606083018561222b565b612575608083018461222b565b9695505050505050565b600067ffffffffffffffff82111561259a5761259961229d565b5b602082029050602081019050919050565b600080fd5b600080fd5b600080fd5b6125c381612169565b81146125ce57600080fd5b50565b6000813590506125e0816125ba565b92915050565b6000606082840312156125fc576125fb6125b0565b5b61260660606122fd565b90506000612616848285016125d1565b600083015250602082013567ffffffffffffffff81111561263a576126396125b5565b5b6126468482850161239a565b602083015250604082013567ffffffffffffffff81111561266a576126696125b5565b5b6126768482850161239a565b60408301525092915050565b60006126956126908461257f565b6122fd565b905080838252602082019050602084028301858111156126b8576126b76125ab565b5b835b818110156126ff57803567ffffffffffffffff8111156126dd576126dc612293565b5b8086016126ea89826125e6565b855260208501945050506020810190506126ba565b5050509392505050565b600082601f83011261271e5761271d612293565b5b813561272e848260208601612682565b91505092915050565b60006020828403121561274d5761274c6120dc565b5b600082013567ffffffffffffffff81111561276b5761276a6120e1565b5b61277784828501612709565b91505092915050565b600081519050919050565b600082825260208201905092915050565b6000819050602082019050919050565b60006060830160008301516127c4600086018261217b565b50602083015184820360208601526127dc828261219b565b915050604083015184820360408601526127f6828261219b565b9150508091505092915050565b61280c816120e6565b82525050565b6000606083016000830151848203600086015261282f82826127ac565b91505060208301516128446020860182612803565b5060408301516128576040860182612803565b508091505092915050565b600061286e8383612812565b905092915050565b6000602082019050919050565b600061288e82612780565b612898818561278b565b9350836020820285016128aa8561279c565b8060005b858110156128e657848403895281516128c78582612862565b94506128d283612876565b925060208a019950506001810190506128ae565b50829750879550505050505092915050565b600060208201905081810360008301526129128184612883565b905092915050565b61292381612476565b82525050565b600060e083016000830151612941600086018261291a565b5060208301518482036020860152612959828261219b565b91505060408301518482036040860152612973828261219b565b91505060608301516129886060860182612803565b50608083015161299b6080860182612803565b5060a08301516129ae60a0860182612803565b5060c08301516129c160c0860182612803565b508091505092915050565b600060208201905081810360008301526129e68184612929565b905092915050565b600081519050919050565b600082825260208201905092915050565b6000819050602082019050919050565b6000612a2683836127ac565b905092915050565b6000602082019050919050565b6000612a46826129ee565b612a5081856129f9565b935083602082028501612a6285612a0a565b8060005b85811015612a9e5784840389528151612a7f8582612a1a565b9450612a8a83612a2e565b925060208a01995050600181019050612a66565b50829750879550505050505092915050565b60006020820190508181036000830152612aca8184612a3b565b905092915050565b600081519050919050565b600082825260208201905092915050565b6000819050602082019050919050565b600060a083016000830151612b16600086018261291a565b5060208301518482036020860152612b2e828261219b565b91505060408301518482036040860152612b48828261219b565b9150506060830151612b5d6060860182612803565b506080830151612b706080860182612803565b508091505092915050565b6000612b878383612afe565b905092915050565b6000602082019050919050565b6000612ba782612ad2565b612bb18185612add565b935083602082028501612bc385612aee565b8060005b85811015612bff5784840389528151612be08582612b7b565b9450612beb83612b8f565b925060208a01995050600181019050612bc7565b50829750879550505050505092915050565b60006020820190508181036000830152612c2b8184612b9c565b905092915050565b7f4e487b7100000000000000000000000000000000000000000000000000000000600052602160045260246000fd5b60038110612c7357612c72612c33565b5b50565b6000819050612c8482612c62565b919050565b6000612c9482612c76565b9050919050565b612ca481612c89565b82525050565b6000602082019050612cbf6000830184612c9b565b92915050565b612cce81612169565b82525050565b6000606082019050612ce96000830186612cc5565b8181036020830152612cfb8185612077565b90508181036040830152612d0f8184612077565b9050949350505050565b7f4e487b7100000000000000000000000000000000000000000000000000000000600052602260045260246000fd5b60006002820490506001821680612d6057607f821691505b60208210811415612d7457612d73612d19565b5b50919050565b7f442545312542422542312532302543332541316e2532306e254333254130792560008201527f323063682543362542306125323062254531254241254146742532302543342560208201527f393125453125424125413775253230686f25453125424125423763253230254360408201527f342539312543332541332532306b25453125424125424674253230746825433360608201527f2542416300000000000000000000000000000000000000000000000000000000608082015250565b6000612e48608483612022565b9150612e5382612d7a565b60a082019050919050565b60006020820190508181036000830152612e7781612e3b565b9050919050565b7f5325453125424225393125323074692545312542422538316e2532307175792560008201527f43332541416e253230672543332542337025323070682545312542412541336960208201527f2532306c2545312542422539426e253230682543362541316e25323030000000604082015250565b6000612f00605d83612022565b9150612f0b82612e7e565b606082019050919050565b60006020820190508181036000830152612f2f81612ef3565b9050919050565b7f53254531254242253931253230642543362542302532306b682543332542346e60008201527f6725323025433425393125453125424225413700000000000000000000000000602082015250565b6000612f92603383612022565b9150612f9d82612f36565b604082019050919050565b60006020820190508181036000830152612fc181612f85565b9050919050565b7f4e487b7100000000000000000000000000000000000000000000000000000000600052601160045260246000fd5b6000613002826120e6565b915061300d836120e6565b9250827fffffffffffffffffffffffffffffffffffffffffffffffffffffffffffffffff0382111561304257613041612fc8565b5b828201905092915050565b600060a083016000830151613065600086018261291a565b506020830151848203602086015261307d828261219b565b91505060408301518482036040860152613097828261219b565b91505060608301516130ac6060860182612803565b5060808301516130bf6080860182612803565b508091505092915050565b600060208201905081810360008301526130e4818461304d565b905092915050565b7f4b682543332542346e672532306325433325423325323071757925453125424260008201527f2538316e25323074682545312542422542316325323074686900000000000000602082015250565b6000613148603983612022565b9150613153826130ec565b604082019050919050565b600060208201905081810360008301526131778161313b565b9050919050565b7f442545312542422542312532302543332541316e2532306e254333254130792560008201527f3230254334253931254333254133253230686f2545312542412541317425323060208201527f2543342539312545312542422539396e67000000000000000000000000000000604082015250565b6000613200605183612022565b915061320b8261317e565b606082019050919050565b6000602082019050818103600083015261322f816131f3565b9050919050565b7f4e487b7100000000000000000000000000000000000000000000000000000000600052603260045260246000fd5b6000613270826120e6565b91507fffffffffffffffffffffffffffffffffffffffffffffffffffffffffffffffff8214156132a3576132a2612fc8565b5b600182019050919050565b7f4e487b7100000000000000000000000000000000000000000000000000000000600052601260045260246000fd5b60006132e8826120e6565b91506132f3836120e6565b925082613303576133026132ae565b5b828204905092915050565b60006060820190506133236000830186612488565b6133306020830185612cc5565b61333d604083018461222b565b94935050505056fea264697066735822122094c8d13ec72d92d7b96892d513abb229b1d593c796e9c8eb9f549d04a690f70d64736f6c634300080a0033",
  "immutableReferences": {},
  "source": "pragma solidity >=0.7.0 <0.9.0;\r\n\r\ncontract Project {\r\n    struct Donator {\r\n        address donatorAddress;\r\n        string name;\r\n        string message;\r\n        uint256 amount;\r\n        uint256 timestamp;\r\n    }\r\n\r\n    struct Beneficiary {\r\n        address payable beneficiaryAddress;\r\n        string name;\r\n        string description;\r\n    }\r\n\r\n    struct TransactionBeneficiary {\r\n        Beneficiary beneficiary;\r\n        uint256 amount;\r\n        uint256 timestamp;\r\n    }\r\n\r\n    struct ProjectInfo {\r\n        address projectAddress;\r\n        string name;\r\n        string description;\r\n        uint256 target;\r\n        uint256 balance;\r\n        uint256 numberOfDonator;\r\n        uint256 numberOfBeneficy;\r\n    }\r\n\r\n    enum charity_state {\r\n        SETUP,\r\n        START,\r\n        FINISH\r\n    }\r\n\r\n    string public name;\r\n    string public description;\r\n    address public owner;\r\n    uint256 public target;\r\n    uint256 public amountRaised;\r\n    mapping(address => Donator[]) public myDonation;\r\n    Donator[] public donators;\r\n    Beneficiary[] public beneficiaries;\r\n    TransactionBeneficiary[] public transactionBeneficiaries;\r\n    charity_state public state;\r\n\r\n    constructor(\r\n        string memory _name,\r\n        string memory _description,\r\n        uint256 _target,\r\n        address _ownerAddess\r\n    ) {\r\n        require(\r\n            _target > 0,\r\n            \"M%E1%BB%A5c%20ti%C3%AAu%20c%E1%BB%A7a%20d%E1%BB%B1%20%C3%A1n%20ph%E1%BA%A3i%20l%E1%BB%9Bn%20h%C6%A1n%200\"\r\n        );\r\n        name = _name;\r\n        description = _description;\r\n        owner = _ownerAddess;\r\n        target = _target;\r\n        state = charity_state.SETUP;\r\n    }\r\n\r\n    //event\r\n    event donateEvent(Donator donator);\r\n    event tranferToBeneficiaryEvent(\r\n        address from,\r\n        address payable to,\r\n        uint256 value\r\n    );\r\n\r\n    //manager methods\r\n    function startCharity() public returns (bool) {\r\n        require(\r\n            msg.sender == owner,\r\n            \"Kh%C3%B4ng%20c%C3%B3%20quy%E1%BB%81n%20th%E1%BB%B1c%20thi\"\r\n        );\r\n        require(\r\n            state == charity_state.SETUP,\r\n            \"D%E1%BB%B1%20%C3%A1n%20n%C3%A0y%20%C4%91%C3%A3%20ho%E1%BA%A1t%20%C4%91%E1%BB%99ng\"\r\n        );\r\n        require(beneficiaries.length > 0);\r\n\r\n        state = charity_state.START;\r\n        return true;\r\n    }\r\n\r\n    function addBeneficiary(Beneficiary[] memory _beneficiaries)\r\n        public\r\n        returns (bool)\r\n    {\r\n        require(\r\n            msg.sender == owner,\r\n            \"Kh%C3%B4ng%20c%C3%B3%20quy%E1%BB%81n%20th%E1%BB%B1c%20thi\"\r\n        );\r\n        require(\r\n            state == charity_state.SETUP,\r\n            \"D%E1%BB%B1%20%C3%A1n%20n%C3%A0y%20%C4%91%C3%A3%20ho%E1%BA%A1t%20%C4%91%E1%BB%99ng\"\r\n        );\r\n\r\n        for (uint256 i = 0; i < _beneficiaries.length; i++) {\r\n            beneficiaries.push(_beneficiaries[i]);\r\n        }\r\n        return true;\r\n    }\r\n\r\n    //public methods\r\n    function donate(string memory _name, string memory _message)\r\n        public\r\n        payable\r\n        returns (bool)\r\n    {\r\n        require(\r\n            state == charity_state.START,\r\n            \"D%E1%BB%B1%20%C3%A1n%20n%C3%A0y%20ch%C6%B0a%20b%E1%BA%AFt%20%C4%91%E1%BA%A7u%20ho%E1%BA%B7c%20%C4%91%C3%A3%20k%E1%BA%BFt%20th%C3%BAc\"\r\n        );\r\n        require(\r\n            msg.value > 0,\r\n            \"S%E1%BB%91%20ti%E1%BB%81n%20quy%C3%AAn%20g%C3%B3p%20ph%E1%BA%A3i%20l%E1%BB%9Bn%20h%C6%A1n%200\"\r\n        );\r\n        require(\r\n            msg.sender.balance > msg.value,\r\n            \"S%E1%BB%91%20d%C6%B0%20kh%C3%B4ng%20%C4%91%E1%BB%A7\"\r\n        );\r\n\r\n        Donator memory donator = Donator(\r\n            msg.sender,\r\n            _name,\r\n            _message,\r\n            msg.value,\r\n            block.timestamp\r\n        );\r\n\r\n        myDonation[msg.sender].push(donator);\r\n        donators.push(donator);\r\n\r\n        amountRaised += msg.value;\r\n        emit donateEvent(donator);\r\n\r\n        if (checkTarget() == true) {\r\n            state = charity_state.FINISH;\r\n            tranferToBeneficiary();\r\n        }\r\n\r\n        return true;\r\n    }\r\n\r\n    function checkTarget() public view returns (bool) {\r\n        if (getBalance() >= target) return true;\r\n        return false;\r\n    }\r\n\r\n    function getBalance() public view returns (uint256) {\r\n        return address(this).balance;\r\n    }\r\n\r\n    function getAddress() public view returns (address) {\r\n        return address(this);\r\n    }\r\n\r\n    function getAmountRaised() public view returns (uint256) {\r\n        return amountRaised;\r\n    }\r\n\r\n    function getAllDonator() public view returns (Donator[] memory) {\r\n        Donator[] memory d = donators;\r\n        return d;\r\n    }\r\n\r\n    function getAllBeneficiary() public view returns (Beneficiary[] memory) {\r\n        Beneficiary[] memory b = beneficiaries;\r\n        return b;\r\n    }\r\n\r\n    function getAllTransactionBeneficiary()\r\n        public\r\n        view\r\n        returns (TransactionBeneficiary[] memory)\r\n    {\r\n        TransactionBeneficiary[] memory t = transactionBeneficiaries;\r\n        return t;\r\n    }\r\n\r\n    function getProjectInfo() public view returns (ProjectInfo memory) {\r\n        ProjectInfo memory pi = ProjectInfo(\r\n            getAddress(),\r\n            name,\r\n            description,\r\n            target,\r\n            getAmountRaised(),\r\n            donators.length,\r\n            beneficiaries.length\r\n        );\r\n        return pi;\r\n    }\r\n\r\n    // private methods\r\n    function tranferToBeneficiary() private {\r\n        uint256 totalBeneficiary = beneficiaries.length;\r\n        uint256 amountPerPerson = address(this).balance / totalBeneficiary;\r\n        for (uint256 i = 0; i < totalBeneficiary; i++) {\r\n            beneficiaries[i].beneficiaryAddress.transfer(amountPerPerson);\r\n\r\n            //save transaction\r\n            TransactionBeneficiary memory transaction = TransactionBeneficiary(\r\n                beneficiaries[i],\r\n                amountPerPerson,\r\n                block.timestamp\r\n            );\r\n            transactionBeneficiaries.push(transaction);\r\n\r\n            emit tranferToBeneficiaryEvent(\r\n                address(this),\r\n                beneficiaries[i].beneficiaryAddress,\r\n                amountPerPerson\r\n            );\r\n        }\r\n    }\r\n}\r\n",
  "sourcePath": "C:\\Users\\lexua\\Desktop\\charity-project\\contracts\\Project.sol",
  "compiler": {
    "name": "solc",
    "version": "0.8.10+commit.fc410830.Emscripten.clang"
  },
  "schemaVersion": "3.4.3",
  "updatedAt": "2021-11-29T00:17:04.947Z",
  "devdoc": {
    "kind": "dev",
    "methods": {},
    "version": 1
  },
  "userdoc": {
    "kind": "user",
    "methods": {},
    "version": 1
  }
}